{
  "transactions": [
    {
      "hash": "0x2e3b81155cdba2064064a785bda44a75e9415940777b3d7364c234ff96aeb6b5",
      "transactionType": "CALL",
      "contractName": null,
      "contractAddress": "0x30f166a8a0c108d32a6dee5d856877a372a6b2fa",
      "function": "updatePrices(bytes32[],(int64,uint64,int32,uint256)[])",
      "arguments": [
        "[0x396a969a9c1480fa15ed50bc59149e2c0075a72fe8f458ed941ddec48bdb4918, 0xab1bdad3d2984801e48480cca22df5d709fdfd2149246c9aef6e06a17a0a9394, 0x6693afcd49878bbd622e46bd805e7177932cf6ab0b1c91b135d71151b9207433, 0x2b89b9dc8fdf9f34709a5b106b472f0f39bb6ca9ce04b0fd7f2e971688e2e53b]",
        "[(79000000, 5000, -8, 1769565132), (2800000, 50000, -8, 1769565132), (6000, 100, -8, 1769565132), (99868820, 83088, -8, 1769565132)]"
      ],
      "transaction": {
        "from": "0x07dab64aa125b206d7fd6a81aab2133a0bdef863",
        "to": "0x30f166a8a0c108d32a6dee5d856877a372a6b2fa",
        "gas": "0x1874e",
        "value": "0x0",
        "input": "0x419781ae000000000000000000000000000000000000000000000000000000000000004000000000000000000000000000000000000000000000000000000000000000e00000000000000000000000000000000000000000000000000000000000000004396a969a9c1480fa15ed50bc59149e2c0075a72fe8f458ed941ddec48bdb4918ab1bdad3d2984801e48480cca22df5d709fdfd2149246c9aef6e06a17a0a93946693afcd49878bbd622e46bd805e7177932cf6ab0b1c91b135d71151b92074332b89b9dc8fdf9f34709a5b106b472f0f39bb6ca9ce04b0fd7f2e971688e2e53b00000000000000000000000000000000000000000000000000000000000000040000000000000000000000000000000000000000000000000000000004b571c00000000000000000000000000000000000000000000000000000000000001388fffffffffffffffffffffffffffffffffffffffffffffffffffffffffffffff80000000000000000000000000000000000000000000000000000000069796bcc00000000000000000000000000000000000000000000000000000000002ab980000000000000000000000000000000000000000000000000000000000000c350fffffffffffffffffffffffffffffffffffffffffffffffffffffffffffffff80000000000000000000000000000000000000000000000000000000069796bcc00000000000000000000000000000000000000000000000000000000000017700000000000000000000000000000000000000000000000000000000000000064fffffffffffffffffffffffffffffffffffffffffffffffffffffffffffffff80000000000000000000000000000000000000000000000000000000069796bcc0000000000000000000000000000000000000000000000000000000005f3e0940000000000000000000000000000000000000000000000000000000000014490fffffffffffffffffffffffffffffffffffffffffffffffffffffffffffffff80000000000000000000000000000000000000000000000000000000069796bcc",
        "nonce": "0x1a1",
        "chainId": "0xaa36a7"
      },
      "additionalContracts": [],
      "isFixedGasLimit": false
    }
  ],
  "receipts": [
    {
      "status": "0x1",
      "cumulativeGasUsed": "0x8ead42",
      "logs": [],
      "logsBloom": "0x00000000000000000000000000000000000000000000000000000000000000000000000000000000000000000000000000000000000000000000000000000000000000000000000000000000000000000000000000000000000000000000000000000000000000000000000000000000000000000000000000000000000000000000000000000000000000000000000000000000000000000000000000000000000000000000000000000000000000000000000000000000000000000000000000000000000000000000000000000000000000000000000000000000000000000000000000000000000000000000000000000000000000000000000000000000",
      "type": "0x2",
      "transactionHash": "0x2e3b81155cdba2064064a785bda44a75e9415940777b3d7364c234ff96aeb6b5",
      "transactionIndex": "0x23",
      "blockHash": "0x0e412ef7e67e212b1333911c0a2386762305445579bebe2e0c104a2e9b3caeb3",
      "blockNumber": "0x9ab2cb",
      "gasUsed": "0x11b4d",
      "effectiveGasPrice": "0x43026614",
      "from": "0x07dab64aa125b206d7fd6a81aab2133a0bdef863",
      "to": "0x30f166a8a0c108d32a6dee5d856877a372a6b2fa",
      "contractAddress": null
    }
  ],
  "libraries": [],
  "pending": [],
  "returns": {},
  "timestamp": 1769565158374,
  "chain": 11155111,
  "commit": "b5ad36e"
}