{
  "transactions": [
    {
      "hash": "0x6d34b48fc92120f5cf517ce661c7d39420e16b028939654cde5829d409d49231",
      "transactionType": "CALL",
      "contractName": null,
      "contractAddress": "0x30f166a8a0c108d32a6dee5d856877a372a6b2fa",
      "function": "updatePrices(bytes32[],(int64,uint64,int32,uint256)[])",
      "arguments": [
        "[0x396a969a9c1480fa15ed50bc59149e2c0075a72fe8f458ed941ddec48bdb4918, 0x6693afcd49878bbd622e46bd805e7177932cf6ab0b1c91b135d71151b9207433, 0xab1bdad3d2984801e48480cca22df5d709fdfd2149246c9aef6e06a17a0a9394, 0x2b89b9dc8fdf9f34709a5b106b472f0f39bb6ca9ce04b0fd7f2e971688e2e53b]",
        "[(126145, 19, -5, 1769564808), (2800000, 5000, -8, 1769564808), (6400, 50, -8, 1769564808), (99866941, 86806, -8, 1769564808)]"
      ],
      "transaction": {
        "from": "0x07dab64aa125b206d7fd6a81aab2133a0bdef863",
        "to": "0x30f166a8a0c108d32a6dee5d856877a372a6b2fa",
        "gas": "0x17e21",
        "value": "0x0",
        "input": "0x419781ae000000000000000000000000000000000000000000000000000000000000004000000000000000000000000000000000000000000000000000000000000000e00000000000000000000000000000000000000000000000000000000000000004396a969a9c1480fa15ed50bc59149e2c0075a72fe8f458ed941ddec48bdb49186693afcd49878bbd622e46bd805e7177932cf6ab0b1c91b135d71151b9207433ab1bdad3d2984801e48480cca22df5d709fdfd2149246c9aef6e06a17a0a93942b89b9dc8fdf9f34709a5b106b472f0f39bb6ca9ce04b0fd7f2e971688e2e53b0000000000000000000000000000000000000000000000000000000000000004000000000000000000000000000000000000000000000000000000000001ecc10000000000000000000000000000000000000000000000000000000000000013fffffffffffffffffffffffffffffffffffffffffffffffffffffffffffffffb0000000000000000000000000000000000000000000000000000000069796a8800000000000000000000000000000000000000000000000000000000002ab9800000000000000000000000000000000000000000000000000000000000001388fffffffffffffffffffffffffffffffffffffffffffffffffffffffffffffff80000000000000000000000000000000000000000000000000000000069796a8800000000000000000000000000000000000000000000000000000000000019000000000000000000000000000000000000000000000000000000000000000032fffffffffffffffffffffffffffffffffffffffffffffffffffffffffffffff80000000000000000000000000000000000000000000000000000000069796a880000000000000000000000000000000000000000000000000000000005f3d93d0000000000000000000000000000000000000000000000000000000000015316fffffffffffffffffffffffffffffffffffffffffffffffffffffffffffffff80000000000000000000000000000000000000000000000000000000069796a88",
        "nonce": "0x1a0",
        "chainId": "0xaa36a7"
      },
      "additionalContracts": [],
      "isFixedGasLimit": false
    }
  ],
  "receipts": [
    {
      "status": "0x1",
      "cumulativeGasUsed": "0x4d8b01",
      "logs": [],
      "logsBloom": "0x00000000000000000000000000000000000000000000000000000000000000000000000000000000000000000000000000000000000000000000000000000000000000000000000000000000000000000000000000000000000000000000000000000000000000000000000000000000000000000000000000000000000000000000000000000000000000000000000000000000000000000000000000000000000000000000000000000000000000000000000000000000000000000000000000000000000000000000000000000000000000000000000000000000000000000000000000000000000000000000000000000000000000000000000000000000",
      "type": "0x2",
      "transactionHash": "0x6d34b48fc92120f5cf517ce661c7d39420e16b028939654cde5829d409d49231",
      "transactionIndex": "0x28",
      "blockHash": "0x1e0070c0e81b85017c64d0ca5ddc0ba35801838681f38ddf44ded3e4f39d18c4",
      "blockNumber": "0x9ab2b0",
      "gasUsed": "0x10549",
      "effectiveGasPrice": "0x3fd9b1ce",
      "from": "0x07dab64aa125b206d7fd6a81aab2133a0bdef863",
      "to": "0x30f166a8a0c108d32a6dee5d856877a372a6b2fa",
      "contractAddress": null
    }
  ],
  "libraries": [],
  "pending": [],
  "returns": {},
  "timestamp": 1769564834184,
  "chain": 11155111,
  "commit": "b5ad36e"
}