{
  "transactions": [
    {
      "hash": "0x6ea3360d9bb76a5fea6a1afa4182368373c115e136996288b06f01417e28f598",
      "transactionType": "CALL",
      "contractName": null,
      "contractAddress": "0x30f166a8a0c108d32a6dee5d856877a372a6b2fa",
      "function": "updatePrices(bytes32[],(int64,uint64,int32,uint256)[])",
      "arguments": [
        "[0x2b89b9dc8fdf9f34709a5b106b472f0f39bb6ca9ce04b0fd7f2e971688e2e53b, 0x396a969a9c1480fa15ed50bc59149e2c0075a72fe8f458ed941ddec48bdb4918]",
        "[(99868428, 108232, -8, 1769562744), (74000000, 100000, -8, 1769562744)]"
      ],
      "transaction": {
        "from": "0x07dab64aa125b206d7fd6a81aab2133a0bdef863",
        "to": "0x30f166a8a0c108d32a6dee5d856877a372a6b2fa",
        "gas": "0xf6aa",
        "value": "0x0",
        "input": "0x419781ae000000000000000000000000000000000000000000000000000000000000004000000000000000000000000000000000000000000000000000000000000000a000000000000000000000000000000000000000000000000000000000000000022b89b9dc8fdf9f34709a5b106b472f0f39bb6ca9ce04b0fd7f2e971688e2e53b396a969a9c1480fa15ed50bc59149e2c0075a72fe8f458ed941ddec48bdb491800000000000000000000000000000000000000000000000000000000000000020000000000000000000000000000000000000000000000000000000005f3df0c000000000000000000000000000000000000000000000000000000000001a6c8fffffffffffffffffffffffffffffffffffffffffffffffffffffffffffffff80000000000000000000000000000000000000000000000000000000069796278000000000000000000000000000000000000000000000000000000000469268000000000000000000000000000000000000000000000000000000000000186a0fffffffffffffffffffffffffffffffffffffffffffffffffffffffffffffff80000000000000000000000000000000000000000000000000000000069796278",
        "nonce": "0x198",
        "chainId": "0xaa36a7"
      },
      "additionalContracts": [],
      "isFixedGasLimit": false
    }
  ],
  "receipts": [
    {
      "status": "0x1",
      "cumulativeGasUsed": "0x4eadfe",
      "logs": [],
      "logsBloom": "0x00000000000000000000000000000000000000000000000000000000000000000000000000000000000000000000000000000000000000000000000000000000000000000000000000000000000000000000000000000000000000000000000000000000000000000000000000000000000000000000000000000000000000000000000000000000000000000000000000000000000000000000000000000000000000000000000000000000000000000000000000000000000000000000000000000000000000000000000000000000000000000000000000000000000000000000000000000000000000000000000000000000000000000000000000000000",
      "type": "0x2",
      "transactionHash": "0x6ea3360d9bb76a5fea6a1afa4182368373c115e136996288b06f01417e28f598",
      "transactionIndex": "0x33",
      "blockHash": "0xd48b2f0181b5cd8d829a2af6d345161e56624f4769cc76048bf495f36df74f75",
      "blockNumber": "0x9ab20b",
      "gasUsed": "0xb295",
      "effectiveGasPrice": "0x42bf3786",
      "from": "0x07dab64aa125b206d7fd6a81aab2133a0bdef863",
      "to": "0x30f166a8a0c108d32a6dee5d856877a372a6b2fa",
      "contractAddress": null
    }
  ],
  "libraries": [],
  "pending": [],
  "returns": {},
  "timestamp": 1769562757841,
  "chain": 11155111,
  "commit": null
}