{
  "transactions": [
    {
      "hash": "0xf6033764a3c2c6bf9934a2404772d908dd38fedbbd919306728896129618576c",
      "transactionType": "CALL",
      "contractName": null,
      "contractAddress": "0x4b198d1285152b5f8bcbc5e4156d30717b16275e",
      "function": "approve(address,uint256)",
      "arguments": [
        "0x30F166A8a0c108d32a6DeE5d856877A372A6b2fa",
        "100000000000000000000"
      ],
      "transaction": {
        "from": "0x07dab64aa125b206d7fd6a81aab2133a0bdef863",
        "to": "0x4b198d1285152b5f8bcbc5e4156d30717b16275e",
        "gas": "0x106b6",
        "value": "0x0",
        "input": "0x095ea7b300000000000000000000000030f166a8a0c108d32a6dee5d856877a372a6b2fa0000000000000000000000000000000000000000000000056bc75e2d63100000",
        "nonce": "0x199",
        "chainId": "0xaa36a7"
      },
      "additionalContracts": [],
      "isFixedGasLimit": false
    },
    {
      "hash": "0xf8c35c822639b43d74474d1f32a2120a760397c125a106a2e5352160ae487db1",
      "transactionType": "CALL",
      "contractName": null,
      "contractAddress": "0x30f166a8a0c108d32a6dee5d856877a372a6b2fa",
      "function": "swap((address,address,uint256,uint256,bytes))",
      "arguments": [
        "(0x4B198D1285152B5f8BCbC5e4156D30717B16275e, 0x8c6870dBF36bEbF4c7734C35D6b2DD5AeCe9b385, 100000000000000000000, 0, 0x)"
      ],
      "transaction": {
        "from": "0x07dab64aa125b206d7fd6a81aab2133a0bdef863",
        "to": "0x30f166a8a0c108d32a6dee5d856877a372a6b2fa",
        "gas": "0x32af7",
        "value": "0x0",
        "input": "0x7f46babe00000000000000000000000000000000000000000000000000000000000000200000000000000000000000004b198d1285152b5f8bcbc5e4156d30717b16275e0000000000000000000000008c6870dbf36bebf4c7734c35d6b2dd5aece9b3850000000000000000000000000000000000000000000000056bc75e2d63100000000000000000000000000000000000000000000000000000000000000000000000000000000000000000000000000000000000000000000000000000000000a00000000000000000000000000000000000000000000000000000000000000000",
        "nonce": "0x19a",
        "chainId": "0xaa36a7"
      },
      "additionalContracts": [],
      "isFixedGasLimit": false
    }
  ],
  "receipts": [
    {
      "status": "0x1",
      "cumulativeGasUsed": "0x6e1f55",
      "logs": [
        {
          "address": "0x4b198d1285152b5f8bcbc5e4156d30717b16275e",
          "topics": [
            "0x8c5be1e5ebec7d5bd14f71427d1e84f3dd0314c0f7b2291e5b200ac8c7c3b925",
            "0x00000000000000000000000007dab64aa125b206d7fd6a81aab2133a0bdef863",
            "0x00000000000000000000000030f166a8a0c108d32a6dee5d856877a372a6b2fa"
          ],
          "data": "0x0000000000000000000000000000000000000000000000056bc75e2d63100000",
          "blockHash": "0x507dae4e36f5f684a6e186f9639ea8ca8343635fbedec5316d61bc5719704c6b",
          "blockNumber": "0x9ab20e",
          "blockTimestamp": "0x697962a8",
          "transactionHash": "0xf6033764a3c2c6bf9934a2404772d908dd38fedbbd919306728896129618576c",
          "transactionIndex": "0x2b",
          "logIndex": "0x5b",
          "removed": false
        }
      ],
      "logsBloom": "0x00000000000000000000000000000000000000000000000000000000002000000000000020000000000000240000000000200000000000000000000000200000000000000000000000000000000000000000000000000010000000000000000000000000000000000000000000000000000000000000000000000000004000000000000000000000000000000000000000000000000000000000000000000000060000000000000000000000000000000000000000000000000000000000000000000000000100000000000000000000000000000000000000000000000000000010000000000000000000000000000000000000000000000000000000000000",
      "type": "0x2",
      "transactionHash": "0xf6033764a3c2c6bf9934a2404772d908dd38fedbbd919306728896129618576c",
      "transactionIndex": "0x2b",
      "blockHash": "0x507dae4e36f5f684a6e186f9639ea8ca8343635fbedec5316d61bc5719704c6b",
      "blockNumber": "0x9ab20e",
      "gasUsed": "0xb3a2",
      "effectiveGasPrice": "0x3f2d0bc6",
      "from": "0x07dab64aa125b206d7fd6a81aab2133a0bdef863",
      "to": "0x4b198d1285152b5f8bcbc5e4156d30717b16275e",
      "contractAddress": null
    },
    {
      "status": "0x1",
      "cumulativeGasUsed": "0x706a75",
      "logs": [
        {
          "address": "0x4b198d1285152b5f8bcbc5e4156d30717b16275e",
          "topics": [
            "0xddf252ad1be2c89b69c2b068fc378daa952ba7f163c4a11628f55a4df523b3ef",
            "0x00000000000000000000000007dab64aa125b206d7fd6a81aab2133a0bdef863",
            "0x00000000000000000000000030f166a8a0c108d32a6dee5d856877a372a6b2fa"
          ],
          "data": "0x0000000000000000000000000000000000000000000000056bc75e2d63100000",
          "blockHash": "0x507dae4e36f5f684a6e186f9639ea8ca8343635fbedec5316d61bc5719704c6b",
          "blockNumber": "0x9ab20e",
          "blockTimestamp": "0x697962a8",
          "transactionHash": "0xf8c35c822639b43d74474d1f32a2120a760397c125a106a2e5352160ae487db1",
          "transactionIndex": "0x2c",
          "logIndex": "0x5c",
          "removed": false
        },
        {
          "address": "0x4b198d1285152b5f8bcbc5e4156d30717b16275e",
          "topics": [
            "0x8c5be1e5ebec7d5bd14f71427d1e84f3dd0314c0f7b2291e5b200ac8c7c3b925",
            "0x00000000000000000000000030f166a8a0c108d32a6dee5d856877a372a6b2fa",
            "0x000000000000000000000000965ccd245eb8683bdc3202b1a1c87515774b833a"
          ],
          "data": "0x0000000000000000000000000000000000000000000000056bc75e2d63100000",
          "blockHash": "0x507dae4e36f5f684a6e186f9639ea8ca8343635fbedec5316d61bc5719704c6b",
          "blockNumber": "0x9ab20e",
          "blockTimestamp": "0x697962a8",
          "transactionHash": "0xf8c35c822639b43d74474d1f32a2120a760397c125a106a2e5352160ae487db1",
          "transactionIndex": "0x2c",
          "logIndex": "0x5d",
          "removed": false
        },
        {
          "address": "0x4b198d1285152b5f8bcbc5e4156d30717b16275e",
          "topics": [
            "0xddf252ad1be2c89b69c2b068fc378daa952ba7f163c4a11628f55a4df523b3ef",
            "0x00000000000000000000000030f166a8a0c108d32a6dee5d856877a372a6b2fa",
            "0x000000000000000000000000965ccd245eb8683bdc3202b1a1c87515774b833a"
          ],
          "data": "0x0000000000000000000000000000000000000000000000056bc75e2d63100000",
          "blockHash": "0x507dae4e36f5f684a6e186f9639ea8ca8343635fbedec5316d61bc5719704c6b",
          "blockNumber": "0x9ab20e",
          "blockTimestamp": "0x697962a8",
          "transactionHash": "0xf8c35c822639b43d74474d1f32a2120a760397c125a106a2e5352160ae487db1",
          "transactionIndex": "0x2c",
          "logIndex": "0x5e",
          "removed": false
        },
        {
          "address": "0x965ccd245eb8683bdc3202b1a1c87515774b833a",
          "topics": [
            "0xe1fffcc4923d04b559f4d29a8bfc6cda04eb5b0d3c460751c2402c5c5cc9109c",
            "0x00000000000000000000000030f166a8a0c108d32a6dee5d856877a372a6b2fa"
          ],
          "data": "0x0000000000000000000000000000000000000000000000056bc75e2d63100000",
          "blockHash": "0x507dae4e36f5f684a6e186f9639ea8ca8343635fbedec5316d61bc5719704c6b",
          "blockNumber": "0x9ab20e",
          "blockTimestamp": "0x697962a8",
          "transactionHash": "0xf8c35c822639b43d74474d1f32a2120a760397c125a106a2e5352160ae487db1",
          "transactionIndex": "0x2c",
          "logIndex": "0x5f",
          "removed": false
        },
        {
          "address": "0x965ccd245eb8683bdc3202b1a1c87515774b833a",
          "topics": [
            "0x9a06c6ce5c54977df4fd88e6bb8c37e5ef9015e953a1c4713e91c1093fb51442",
            "0x0000000000000000000000000000000000000000000000000000000000aa36a7"
          ],
          "data": "0x0000000000000000000000000000000000000000000015326e8f3f7859900000",
          "blockHash": "0x507dae4e36f5f684a6e186f9639ea8ca8343635fbedec5316d61bc5719704c6b",
          "blockNumber": "0x9ab20e",
          "blockTimestamp": "0x697962a8",
          "transactionHash": "0xf8c35c822639b43d74474d1f32a2120a760397c125a106a2e5352160ae487db1",
          "transactionIndex": "0x2c",
          "logIndex": "0x60",
          "removed": false
        },
        {
          "address": "0x8c6870dbf36bebf4c7734c35d6b2dd5aece9b385",
          "topics": [
            "0xddf252ad1be2c89b69c2b068fc378daa952ba7f163c4a11628f55a4df523b3ef",
            "0x0000000000000000000000002c71ac4c6f5fdb38b422c85d15121859171c5fd6",
            "0x00000000000000000000000007dab64aa125b206d7fd6a81aab2133a0bdef863"
          ],
          "data": "0x0000000000000000000000000000000000000000000000074b4a60528439a480",
          "blockHash": "0x507dae4e36f5f684a6e186f9639ea8ca8343635fbedec5316d61bc5719704c6b",
          "blockNumber": "0x9ab20e",
          "blockTimestamp": "0x697962a8",
          "transactionHash": "0xf8c35c822639b43d74474d1f32a2120a760397c125a106a2e5352160ae487db1",
          "transactionIndex": "0x2c",
          "logIndex": "0x61",
          "removed": false
        },
        {
          "address": "0x2c71ac4c6f5fdb38b422c85d15121859171c5fd6",
          "topics": [
            "0x884edad9ce6fa2440d8a54cc123490eb96d2768479d49ff9c7366125a9424364",
            "0x00000000000000000000000030f166a8a0c108d32a6dee5d856877a372a6b2fa"
          ],
          "data": "0x0000000000000000000000000000000000000000000000074b4a60528439a480",
          "blockHash": "0x507dae4e36f5f684a6e186f9639ea8ca8343635fbedec5316d61bc5719704c6b",
          "blockNumber": "0x9ab20e",
          "blockTimestamp": "0x697962a8",
          "transactionHash": "0xf8c35c822639b43d74474d1f32a2120a760397c125a106a2e5352160ae487db1",
          "transactionIndex": "0x2c",
          "logIndex": "0x62",
          "removed": false
        },
        {
          "address": "0x2c71ac4c6f5fdb38b422c85d15121859171c5fd6",
          "topics": [
            "0x9a06c6ce5c54977df4fd88e6bb8c37e5ef9015e953a1c4713e91c1093fb51442",
            "0x0000000000000000000000000000000000000000000000000000000000aa36a7"
          ],
          "data": "0x000000000000000000000000000000000000000000001525b77d80f872465b80",
          "blockHash": "0x507dae4e36f5f684a6e186f9639ea8ca8343635fbedec5316d61bc5719704c6b",
          "blockNumber": "0x9ab20e",
          "blockTimestamp": "0x697962a8",
          "transactionHash": "0xf8c35c822639b43d74474d1f32a2120a760397c125a106a2e5352160ae487db1",
          "transactionIndex": "0x2c",
          "logIndex": "0x63",
          "removed": false
        },
        {
          "address": "0x30f166a8a0c108d32a6dee5d856877a372a6b2fa",
          "topics": [
            "0x6782190c91d4a7e8ad2a867deed6ec0a970cab8ff137ae2bd4abd92b3810f4d3",
            "0x00000000000000000000000007dab64aa125b206d7fd6a81aab2133a0bdef863",
            "0x0000000000000000000000004b198d1285152b5f8bcbc5e4156d30717b16275e",
            "0x0000000000000000000000008c6870dbf36bebf4c7734c35d6b2dd5aece9b385"
          ],
          "data": "0x0000000000000000000000000000000000000000000000056bc75e2d631000000000000000000000000000000000000000000000000000074b4a60528439a480",
          "blockHash": "0x507dae4e36f5f684a6e186f9639ea8ca8343635fbedec5316d61bc5719704c6b",
          "blockNumber": "0x9ab20e",
          "blockTimestamp": "0x697962a8",
          "transactionHash": "0xf8c35c822639b43d74474d1f32a2120a760397c125a106a2e5352160ae487db1",
          "transactionIndex": "0x2c",
          "logIndex": "0x64",
          "removed": false
        }
      ],
      "logsBloom": "0x04000000000000000000000000000008000000000100000000100000012000000000000020000000000400240000000002200000020000000000000000200000000008000000000000000008000000000000000000000010000102008000000000000000000000000000000000200000000000000000210000000010004004001000010000000000000040000000000000000001200000000008000000000000060000001000000010000000000000000401020000000000080000000200000000000002000100000000000000000000100020000000000000010000002000040010002000000000000000000010000000000000000000400000002000010000",
      "type": "0x2",
      "transactionHash": "0xf8c35c822639b43d74474d1f32a2120a760397c125a106a2e5352160ae487db1",
      "transactionIndex": "0x2c",
      "blockHash": "0x507dae4e36f5f684a6e186f9639ea8ca8343635fbedec5316d61bc5719704c6b",
      "blockNumber": "0x9ab20e",
      "gasUsed": "0x24b20",
      "effectiveGasPrice": "0x3f2d0bc6",
      "from": "0x07dab64aa125b206d7fd6a81aab2133a0bdef863",
      "to": "0x30f166a8a0c108d32a6dee5d856877a372a6b2fa",
      "contractAddress": null
    }
  ],
  "libraries": [],
  "pending": [],
  "returns": {},
  "timestamp": 1769562793470,
  "chain": 11155111,
  "commit": null
}