{
  "transactions": [
    {
      "hash": "0x8dda0e4c0938c561bb78686a2dff571861086695290ae9820ebe7b468c7d08e7",
      "transactionType": "CALL",
      "contractName": null,
      "contractAddress": "0x4b198d1285152b5f8bcbc5e4156d30717b16275e",
      "function": "approve(address,uint256)",
      "arguments": [
        "0x30F166A8a0c108d32a6DeE5d856877A372A6b2fa",
        "50000000000000000000"
      ],
      "transaction": {
        "from": "0x07dab64aa125b206d7fd6a81aab2133a0bdef863",
        "to": "0x4b198d1285152b5f8bcbc5e4156d30717b16275e",
        "gas": "0x106b6",
        "value": "0x0",
        "input": "0x095ea7b300000000000000000000000030f166a8a0c108d32a6dee5d856877a372a6b2fa000000000000000000000000000000000000000000000002b5e3af16b1880000",
        "nonce": "0x1a3",
        "chainId": "0xaa36a7"
      },
      "additionalContracts": [],
      "isFixedGasLimit": false
    },
    {
      "hash": "0x3208b875493d3024e775e1b0d99c198a5e5c2b267cd29145fb92d3a7cd737c3d",
      "transactionType": "CALL",
      "contractName": null,
      "contractAddress": "0x30f166a8a0c108d32a6dee5d856877a372a6b2fa",
      "function": "swap((address,address,uint256,uint256,bytes))",
      "arguments": [
        "(0x4B198D1285152B5f8BCbC5e4156D30717B16275e, 0x8c6870dBF36bEbF4c7734C35D6b2DD5AeCe9b385, 50000000000000000000, 0, 0x)"
      ],
      "transaction": {
        "from": "0x07dab64aa125b206d7fd6a81aab2133a0bdef863",
        "to": "0x30f166a8a0c108d32a6dee5d856877a372a6b2fa",
        "gas": "0x32af7",
        "value": "0x0",
        "input": "0x7f46babe00000000000000000000000000000000000000000000000000000000000000200000000000000000000000004b198d1285152b5f8bcbc5e4156d30717b16275e0000000000000000000000008c6870dbf36bebf4c7734c35d6b2dd5aece9b385000000000000000000000000000000000000000000000002b5e3af16b1880000000000000000000000000000000000000000000000000000000000000000000000000000000000000000000000000000000000000000000000000000000000a00000000000000000000000000000000000000000000000000000000000000000",
        "nonce": "0x1a4",
        "chainId": "0xaa36a7"
      },
      "additionalContracts": [],
      "isFixedGasLimit": false
    },
    {
      "hash": "0xca4f2c40a7e2b3b49f88c61e7452705a3b6c3ad0f1633cfacae1f7fd2e230383",
      "transactionType": "CALL",
      "contractName": null,
      "contractAddress": "0x4b198d1285152b5f8bcbc5e4156d30717b16275e",
      "function": "approve(address,uint256)",
      "arguments": [
        "0x965cCD245Eb8683BDC3202b1A1C87515774b833a",
        "30000000000000000000"
      ],
      "transaction": {
        "from": "0x07dab64aa125b206d7fd6a81aab2133a0bdef863",
        "to": "0x4b198d1285152b5f8bcbc5e4156d30717b16275e",
        "gas": "0x106b6",
        "value": "0x0",
        "input": "0x095ea7b3000000000000000000000000965ccd245eb8683bdc3202b1a1c87515774b833a000000000000000000000000000000000000000000000001a055690d9db80000",
        "nonce": "0x1a5",
        "chainId": "0xaa36a7"
      },
      "additionalContracts": [],
      "isFixedGasLimit": false
    },
    {
      "hash": "0x10c3637daf6d8d4c27f53de845f28b32f37a3cad61f93a2d4ec34e018933e64c",
      "transactionType": "CALL",
      "contractName": null,
      "contractAddress": "0x965ccd245eb8683bdc3202b1a1c87515774b833a",
      "function": "deposit(uint256)",
      "arguments": [
        "30000000000000000000"
      ],
      "transaction": {
        "from": "0x07dab64aa125b206d7fd6a81aab2133a0bdef863",
        "to": "0x965ccd245eb8683bdc3202b1a1c87515774b833a",
        "gas": "0x13a0d",
        "value": "0x0",
        "input": "0xb6b55f25000000000000000000000000000000000000000000000001a055690d9db80000",
        "nonce": "0x1a6",
        "chainId": "0xaa36a7"
      },
      "additionalContracts": [],
      "isFixedGasLimit": false
    },
    {
      "hash": "0x73940de5703814ba4183b19af02a4e1b391d9c4f60ad9740359e6de6e55f1bbf",
      "transactionType": "CALL",
      "contractName": null,
      "contractAddress": "0x965ccd245eb8683bdc3202b1a1c87515774b833a",
      "function": "lockForCrossChain(uint64,uint256)",
      "arguments": [
        "421614",
        "30000000000000000000"
      ],
      "transaction": {
        "from": "0x07dab64aa125b206d7fd6a81aab2133a0bdef863",
        "to": "0x965ccd245eb8683bdc3202b1a1c87515774b833a",
        "gas": "0xf5fd",
        "value": "0x0",
        "input": "0x9d83dddf0000000000000000000000000000000000000000000000000000000000066eee000000000000000000000000000000000000000000000001a055690d9db80000",
        "nonce": "0x1a7",
        "chainId": "0xaa36a7"
      },
      "additionalContracts": [],
      "isFixedGasLimit": false
    },
    {
      "hash": "0xf91c5be50fd52e3760eea61f95971e76a3889ee55dce1536b47b8ab6ba39bf4f",
      "transactionType": "CALL",
      "contractName": null,
      "contractAddress": "0x8c6870dbf36bebf4c7734c35d6b2dd5aece9b385",
      "function": "approve(address,uint256)",
      "arguments": [
        "0x2c71Ac4C6F5Fdb38B422c85D15121859171C5fD6",
        "20000000000000000000"
      ],
      "transaction": {
        "from": "0x07dab64aa125b206d7fd6a81aab2133a0bdef863",
        "to": "0x8c6870dbf36bebf4c7734c35d6b2dd5aece9b385",
        "gas": "0x106b6",
        "value": "0x0",
        "input": "0x095ea7b30000000000000000000000002c71ac4c6f5fdb38b422c85d15121859171c5fd6000000000000000000000000000000000000000000000001158e460913d00000",
        "nonce": "0x1a8",
        "chainId": "0xaa36a7"
      },
      "additionalContracts": [],
      "isFixedGasLimit": false
    },
    {
      "hash": "0x2b455b42f3aed62f0f4c848dd38348866724642de44d165879ca4412525c9a74",
      "transactionType": "CALL",
      "contractName": null,
      "contractAddress": "0x2c71ac4c6f5fdb38b422c85d15121859171c5fd6",
      "function": "deposit(uint256)",
      "arguments": [
        "20000000000000000000"
      ],
      "transaction": {
        "from": "0x07dab64aa125b206d7fd6a81aab2133a0bdef863",
        "to": "0x2c71ac4c6f5fdb38b422c85d15121859171c5fd6",
        "gas": "0x1ae38",
        "value": "0x0",
        "input": "0xb6b55f25000000000000000000000000000000000000000000000001158e460913d00000",
        "nonce": "0x1a9",
        "chainId": "0xaa36a7"
      },
      "additionalContracts": [],
      "isFixedGasLimit": false
    },
    {
      "hash": "0x8cfb32650c32e1989180ee0825d07539978df76c2c50a5e16e7217cc5f52c86a",
      "transactionType": "CALL",
      "contractName": null,
      "contractAddress": "0x2c71ac4c6f5fdb38b422c85d15121859171c5fd6",
      "function": "lockForCrossChain(uint64,uint256)",
      "arguments": [
        "421614",
        "20000000000000000000"
      ],
      "transaction": {
        "from": "0x07dab64aa125b206d7fd6a81aab2133a0bdef863",
        "to": "0x2c71ac4c6f5fdb38b422c85d15121859171c5fd6",
        "gas": "0xda91",
        "value": "0x0",
        "input": "0x9d83dddf0000000000000000000000000000000000000000000000000000000000066eee000000000000000000000000000000000000000000000001158e460913d00000",
        "nonce": "0x1aa",
        "chainId": "0xaa36a7"
      },
      "additionalContracts": [],
      "isFixedGasLimit": false
    }
  ],
  "receipts": [
    {
      "status": "0x1",
      "cumulativeGasUsed": "0x38fb213",
      "logs": [
        {
          "address": "0x4b198d1285152b5f8bcbc5e4156d30717b16275e",
          "topics": [
            "0x8c5be1e5ebec7d5bd14f71427d1e84f3dd0314c0f7b2291e5b200ac8c7c3b925",
            "0x00000000000000000000000007dab64aa125b206d7fd6a81aab2133a0bdef863",
            "0x00000000000000000000000030f166a8a0c108d32a6dee5d856877a372a6b2fa"
          ],
          "data": "0x000000000000000000000000000000000000000000000002b5e3af16b1880000",
          "blockHash": "0x85e1039b48a3bb46779a50ed9597b83e34cdf416602f0ef9398b760c68c5825c",
          "blockNumber": "0x9ab309",
          "blockTimestamp": "0x69796ee4",
          "transactionHash": "0x8dda0e4c0938c561bb78686a2dff571861086695290ae9820ebe7b468c7d08e7",
          "transactionIndex": "0x35",
          "logIndex": "0x52",
          "removed": false
        }
      ],
      "logsBloom": "0x00000000000000000000000000000000000000000000000000000000002000000000000020000000000000240000000000200000000000000000000000200000000000000000000000000000000000000000000000000010000000000000000000000000000000000000000000000000000000000000000000000000004000000000000000000000000000000000000000000000000000000000000000000000060000000000000000000000000000000000000000000000000000000000000000000000000100000000000000000000000000000000000000000000000000000010000000000000000000000000000000000000000000000000000000000000",
      "type": "0x2",
      "transactionHash": "0x8dda0e4c0938c561bb78686a2dff571861086695290ae9820ebe7b468c7d08e7",
      "transactionIndex": "0x35",
      "blockHash": "0x85e1039b48a3bb46779a50ed9597b83e34cdf416602f0ef9398b760c68c5825c",
      "blockNumber": "0x9ab309",
      "gasUsed": "0xb3a2",
      "effectiveGasPrice": "0x36868cd4",
      "from": "0x07dab64aa125b206d7fd6a81aab2133a0bdef863",
      "to": "0x4b198d1285152b5f8bcbc5e4156d30717b16275e",
      "contractAddress": null
    },
    {
      "status": "0x1",
      "cumulativeGasUsed": "0x390f653",
      "logs": [
        {
          "address": "0x4b198d1285152b5f8bcbc5e4156d30717b16275e",
          "topics": [
            "0x8c5be1e5ebec7d5bd14f71427d1e84f3dd0314c0f7b2291e5b200ac8c7c3b925",
            "0x00000000000000000000000007dab64aa125b206d7fd6a81aab2133a0bdef863",
            "0x000000000000000000000000965ccd245eb8683bdc3202b1a1c87515774b833a"
          ],
          "data": "0x000000000000000000000000000000000000000000000001a055690d9db80000",
          "blockHash": "0x85e1039b48a3bb46779a50ed9597b83e34cdf416602f0ef9398b760c68c5825c",
          "blockNumber": "0x9ab309",
          "blockTimestamp": "0x69796ee4",
          "transactionHash": "0xca4f2c40a7e2b3b49f88c61e7452705a3b6c3ad0f1633cfacae1f7fd2e230383",
          "transactionIndex": "0x37",
          "logIndex": "0x53",
          "removed": false
        }
      ],
      "logsBloom": "0x00000000000000000000000000000000000000000000000000000000002000000000000020000000000000040000000000200000000000000000000000200000000008000000000000000000000000000000000000000010000000000000000000000000000000000000000000000000000000000000000000000000000000000000000000000000000000000000000000000000000000000008000000000000020000000000000000000000000000000000020000000000000000000000000000000000000100000000000000000000000000000000000000000000000000000010000000000000000000000000000000000000000000000000000000000000",
      "type": "0x2",
      "transactionHash": "0xca4f2c40a7e2b3b49f88c61e7452705a3b6c3ad0f1633cfacae1f7fd2e230383",
      "transactionIndex": "0x37",
      "blockHash": "0x85e1039b48a3bb46779a50ed9597b83e34cdf416602f0ef9398b760c68c5825c",
      "blockNumber": "0x9ab309",
      "gasUsed": "0xb3a2",
      "effectiveGasPrice": "0x36868cd4",
      "from": "0x07dab64aa125b206d7fd6a81aab2133a0bdef863",
      "to": "0x4b198d1285152b5f8bcbc5e4156d30717b16275e",
      "contractAddress": null
    },
    {
      "status": "0x1",
      "cumulativeGasUsed": "0x391e4a2",
      "logs": [
        {
          "address": "0x4b198d1285152b5f8bcbc5e4156d30717b16275e",
          "topics": [
            "0xddf252ad1be2c89b69c2b068fc378daa952ba7f163c4a11628f55a4df523b3ef",
            "0x00000000000000000000000007dab64aa125b206d7fd6a81aab2133a0bdef863",
            "0x000000000000000000000000965ccd245eb8683bdc3202b1a1c87515774b833a"
          ],
          "data": "0x000000000000000000000000000000000000000000000001a055690d9db80000",
          "blockHash": "0x85e1039b48a3bb46779a50ed9597b83e34cdf416602f0ef9398b760c68c5825c",
          "blockNumber": "0x9ab309",
          "blockTimestamp": "0x69796ee4",
          "transactionHash": "0x10c3637daf6d8d4c27f53de845f28b32f37a3cad61f93a2d4ec34e018933e64c",
          "transactionIndex": "0x38",
          "logIndex": "0x54",
          "removed": false
        },
        {
          "address": "0x965ccd245eb8683bdc3202b1a1c87515774b833a",
          "topics": [
            "0xe1fffcc4923d04b559f4d29a8bfc6cda04eb5b0d3c460751c2402c5c5cc9109c",
            "0x00000000000000000000000007dab64aa125b206d7fd6a81aab2133a0bdef863"
          ],
          "data": "0x000000000000000000000000000000000000000000000001a055690d9db80000",
          "blockHash": "0x85e1039b48a3bb46779a50ed9597b83e34cdf416602f0ef9398b760c68c5825c",
          "blockNumber": "0x9ab309",
          "blockTimestamp": "0x69796ee4",
          "transactionHash": "0x10c3637daf6d8d4c27f53de845f28b32f37a3cad61f93a2d4ec34e018933e64c",
          "transactionIndex": "0x38",
          "logIndex": "0x55",
          "removed": false
        },
        {
          "address": "0x965ccd245eb8683bdc3202b1a1c87515774b833a",
          "topics": [
            "0x9a06c6ce5c54977df4fd88e6bb8c37e5ef9015e953a1c4713e91c1093fb51442",
            "0x0000000000000000000000000000000000000000000000000000000000aa36a7"
          ],
          "data": "0x000000000000000000000000000000000000000000001535af3a119395000000",
          "blockHash": "0x85e1039b48a3bb46779a50ed9597b83e34cdf416602f0ef9398b760c68c5825c",
          "blockNumber": "0x9ab309",
          "blockTimestamp": "0x69796ee4",
          "transactionHash": "0x10c3637daf6d8d4c27f53de845f28b32f37a3cad61f93a2d4ec34e018933e64c",
          "transactionIndex": "0x38",
          "logIndex": "0x56",
          "removed": false
        }
      ],
      "logsBloom": "0x00000000000000000000000000000000000000000000000000000000012000000000000020000000000000040000000002200000000000000000000000000000000008000000000000000008000000000000000000000010000000008000000000000000000000000000000000000000000000000000000000000010000000000000000000000000000040000000000000000001200000000008000000000000000000001000000000000000000000000001020000000000000000000200000000000002000100000000000000000000100020000000000000000000000000000000000000000000000000000000000000000000000000400000000000000000",
      "type": "0x2",
      "transactionHash": "0x10c3637daf6d8d4c27f53de845f28b32f37a3cad61f93a2d4ec34e018933e64c",
      "transactionIndex": "0x38",
      "blockHash": "0x85e1039b48a3bb46779a50ed9597b83e34cdf416602f0ef9398b760c68c5825c",
      "blockNumber": "0x9ab309",
      "gasUsed": "0xee4f",
      "effectiveGasPrice": "0x36868cd4",
      "from": "0x07dab64aa125b206d7fd6a81aab2133a0bdef863",
      "to": "0x965ccd245eb8683bdc3202b1a1c87515774b833a",
      "contractAddress": null
    },
    {
      "status": "0x1",
      "cumulativeGasUsed": "0x3928cd5",
      "logs": [
        {
          "address": "0x965ccd245eb8683bdc3202b1a1c87515774b833a",
          "topics": [
            "0x43d978bf0f73043cd418617574b71e9f48620e386282109b99def5e92924a85f",
            "0x00000000000000000000000007dab64aa125b206d7fd6a81aab2133a0bdef863"
          ],
          "data": "0x0000000000000000000000000000000000000000000000000000000000066eee000000000000000000000000000000000000000000000001a055690d9db80000",
          "blockHash": "0x85e1039b48a3bb46779a50ed9597b83e34cdf416602f0ef9398b760c68c5825c",
          "blockNumber": "0x9ab309",
          "blockTimestamp": "0x69796ee4",
          "transactionHash": "0x2b455b42f3aed62f0f4c848dd38348866724642de44d165879ca4412525c9a74",
          "transactionIndex": "0x39",
          "logIndex": "0x57",
          "removed": false
        },
        {
          "address": "0x965ccd245eb8683bdc3202b1a1c87515774b833a",
          "topics": [
            "0x9a06c6ce5c54977df4fd88e6bb8c37e5ef9015e953a1c4713e91c1093fb51442",
            "0x0000000000000000000000000000000000000000000000000000000000aa36a7"
          ],
          "data": "0x0000000000000000000000000000000000000000000015340ee4a885f7480000",
          "blockHash": "0x85e1039b48a3bb46779a50ed9597b83e34cdf416602f0ef9398b760c68c5825c",
          "blockNumber": "0x9ab309",
          "blockTimestamp": "0x69796ee4",
          "transactionHash": "0x2b455b42f3aed62f0f4c848dd38348866724642de44d165879ca4412525c9a74",
          "transactionIndex": "0x39",
          "logIndex": "0x58",
          "removed": false
        }
      ],
      "logsBloom": "0x00000000000000000000000000000000000000000000000000000000012000000000000020000000000000000000000002200000000000000000000000000000000000000000000000000000000000000000000000000000000000000000000000000000000000000000000000000000000000000000000000000000000000000000000000000000000040000000000000000000200000000000000000000000000000001000040400000000000000000001000000000000000000000200000000000000000000000000000000000000100020000000000000000000000000000000000000000000000000000000000000000000000000000000000000800000",
      "type": "0x2",
      "transactionHash": "0x2b455b42f3aed62f0f4c848dd38348866724642de44d165879ca4412525c9a74",
      "transactionIndex": "0x39",
      "blockHash": "0x85e1039b48a3bb46779a50ed9597b83e34cdf416602f0ef9398b760c68c5825c",
      "blockNumber": "0x9ab309",
      "gasUsed": "0xa833",
      "effectiveGasPrice": "0x36868cd4",
      "from": "0x07dab64aa125b206d7fd6a81aab2133a0bdef863",
      "to": "0x965ccd245eb8683bdc3202b1a1c87515774b833a",
      "contractAddress": null
    },
    {
      "status": "0x1",
      "cumulativeGasUsed": "0x53096c",
      "logs": [
        {
          "address": "0x8c6870dbf36bebf4c7734c35d6b2dd5aece9b385",
          "topics": [
            "0x8c5be1e5ebec7d5bd14f71427d1e84f3dd0314c0f7b2291e5b200ac8c7c3b925",
            "0x00000000000000000000000007dab64aa125b206d7fd6a81aab2133a0bdef863",
            "0x0000000000000000000000002c71ac4c6f5fdb38b422c85d15121859171c5fd6"
          ],
          "data": "0x000000000000000000000000000000000000000000000001158e460913d00000",
          "blockHash": "0xc340966b2b1e24edd4b612d466b8996644ae927ad3a7f61d343659777fc63f32",
          "blockNumber": "0x9ab30a",
          "blockTimestamp": "0x69796ef0",
          "transactionHash": "0x8cfb32650c32e1989180ee0825d07539978df76c2c50a5e16e7217cc5f52c86a",
          "transactionIndex": "0x21",
          "logIndex": "0x40",
          "removed": false
        }
      ],
      "logsBloom": "0x00000000000000000000000000000000000000000000000000000000002000000000000020000000000400000000000000200000020000000000000000200000000000000000000000000000000000000000000000000000000000000000000000000000000000000000000000200000000000000000200000000000000000000000000000000000000000000000000000000000000000000000000000000000020000000000000000000000000000000000000000000000080000000000000000000000000000000000000000000000000000000000000000000000000000000010000000000000000000000000000000000000000000000000000000010000",
      "type": "0x2",
      "transactionHash": "0x8cfb32650c32e1989180ee0825d07539978df76c2c50a5e16e7217cc5f52c86a",
      "transactionIndex": "0x21",
      "blockHash": "0xc340966b2b1e24edd4b612d466b8996644ae927ad3a7f61d343659777fc63f32",
      "blockNumber": "0x9ab30a",
      "gasUsed": "0xb3a2",
      "effectiveGasPrice": "0x3d53d8c2",
      "from": "0x07dab64aa125b206d7fd6a81aab2133a0bdef863",
      "to": "0x8c6870dbf36bebf4c7734c35d6b2dd5aece9b385",
      "contractAddress": null
    },
    {
      "status": "0x1",
      "cumulativeGasUsed": "0x543a87",
      "logs": [
        {
          "address": "0x8c6870dbf36bebf4c7734c35d6b2dd5aece9b385",
          "topics": [
            "0xddf252ad1be2c89b69c2b068fc378daa952ba7f163c4a11628f55a4df523b3ef",
            "0x00000000000000000000000007dab64aa125b206d7fd6a81aab2133a0bdef863",
            "0x0000000000000000000000002c71ac4c6f5fdb38b422c85d15121859171c5fd6"
          ],
          "data": "0x000000000000000000000000000000000000000000000001158e460913d00000",
          "blockHash": "0xc340966b2b1e24edd4b612d466b8996644ae927ad3a7f61d343659777fc63f32",
          "blockNumber": "0x9ab30a",
          "blockTimestamp": "0x69796ef0",
          "transactionHash": "0xf91c5be50fd52e3760eea61f95971e76a3889ee55dce1536b47b8ab6ba39bf4f",
          "transactionIndex": "0x22",
          "logIndex": "0x41",
          "removed": false
        },
        {
          "address": "0x2c71ac4c6f5fdb38b422c85d15121859171c5fd6",
          "topics": [
            "0xe1fffcc4923d04b559f4d29a8bfc6cda04eb5b0d3c460751c2402c5c5cc9109c",
            "0x00000000000000000000000007dab64aa125b206d7fd6a81aab2133a0bdef863"
          ],
          "data": "0x000000000000000000000000000000000000000000000001158e460913d00000",
          "blockHash": "0xc340966b2b1e24edd4b612d466b8996644ae927ad3a7f61d343659777fc63f32",
          "blockNumber": "0x9ab30a",
          "blockTimestamp": "0x69796ef0",
          "transactionHash": "0xf91c5be50fd52e3760eea61f95971e76a3889ee55dce1536b47b8ab6ba39bf4f",
          "transactionIndex": "0x22",
          "logIndex": "0x42",
          "removed": false
        },
        {
          "address": "0x2c71ac4c6f5fdb38b422c85d15121859171c5fd6",
          "topics": [
            "0x9a06c6ce5c54977df4fd88e6bb8c37e5ef9015e953a1c4713e91c1093fb51442",
            "0x0000000000000000000000000000000000000000000000000000000000aa36a7"
          ],
          "data": "0x000000000000000000000000000000000000000000001526cd0bc70186165b80",
          "blockHash": "0xc340966b2b1e24edd4b612d466b8996644ae927ad3a7f61d343659777fc63f32",
          "blockNumber": "0x9ab30a",
          "blockTimestamp": "0x69796ef0",
          "transactionHash": "0xf91c5be50fd52e3760eea61f95971e76a3889ee55dce1536b47b8ab6ba39bf4f",
          "transactionIndex": "0x22",
          "logIndex": "0x43",
          "removed": false
        }
      ],
      "logsBloom": "0x00000000000000000000000000000000000000000000000000000000012000000000000020000000000400000000000002200000020000000000000000000000000000000000000000000008000000000000000000000000000000008000000000000000000000000000000000200000000000000000210000000010000000000000000000000000000040000000000000000001000000000000000000000000000000000000000000000000000000000400000000000000080000000200000000000002000000000000000000000000100020000000000000000000000000000000000000000000000000000000000000000000000000400000002000010000",
      "type": "0x2",
      "transactionHash": "0xf91c5be50fd52e3760eea61f95971e76a3889ee55dce1536b47b8ab6ba39bf4f",
      "transactionIndex": "0x22",
      "blockHash": "0xc340966b2b1e24edd4b612d466b8996644ae927ad3a7f61d343659777fc63f32",
      "blockNumber": "0x9ab30a",
      "gasUsed": "0x1311b",
      "effectiveGasPrice": "0x3d53d8c2",
      "from": "0x07dab64aa125b206d7fd6a81aab2133a0bdef863",
      "to": "0x2c71ac4c6f5fdb38b422c85d15121859171c5fd6",
      "contractAddress": null
    },
    {
      "status": "0x1",
      "cumulativeGasUsed": "0x54cffa",
      "logs": [
        {
          "address": "0x2c71ac4c6f5fdb38b422c85d15121859171c5fd6",
          "topics": [
            "0x43d978bf0f73043cd418617574b71e9f48620e386282109b99def5e92924a85f",
            "0x00000000000000000000000007dab64aa125b206d7fd6a81aab2133a0bdef863"
          ],
          "data": "0x0000000000000000000000000000000000000000000000000000000000066eee000000000000000000000000000000000000000000000001158e460913d00000",
          "blockHash": "0xc340966b2b1e24edd4b612d466b8996644ae927ad3a7f61d343659777fc63f32",
          "blockNumber": "0x9ab30a",
          "blockTimestamp": "0x69796ef0",
          "transactionHash": "0x73940de5703814ba4183b19af02a4e1b391d9c4f60ad9740359e6de6e55f1bbf",
          "transactionIndex": "0x23",
          "logIndex": "0x44",
          "removed": false
        },
        {
          "address": "0x2c71ac4c6f5fdb38b422c85d15121859171c5fd6",
          "topics": [
            "0x9a06c6ce5c54977df4fd88e6bb8c37e5ef9015e953a1c4713e91c1093fb51442",
            "0x0000000000000000000000000000000000000000000000000000000000aa36a7"
          ],
          "data": "0x000000000000000000000000000000000000000000001525b77d80f872465b80",
          "blockHash": "0xc340966b2b1e24edd4b612d466b8996644ae927ad3a7f61d343659777fc63f32",
          "blockNumber": "0x9ab30a",
          "blockTimestamp": "0x69796ef0",
          "transactionHash": "0x73940de5703814ba4183b19af02a4e1b391d9c4f60ad9740359e6de6e55f1bbf",
          "transactionIndex": "0x23",
          "logIndex": "0x45",
          "removed": false
        }
      ],
      "logsBloom": "0x00000000000000000000000000000000000000000000000000000000012000000000000020000000000000000000000002200000000000000000000000000000000000000000000000000000000000000000000000000000000000000000000000000000000000000000000000000000000000000000010000000000000000000000000000000000000040000000000000000000000000000000000000000000000000000000040400000000000000000400000000000000000000000200000000000000000000000000000000000000100020000000000000000000000000000000000000000000000000000000000000000000000000000000002000800000",
      "type": "0x2",
      "transactionHash": "0x73940de5703814ba4183b19af02a4e1b391d9c4f60ad9740359e6de6e55f1bbf",
      "transactionIndex": "0x23",
      "blockHash": "0xc340966b2b1e24edd4b612d466b8996644ae927ad3a7f61d343659777fc63f32",
      "blockNumber": "0x9ab30a",
      "gasUsed": "0x9573",
      "effectiveGasPrice": "0x3d53d8c2",
      "from": "0x07dab64aa125b206d7fd6a81aab2133a0bdef863",
      "to": "0x2c71ac4c6f5fdb38b422c85d15121859171c5fd6",
      "contractAddress": null
    }
  ],
  "libraries": [],
  "pending": [],
  "returns": {},
  "timestamp": 1769565937062,
  "chain": 11155111,
  "commit": "b5ad36e"
}