{
  "transactions": [
    {
      "hash": "0xaf48e3e82d6573332c55a4ff69fb566cf74a9cb19067634e2f357889b503f4d0",
      "transactionType": "CREATE",
      "contractName": "XSGD",
      "contractAddress": "0x7f45b29cd366a81763f9198afa6eab605f6581d1",
      "function": null,
      "arguments": [
        "0x07dab64Aa125B206D7fd6a81AaB2133A0bdEF863",
        "1000000000000000000000000"
      ],
      "transaction": {
        "from": "0x07dab64aa125b206d7fd6a81aab2133a0bdef863",
        "gas": "0xe37dc",
        "value": "0x0",
        "input": "0x6080346200041f5762000def906001600160401b0390601f601f19388590038281018216840190858211858310176200042357808591604098899485528339810103126200041f5782516001600160a01b0391828216918290036200041f57602080950151956200006f62000437565b601081526f29b4b733b0b837b932902237b63630b960811b878201526200009562000437565b90600496878352631614d1d160e21b8984015281519284841162000321576003938454936001948581811c9116801562000414575b8d8210146200040157908c8286859411620003ab575b50508c9085831160011462000340575f9262000334575b50505f1982871b1c191690841b1784555b8051948511620003215788548381811c9116801562000316575b8b8210146200030357828111620002bb575b50899185116001146200025657849550908492915f956200024a575b50501b925f19911b1c19161783555b80156200023457600554908087519383167f8be0079c531659141344cd1fd0a4f28419497f9722a3daafe3b4186f6b6457e05f80a36001600160a81b031990911617600960a11b176005553315620002215750600254908382018092116200020e57505f917fddf252ad1be2c89b69c2b068fc378daa952ba7f163c4a11628f55a4df523b3ef9160025533835282815284832084815401905584519384523393a3516109979081620004588239f35b601190634e487b7160e01b5f525260245ffd5b5f60249263ec442f0560e01b8352820152fd5b8551631e4fbdf760e01b81525f81850152602490fd5b015193505f8062000150565b929194841692885f52848a5f20945f5b8c89838310620002a3575050501062000289575b50505050811b0183556200015f565b01519060f8845f19921b161c191690555f8080806200027a565b86860151895590970196948501948893500162000266565b895f528a5f208380880160051c8201928d8910620002f9575b0160051c019084905b828110620002ed57505062000134565b5f8155018490620002dd565b92508192620002d4565b60228a634e487b7160e01b5f525260245ffd5b90607f169062000122565b604189634e487b7160e01b5f525260245ffd5b015190505f80620000f7565b908d918a889516895f52835f20935f905b82821062000389575050841162000371575b505050811b01845562000108565b01515f1983891b60f8161c191690555f808062000363565b91929395968291958786015181550195019301908f9189969594939262000351565b90919250875f5285825f209181860160051c8301938610620003f7575b918891869594930160051c01915b828110620003e857508e9150620000e0565b5f8155859450889101620003d6565b92508192620003c8565b60228c634e487b7160e01b5f525260245ffd5b90607f1690620000ca565b5f80fd5b634e487b7160e01b5f52604160045260245ffd5b60408051919082016001600160401b03811183821017620004235760405256fe60806040818152600480361015610014575f80fd5b5f92833560e01c90816306fdde03146106ee57508063095ea7b31461064557806318160ddd1461062657806323b872dd14610534578063313ce5671461050f57806340c10f191461046057806342966c68146103aa57806370a0823114610373578063715018a6146103135780638da5cb5b146102ea57806395d89b41146101ca578063a9059cbb14610199578063dd62ed3e1461014c5763f2fde38b146100ba575f80fd5b34610148576020366003190112610148576100d361082a565b906100dc61085a565b6001600160a01b03918216928315610132575050600554826bffffffffffffffffffffffff60a01b821617600555167f8be0079c531659141344cd1fd0a4f28419497f9722a3daafe3b4186f6b6457e08380a380f35b51631e4fbdf760e01b8152908101849052602490fd5b8280fd5b5050346101955780600319360112610195578060209261016a61082a565b610172610844565b6001600160a01b0391821683526001865283832091168252845220549051908152f35b5080fd5b5050346101955780600319360112610195576020906101c36101b961082a565b6024359033610886565b5160018152f35b50919034610195578160031936011261019557805190828454600181811c908083169283156102e0575b60209384841081146102cd578388529081156102b1575060011461025c575b505050829003601f01601f191682019267ffffffffffffffff84118385101761024957508291826102459252826107e3565b0390f35b634e487b7160e01b815260418552602490fd5b8787529192508591837f8a35acfbc15ff81a39ae7d344fd709f28e8600b4aa8c65c6b64bfe7fe36bd19b5b83851061029d57505050508301015f8080610213565b805488860183015293019284908201610287565b60ff1916878501525050151560051b84010190505f8080610213565b634e487b7160e01b895260228a52602489fd5b91607f16916101f4565b50503461019557816003193601126101955760055490516001600160a01b039091168152602090f35b833461037057806003193601126103705761032c61085a565b600580546001600160a01b0319811690915581906001600160a01b03167f8be0079c531659141344cd1fd0a4f28419497f9722a3daafe3b4186f6b6457e08280a380f35b80fd5b5050346101955760203660031901126101955760209181906001600160a01b0361039b61082a565b16815280845220549051908152f35b5091903461019557602036600319011261019557823590331561044a5733835282602052808320549382851061041f57508183943385528460205203818420558160025403600255519081527fddf252ad1be2c89b69c2b068fc378daa952ba7f163c4a11628f55a4df523b3ef60203392a380f35b905163391434e360e21b81523391810191825260208201859052604082018390529081906060010390fd5b51634b637e8f60e11b8152808401839052602490fd5b50903461014857806003193601126101485761047a61082a565b906024359161048761085a565b6001600160a01b03169283156104fa57600254908382018092116104e7575084927fddf252ad1be2c89b69c2b068fc378daa952ba7f163c4a11628f55a4df523b3ef9260209260025585855284835280852082815401905551908152a380f35b634e487b7160e01b865260119052602485fd5b84602492519163ec442f0560e01b8352820152fd5b50503461019557816003193601126101955760209060ff60055460a01c169051908152f35b5082346103705760603660031901126103705761054f61082a565b610557610844565b916044359360018060a01b038316808352600160205286832033845260205286832054915f198310610592575b6020886101c3898989610886565b8683106105fa5781156105e35733156105cc575082526001602090815286832033845281529186902090859003905582906101c387610584565b8751634a1406b160e11b8152908101849052602490fd5b875163e602df0560e01b8152908101849052602490fd5b8751637dc7a0d960e11b8152339181019182526020820193909352604081018790528291506060010390fd5b5050346101955781600319360112610195576020906002549051908152f35b503461014857816003193601126101485761065e61082a565b6024359033156106d7576001600160a01b03169182156106c057508083602095338152600187528181208582528752205582519081527f8c5be1e5ebec7d5bd14f71427d1e84f3dd0314c0f7b2291e5b200ac8c7c3b925843392a35160018152f35b8351634a1406b160e11b8152908101859052602490fd5b835163e602df0560e01b8152808401869052602490fd5b849150833461014857826003193601126101485782600354600181811c908083169283156107d9575b60209384841081146102cd578388529081156107bd575060011461076757505050829003601f01601f191682019267ffffffffffffffff84118385101761024957508291826102459252826107e3565b600387529192508591837fc2575a0e9e593c00f959f8c92f12db2869c3395a3b0502d05e2516446f71f85b5b8385106107a95750505050830101858080610213565b805488860183015293019284908201610793565b60ff1916878501525050151560051b8401019050858080610213565b91607f1691610717565b602080825282518183018190529093925f5b82811061081657505060409293505f838284010152601f8019910116010190565b8181018601518482016040015285016107f5565b600435906001600160a01b038216820361084057565b5f80fd5b602435906001600160a01b038216820361084057565b6005546001600160a01b0316330361086e57565b60405163118cdaa760e01b8152336004820152602490fd5b916001600160a01b038084169283156109495716928315610931575f90838252816020526040822054908382106108ff575091604082827fddf252ad1be2c89b69c2b068fc378daa952ba7f163c4a11628f55a4df523b3ef958760209652828652038282205586815220818154019055604051908152a3565b60405163391434e360e21b81526001600160a01b03919091166004820152602481019190915260448101839052606490fd5b60405163ec442f0560e01b81525f6004820152602490fd5b604051634b637e8f60e11b81525f6004820152602490fdfea2646970667358221220d5df87566e8531bd1186288a242a0dbf6508efa6623b756f26b25c1cd348f0d164736f6c6343000814003300000000000000000000000007dab64aa125b206d7fd6a81aab2133a0bdef86300000000000000000000000000000000000000000000d3c21bcecceda1000000",
        "nonce": "0x137",
        "chainId": "0xaa36a7"
      },
      "additionalContracts": [],
      "isFixedGasLimit": false
    },
    {
      "hash": "0x64a3f83d696ede0d4c3cba5a8ba75f20f37acf6e9ac341e115b4e9aa68769b1d",
      "transactionType": "CREATE",
      "contractName": "THBT",
      "contractAddress": "0x3da27031278c1356ca3ebcc458e9427c8ab07ee3",
      "function": null,
      "arguments": [
        "0x07dab64Aa125B206D7fd6a81AaB2133A0bdEF863",
        "1000000000000000000000000"
      ],
      "transaction": {
        "from": "0x07dab64aa125b206d7fd6a81aab2133a0bdef863",
        "gas": "0xe374b",
        "value": "0x0",
        "input": "0x608034620004185762000de8906001600160401b0390601f601f19388590038281018216840190858211858310176200041c5780859160409889948552833981010312620004185782516001600160a01b0391828216918290036200041857602080950151956200006f62000430565b6009815268151a185a4810985a1d60ba1b878201526200008e62000430565b90600496878352631512109560e21b898401528151928484116200031a576003938454936001948581811c911680156200040d575b8d821014620003fa57908c8286859411620003a4575b50508c9085831160011462000339575f926200032d575b50505f1982871b1c191690841b1784555b80519485116200031a5788548381811c911680156200030f575b8b821014620002fc57828111620002b4575b50899185116001146200024f57849550908492915f9562000243575b50501b925f19911b1c19161783555b80156200022d57600554908087519383167f8be0079c531659141344cd1fd0a4f28419497f9722a3daafe3b4186f6b6457e05f80a36001600160a81b031990911617600960a11b1760055533156200021a5750600254908382018092116200020757505f917fddf252ad1be2c89b69c2b068fc378daa952ba7f163c4a11628f55a4df523b3ef9160025533835282815284832084815401905584519384523393a3516109979081620004518239f35b601190634e487b7160e01b5f525260245ffd5b5f60249263ec442f0560e01b8352820152fd5b8551631e4fbdf760e01b81525f81850152602490fd5b015193505f8062000149565b929194841692885f52848a5f20945f5b8c898383106200029c575050501062000282575b50505050811b01835562000158565b01519060f8845f19921b161c191690555f80808062000273565b8686015189559097019694850194889350016200025f565b895f528a5f208380880160051c8201928d8910620002f2575b0160051c019084905b828110620002e65750506200012d565b5f8155018490620002d6565b92508192620002cd565b60228a634e487b7160e01b5f525260245ffd5b90607f16906200011b565b604189634e487b7160e01b5f525260245ffd5b015190505f80620000f0565b908d918a889516895f52835f20935f905b8282106200038257505084116200036a575b505050811b01845562000101565b01515f1983891b60f8161c191690555f80806200035c565b91929395968291958786015181550195019301908f918996959493926200034a565b90919250875f5285825f209181860160051c8301938610620003f0575b918891869594930160051c01915b828110620003e157508e9150620000d9565b5f8155859450889101620003cf565b92508192620003c1565b60228c634e487b7160e01b5f525260245ffd5b90607f1690620000c3565b5f80fd5b634e487b7160e01b5f52604160045260245ffd5b60408051919082016001600160401b038111838210176200041c5760405256fe60806040818152600480361015610014575f80fd5b5f92833560e01c90816306fdde03146106ee57508063095ea7b31461064557806318160ddd1461062657806323b872dd14610534578063313ce5671461050f57806340c10f191461046057806342966c68146103aa57806370a0823114610373578063715018a6146103135780638da5cb5b146102ea57806395d89b41146101ca578063a9059cbb14610199578063dd62ed3e1461014c5763f2fde38b146100ba575f80fd5b34610148576020366003190112610148576100d361082a565b906100dc61085a565b6001600160a01b03918216928315610132575050600554826bffffffffffffffffffffffff60a01b821617600555167f8be0079c531659141344cd1fd0a4f28419497f9722a3daafe3b4186f6b6457e08380a380f35b51631e4fbdf760e01b8152908101849052602490fd5b8280fd5b5050346101955780600319360112610195578060209261016a61082a565b610172610844565b6001600160a01b0391821683526001865283832091168252845220549051908152f35b5080fd5b5050346101955780600319360112610195576020906101c36101b961082a565b6024359033610886565b5160018152f35b50919034610195578160031936011261019557805190828454600181811c908083169283156102e0575b60209384841081146102cd578388529081156102b1575060011461025c575b505050829003601f01601f191682019267ffffffffffffffff84118385101761024957508291826102459252826107e3565b0390f35b634e487b7160e01b815260418552602490fd5b8787529192508591837f8a35acfbc15ff81a39ae7d344fd709f28e8600b4aa8c65c6b64bfe7fe36bd19b5b83851061029d57505050508301015f8080610213565b805488860183015293019284908201610287565b60ff1916878501525050151560051b84010190505f8080610213565b634e487b7160e01b895260228a52602489fd5b91607f16916101f4565b50503461019557816003193601126101955760055490516001600160a01b039091168152602090f35b833461037057806003193601126103705761032c61085a565b600580546001600160a01b0319811690915581906001600160a01b03167f8be0079c531659141344cd1fd0a4f28419497f9722a3daafe3b4186f6b6457e08280a380f35b80fd5b5050346101955760203660031901126101955760209181906001600160a01b0361039b61082a565b16815280845220549051908152f35b5091903461019557602036600319011261019557823590331561044a5733835282602052808320549382851061041f57508183943385528460205203818420558160025403600255519081527fddf252ad1be2c89b69c2b068fc378daa952ba7f163c4a11628f55a4df523b3ef60203392a380f35b905163391434e360e21b81523391810191825260208201859052604082018390529081906060010390fd5b51634b637e8f60e11b8152808401839052602490fd5b50903461014857806003193601126101485761047a61082a565b906024359161048761085a565b6001600160a01b03169283156104fa57600254908382018092116104e7575084927fddf252ad1be2c89b69c2b068fc378daa952ba7f163c4a11628f55a4df523b3ef9260209260025585855284835280852082815401905551908152a380f35b634e487b7160e01b865260119052602485fd5b84602492519163ec442f0560e01b8352820152fd5b50503461019557816003193601126101955760209060ff60055460a01c169051908152f35b5082346103705760603660031901126103705761054f61082a565b610557610844565b916044359360018060a01b038316808352600160205286832033845260205286832054915f198310610592575b6020886101c3898989610886565b8683106105fa5781156105e35733156105cc575082526001602090815286832033845281529186902090859003905582906101c387610584565b8751634a1406b160e11b8152908101849052602490fd5b875163e602df0560e01b8152908101849052602490fd5b8751637dc7a0d960e11b8152339181019182526020820193909352604081018790528291506060010390fd5b5050346101955781600319360112610195576020906002549051908152f35b503461014857816003193601126101485761065e61082a565b6024359033156106d7576001600160a01b03169182156106c057508083602095338152600187528181208582528752205582519081527f8c5be1e5ebec7d5bd14f71427d1e84f3dd0314c0f7b2291e5b200ac8c7c3b925843392a35160018152f35b8351634a1406b160e11b8152908101859052602490fd5b835163e602df0560e01b8152808401869052602490fd5b849150833461014857826003193601126101485782600354600181811c908083169283156107d9575b60209384841081146102cd578388529081156107bd575060011461076757505050829003601f01601f191682019267ffffffffffffffff84118385101761024957508291826102459252826107e3565b600387529192508591837fc2575a0e9e593c00f959f8c92f12db2869c3395a3b0502d05e2516446f71f85b5b8385106107a95750505050830101858080610213565b805488860183015293019284908201610793565b60ff1916878501525050151560051b8401019050858080610213565b91607f1691610717565b602080825282518183018190529093925f5b82811061081657505060409293505f838284010152601f8019910116010190565b8181018601518482016040015285016107f5565b600435906001600160a01b038216820361084057565b5f80fd5b602435906001600160a01b038216820361084057565b6005546001600160a01b0316330361086e57565b60405163118cdaa760e01b8152336004820152602490fd5b916001600160a01b038084169283156109495716928315610931575f90838252816020526040822054908382106108ff575091604082827fddf252ad1be2c89b69c2b068fc378daa952ba7f163c4a11628f55a4df523b3ef958760209652828652038282205586815220818154019055604051908152a3565b60405163391434e360e21b81526001600160a01b03919091166004820152602481019190915260448101839052606490fd5b60405163ec442f0560e01b81525f6004820152602490fd5b604051634b637e8f60e11b81525f6004820152602490fdfea26469706673582212204b3d2a80524063ea2c2882634f282cb80bfb2d48a39ae42f48993b7eb15e939664736f6c6343000814003300000000000000000000000007dab64aa125b206d7fd6a81aab2133a0bdef86300000000000000000000000000000000000000000000d3c21bcecceda1000000",
        "nonce": "0x138",
        "chainId": "0xaa36a7"
      },
      "additionalContracts": [],
      "isFixedGasLimit": false
    },
    {
      "hash": "0x76f19a0860dd18dc24ac272df892a3efa0e7f9cb8c79978a7c3990bcff4b737e",
      "transactionType": "CREATE",
      "contractName": "IDRT",
      "contractAddress": "0x5bd7a4cc7024e9f628fcaeb45b2018ab19c90c14",
      "function": null,
      "arguments": [
        "0x07dab64Aa125B206D7fd6a81AaB2133A0bdEF863",
        "1000000000000000000000000"
      ],
      "transaction": {
        "from": "0x07dab64aa125b206d7fd6a81aab2133a0bdef863",
        "gas": "0xe37f1",
        "value": "0x0",
        "input": "0x608034620004205762000df0906001600160401b0390601f601f1938859003828101821684019085821185831017620004245780859160409889948552833981010312620004205782516001600160a01b0391828216918290036200042057602080950151956200006f62000438565b6011815270092dcc8dedccae6d2c2dc40a4eae0d2c2d607b1b878201526200009662000438565b90600496878352631251149560e21b8984015281519284841162000322576003938454936001948581811c9116801562000415575b8d8210146200040257908c8286859411620003ac575b50508c9085831160011462000341575f9262000335575b50505f1982871b1c191690841b1784555b8051948511620003225788548381811c9116801562000317575b8b8210146200030457828111620002bc575b50899185116001146200025757849550908492915f956200024b575b50501b925f19911b1c19161783555b80156200023557600554908087519383167f8be0079c531659141344cd1fd0a4f28419497f9722a3daafe3b4186f6b6457e05f80a36001600160a81b031990911617600960a11b176005553315620002225750600254908382018092116200020f57505f917fddf252ad1be2c89b69c2b068fc378daa952ba7f163c4a11628f55a4df523b3ef9160025533835282815284832084815401905584519384523393a3516109979081620004598239f35b601190634e487b7160e01b5f525260245ffd5b5f60249263ec442f0560e01b8352820152fd5b8551631e4fbdf760e01b81525f81850152602490fd5b015193505f8062000151565b929194841692885f52848a5f20945f5b8c89838310620002a457505050106200028a575b50505050811b01835562000160565b01519060f8845f19921b161c191690555f8080806200027b565b86860151895590970196948501948893500162000267565b895f528a5f208380880160051c8201928d8910620002fa575b0160051c019084905b828110620002ee57505062000135565b5f8155018490620002de565b92508192620002d5565b60228a634e487b7160e01b5f525260245ffd5b90607f169062000123565b604189634e487b7160e01b5f525260245ffd5b015190505f80620000f8565b908d918a889516895f52835f20935f905b8282106200038a575050841162000372575b505050811b01845562000109565b01515f1983891b60f8161c191690555f808062000364565b91929395968291958786015181550195019301908f9189969594939262000352565b90919250875f5285825f209181860160051c8301938610620003f8575b918891869594930160051c01915b828110620003e957508e9150620000e1565b5f8155859450889101620003d7565b92508192620003c9565b60228c634e487b7160e01b5f525260245ffd5b90607f1690620000cb565b5f80fd5b634e487b7160e01b5f52604160045260245ffd5b60408051919082016001600160401b03811183821017620004245760405256fe60806040818152600480361015610014575f80fd5b5f92833560e01c90816306fdde03146106ee57508063095ea7b31461064557806318160ddd1461062657806323b872dd14610534578063313ce5671461050f57806340c10f191461046057806342966c68146103aa57806370a0823114610373578063715018a6146103135780638da5cb5b146102ea57806395d89b41146101ca578063a9059cbb14610199578063dd62ed3e1461014c5763f2fde38b146100ba575f80fd5b34610148576020366003190112610148576100d361082a565b906100dc61085a565b6001600160a01b03918216928315610132575050600554826bffffffffffffffffffffffff60a01b821617600555167f8be0079c531659141344cd1fd0a4f28419497f9722a3daafe3b4186f6b6457e08380a380f35b51631e4fbdf760e01b8152908101849052602490fd5b8280fd5b5050346101955780600319360112610195578060209261016a61082a565b610172610844565b6001600160a01b0391821683526001865283832091168252845220549051908152f35b5080fd5b5050346101955780600319360112610195576020906101c36101b961082a565b6024359033610886565b5160018152f35b50919034610195578160031936011261019557805190828454600181811c908083169283156102e0575b60209384841081146102cd578388529081156102b1575060011461025c575b505050829003601f01601f191682019267ffffffffffffffff84118385101761024957508291826102459252826107e3565b0390f35b634e487b7160e01b815260418552602490fd5b8787529192508591837f8a35acfbc15ff81a39ae7d344fd709f28e8600b4aa8c65c6b64bfe7fe36bd19b5b83851061029d57505050508301015f8080610213565b805488860183015293019284908201610287565b60ff1916878501525050151560051b84010190505f8080610213565b634e487b7160e01b895260228a52602489fd5b91607f16916101f4565b50503461019557816003193601126101955760055490516001600160a01b039091168152602090f35b833461037057806003193601126103705761032c61085a565b600580546001600160a01b0319811690915581906001600160a01b03167f8be0079c531659141344cd1fd0a4f28419497f9722a3daafe3b4186f6b6457e08280a380f35b80fd5b5050346101955760203660031901126101955760209181906001600160a01b0361039b61082a565b16815280845220549051908152f35b5091903461019557602036600319011261019557823590331561044a5733835282602052808320549382851061041f57508183943385528460205203818420558160025403600255519081527fddf252ad1be2c89b69c2b068fc378daa952ba7f163c4a11628f55a4df523b3ef60203392a380f35b905163391434e360e21b81523391810191825260208201859052604082018390529081906060010390fd5b51634b637e8f60e11b8152808401839052602490fd5b50903461014857806003193601126101485761047a61082a565b906024359161048761085a565b6001600160a01b03169283156104fa57600254908382018092116104e7575084927fddf252ad1be2c89b69c2b068fc378daa952ba7f163c4a11628f55a4df523b3ef9260209260025585855284835280852082815401905551908152a380f35b634e487b7160e01b865260119052602485fd5b84602492519163ec442f0560e01b8352820152fd5b50503461019557816003193601126101955760209060ff60055460a01c169051908152f35b5082346103705760603660031901126103705761054f61082a565b610557610844565b916044359360018060a01b038316808352600160205286832033845260205286832054915f198310610592575b6020886101c3898989610886565b8683106105fa5781156105e35733156105cc575082526001602090815286832033845281529186902090859003905582906101c387610584565b8751634a1406b160e11b8152908101849052602490fd5b875163e602df0560e01b8152908101849052602490fd5b8751637dc7a0d960e11b8152339181019182526020820193909352604081018790528291506060010390fd5b5050346101955781600319360112610195576020906002549051908152f35b503461014857816003193601126101485761065e61082a565b6024359033156106d7576001600160a01b03169182156106c057508083602095338152600187528181208582528752205582519081527f8c5be1e5ebec7d5bd14f71427d1e84f3dd0314c0f7b2291e5b200ac8c7c3b925843392a35160018152f35b8351634a1406b160e11b8152908101859052602490fd5b835163e602df0560e01b8152808401869052602490fd5b849150833461014857826003193601126101485782600354600181811c908083169283156107d9575b60209384841081146102cd578388529081156107bd575060011461076757505050829003601f01601f191682019267ffffffffffffffff84118385101761024957508291826102459252826107e3565b600387529192508591837fc2575a0e9e593c00f959f8c92f12db2869c3395a3b0502d05e2516446f71f85b5b8385106107a95750505050830101858080610213565b805488860183015293019284908201610793565b60ff1916878501525050151560051b8401019050858080610213565b91607f1691610717565b602080825282518183018190529093925f5b82811061081657505060409293505f838284010152601f8019910116010190565b8181018601518482016040015285016107f5565b600435906001600160a01b038216820361084057565b5f80fd5b602435906001600160a01b038216820361084057565b6005546001600160a01b0316330361086e57565b60405163118cdaa760e01b8152336004820152602490fd5b916001600160a01b038084169283156109495716928315610931575f90838252816020526040822054908382106108ff575091604082827fddf252ad1be2c89b69c2b068fc378daa952ba7f163c4a11628f55a4df523b3ef958760209652828652038282205586815220818154019055604051908152a3565b60405163391434e360e21b81526001600160a01b03919091166004820152602481019190915260448101839052606490fd5b60405163ec442f0560e01b81525f6004820152602490fd5b604051634b637e8f60e11b81525f6004820152602490fdfea2646970667358221220fbe78bb5ba2fbfb065bc26242522e207c37cc9a7d65bde2e0990692b56e78bf664736f6c6343000814003300000000000000000000000007dab64aa125b206d7fd6a81aab2133a0bdef86300000000000000000000000000000000000000000000d3c21bcecceda1000000",
        "nonce": "0x139",
        "chainId": "0xaa36a7"
      },
      "additionalContracts": [],
      "isFixedGasLimit": false
    },
    {
      "hash": "0xd5ad15047ac5ee2ccae01c73fd135b74fa62ae8b51a7453b9f3137efbb689cd2",
      "transactionType": "CREATE",
      "contractName": "USDT",
      "contractAddress": "0x21a1df35611a06db25e5b7be8007d8201e910c2d",
      "function": null,
      "arguments": [
        "0x07dab64Aa125B206D7fd6a81AaB2133A0bdEF863",
        "1000000000000000000000000"
      ],
      "transaction": {
        "from": "0x07dab64aa125b206d7fd6a81aab2133a0bdef863",
        "gas": "0xe3760",
        "value": "0x0",
        "input": "0x608034620004195762000de9906001600160401b0390601f601f19388590038281018216840190858211858310176200041d5780859160409889948552833981010312620004195782516001600160a01b0391828216918290036200041957602080950151956200006f62000431565b600a81526915195d1a195c881554d160b21b878201526200008f62000431565b90600496878352631554d11560e21b898401528151928484116200031b576003938454936001948581811c911680156200040e575b8d821014620003fb57908c8286859411620003a5575b50508c908583116001146200033a575f926200032e575b50505f1982871b1c191690841b1784555b80519485116200031b5788548381811c9116801562000310575b8b821014620002fd57828111620002b5575b50899185116001146200025057849550908492915f9562000244575b50501b925f19911b1c19161783555b80156200022e57600554908087519383167f8be0079c531659141344cd1fd0a4f28419497f9722a3daafe3b4186f6b6457e05f80a36001600160a81b031990911617600960a11b1760055533156200021b5750600254908382018092116200020857505f917fddf252ad1be2c89b69c2b068fc378daa952ba7f163c4a11628f55a4df523b3ef9160025533835282815284832084815401905584519384523393a3516109979081620004528239f35b601190634e487b7160e01b5f525260245ffd5b5f60249263ec442f0560e01b8352820152fd5b8551631e4fbdf760e01b81525f81850152602490fd5b015193505f806200014a565b929194841692885f52848a5f20945f5b8c898383106200029d575050501062000283575b50505050811b01835562000159565b01519060f8845f19921b161c191690555f80808062000274565b86860151895590970196948501948893500162000260565b895f528a5f208380880160051c8201928d8910620002f3575b0160051c019084905b828110620002e75750506200012e565b5f8155018490620002d7565b92508192620002ce565b60228a634e487b7160e01b5f525260245ffd5b90607f16906200011c565b604189634e487b7160e01b5f525260245ffd5b015190505f80620000f1565b908d918a889516895f52835f20935f905b8282106200038357505084116200036b575b505050811b01845562000102565b01515f1983891b60f8161c191690555f80806200035d565b91929395968291958786015181550195019301908f918996959493926200034b565b90919250875f5285825f209181860160051c8301938610620003f1575b918891869594930160051c01915b828110620003e257508e9150620000da565b5f8155859450889101620003d0565b92508192620003c2565b60228c634e487b7160e01b5f525260245ffd5b90607f1690620000c4565b5f80fd5b634e487b7160e01b5f52604160045260245ffd5b60408051919082016001600160401b038111838210176200041d5760405256fe60806040818152600480361015610014575f80fd5b5f92833560e01c90816306fdde03146106ee57508063095ea7b31461064557806318160ddd1461062657806323b872dd14610534578063313ce5671461050f57806340c10f191461046057806342966c68146103aa57806370a0823114610373578063715018a6146103135780638da5cb5b146102ea57806395d89b41146101ca578063a9059cbb14610199578063dd62ed3e1461014c5763f2fde38b146100ba575f80fd5b34610148576020366003190112610148576100d361082a565b906100dc61085a565b6001600160a01b03918216928315610132575050600554826bffffffffffffffffffffffff60a01b821617600555167f8be0079c531659141344cd1fd0a4f28419497f9722a3daafe3b4186f6b6457e08380a380f35b51631e4fbdf760e01b8152908101849052602490fd5b8280fd5b5050346101955780600319360112610195578060209261016a61082a565b610172610844565b6001600160a01b0391821683526001865283832091168252845220549051908152f35b5080fd5b5050346101955780600319360112610195576020906101c36101b961082a565b6024359033610886565b5160018152f35b50919034610195578160031936011261019557805190828454600181811c908083169283156102e0575b60209384841081146102cd578388529081156102b1575060011461025c575b505050829003601f01601f191682019267ffffffffffffffff84118385101761024957508291826102459252826107e3565b0390f35b634e487b7160e01b815260418552602490fd5b8787529192508591837f8a35acfbc15ff81a39ae7d344fd709f28e8600b4aa8c65c6b64bfe7fe36bd19b5b83851061029d57505050508301015f8080610213565b805488860183015293019284908201610287565b60ff1916878501525050151560051b84010190505f8080610213565b634e487b7160e01b895260228a52602489fd5b91607f16916101f4565b50503461019557816003193601126101955760055490516001600160a01b039091168152602090f35b833461037057806003193601126103705761032c61085a565b600580546001600160a01b0319811690915581906001600160a01b03167f8be0079c531659141344cd1fd0a4f28419497f9722a3daafe3b4186f6b6457e08280a380f35b80fd5b5050346101955760203660031901126101955760209181906001600160a01b0361039b61082a565b16815280845220549051908152f35b5091903461019557602036600319011261019557823590331561044a5733835282602052808320549382851061041f57508183943385528460205203818420558160025403600255519081527fddf252ad1be2c89b69c2b068fc378daa952ba7f163c4a11628f55a4df523b3ef60203392a380f35b905163391434e360e21b81523391810191825260208201859052604082018390529081906060010390fd5b51634b637e8f60e11b8152808401839052602490fd5b50903461014857806003193601126101485761047a61082a565b906024359161048761085a565b6001600160a01b03169283156104fa57600254908382018092116104e7575084927fddf252ad1be2c89b69c2b068fc378daa952ba7f163c4a11628f55a4df523b3ef9260209260025585855284835280852082815401905551908152a380f35b634e487b7160e01b865260119052602485fd5b84602492519163ec442f0560e01b8352820152fd5b50503461019557816003193601126101955760209060ff60055460a01c169051908152f35b5082346103705760603660031901126103705761054f61082a565b610557610844565b916044359360018060a01b038316808352600160205286832033845260205286832054915f198310610592575b6020886101c3898989610886565b8683106105fa5781156105e35733156105cc575082526001602090815286832033845281529186902090859003905582906101c387610584565b8751634a1406b160e11b8152908101849052602490fd5b875163e602df0560e01b8152908101849052602490fd5b8751637dc7a0d960e11b8152339181019182526020820193909352604081018790528291506060010390fd5b5050346101955781600319360112610195576020906002549051908152f35b503461014857816003193601126101485761065e61082a565b6024359033156106d7576001600160a01b03169182156106c057508083602095338152600187528181208582528752205582519081527f8c5be1e5ebec7d5bd14f71427d1e84f3dd0314c0f7b2291e5b200ac8c7c3b925843392a35160018152f35b8351634a1406b160e11b8152908101859052602490fd5b835163e602df0560e01b8152808401869052602490fd5b849150833461014857826003193601126101485782600354600181811c908083169283156107d9575b60209384841081146102cd578388529081156107bd575060011461076757505050829003601f01601f191682019267ffffffffffffffff84118385101761024957508291826102459252826107e3565b600387529192508591837fc2575a0e9e593c00f959f8c92f12db2869c3395a3b0502d05e2516446f71f85b5b8385106107a95750505050830101858080610213565b805488860183015293019284908201610793565b60ff1916878501525050151560051b8401019050858080610213565b91607f1691610717565b602080825282518183018190529093925f5b82811061081657505060409293505f838284010152601f8019910116010190565b8181018601518482016040015285016107f5565b600435906001600160a01b038216820361084057565b5f80fd5b602435906001600160a01b038216820361084057565b6005546001600160a01b0316330361086e57565b60405163118cdaa760e01b8152336004820152602490fd5b916001600160a01b038084169283156109495716928315610931575f90838252816020526040822054908382106108ff575091604082827fddf252ad1be2c89b69c2b068fc378daa952ba7f163c4a11628f55a4df523b3ef958760209652828652038282205586815220818154019055604051908152a3565b60405163391434e360e21b81526001600160a01b03919091166004820152602481019190915260448101839052606490fd5b60405163ec442f0560e01b81525f6004820152602490fd5b604051634b637e8f60e11b81525f6004820152602490fdfea2646970667358221220580ec6344e2702c53803757a6859718933d0c677b3ed7bf972ce8778690f35ff64736f6c6343000814003300000000000000000000000007dab64aa125b206d7fd6a81aab2133a0bdef86300000000000000000000000000000000000000000000d3c21bcecceda1000000",
        "nonce": "0x13a",
        "chainId": "0xaa36a7"
      },
      "additionalContracts": [],
      "isFixedGasLimit": false
    },
    {
      "hash": "0x9fdd688e8764bed5eb701da4b044d4d0b8b710868aff43c1f63a8afe86781d91",
      "transactionType": "CREATE",
      "contractName": "Vault",
      "contractAddress": "0x4d91a73ed104a851c9004e4f40312b90f50014c7",
      "function": null,
      "arguments": [
        "0x7F45B29Cd366A81763F9198aFA6eaB605f6581D1",
        "11155111",
        "0x07dab64Aa125B206D7fd6a81AaB2133A0bdEF863"
      ],
      "transaction": {
        "from": "0x07dab64aa125b206d7fd6a81aab2133a0bdef863",
        "gas": "0xf9923",
        "value": "0x0",
        "input": "0x60c034610186576001600160401b0390601f610d8438819003918201601f191683019291908484118385101761018a5781606092849260409687528339810103126101865780516001600160a01b039190828116810361018657602082015190858216928383036101865785015184811680910361018657801561016f575f80546001600160a01b03198116831782559095167f8be0079c531659141344cd1fd0a4f28419497f9722a3daafe3b4186f6b6457e08680a360805260a05282519160608301948386108187111761015b578495600294955282855285602086019280845281870194428652815260016020522094511660018060401b03198554161784555160018401555191015551610be5908161019f823960805181818160fb0152818161045a015281816108cb01526109d6015260a0518181816102fb015281816104f90152818161069401528181610721015261087f0152f35b634e487b7160e01b82526041600452602482fd5b8551631e4fbdf760e01b81525f6004820152602490fd5b5f80fd5b634e487b7160e01b5f52604160045260245ffdfe6080604081815260049182361015610015575f80fd5b5f92833560e01c9182630ba36dcd14610a865750816312065fe0146109aa57816315770f92146108035781632e1a7d4d1461082257816335c7e92514610803578163715018a6146107a65781637d17767a1461076d5781638da5cb5b146107455781639a8a0592146107015781639d83dddf146105fb578163af19ce5c146105ba578163b6b55f2514610441578163e23953a914610419578163e5446f77146103c8578163ee79a5751461026a578163f2fde38b146101e3578163f763ed141461012e575063fc0c546a146100e8575f80fd5b3461012a578160031936011261012a57517f00000000000000000000000000000000000000000000000000000000000000006001600160a01b03168152602090f35b5080fd5b919050346101df57806003193601126101df57610149610ad4565b9060243591610156610aea565b815190606082016001600160401b0395838210878311176101cc57509160028685935f80516020610b90833981519152979560209752169687835285830185815284840191428352898b5260018852858b209451166001600160401b03198554161784555160018401555191015551908152a280f35b634e487b7160e01b885260419052602487fd5b8280fd5b9050346101df5760203660031901126101df576101fe610aba565b90610207610aea565b6001600160a01b0391821692831561025457505082546001600160a01b0319811683178455167f8be0079c531659141344cd1fd0a4f28419497f9722a3daafe3b4186f6b6457e08380a380f35b51631e4fbdf760e01b8152908101849052602490fd5b919050346101df57806003193601126101df57610285610aba565b8254602435936001600160a01b0392918316330361038d5750916020915f80516020610b908339815191529316808652600283528186206102c7868254610b15565b90556102d585600354610b15565b6003557f4725fa1d23f4a857d4d5255ead3524220b13a6c632a2b27eca0cd639797a888b7f0000000000000000000000000000000000000000000000000000000000000000956001600160401b03871696878952600186526001858a200161033e838254610b15565b905587895260018652426002868b200155610373855192839283602090939291936001600160401b0360408201951681520152565b0390a283855260018252600181862001549051908152a280f35b606490602085519162461bcd60e51b835282015260156024820152742b30bab63a1d1037b7363c9036b2b9b9b2b733b2b960591b6044820152fd5b50503461012a57602036600319011261012a57606091816001600160401b0391826103f1610ad4565b1681526001602052209081541691600260018301549201549181519384526020840152820152f35b9050346101df57826003193601126101df575490516001600160a01b03909116815260209150f35b83833461012a576020806003193601126101df578335917f00000000000000000000000000000000000000000000000000000000000000009481516323b872dd60e01b865233825230602452846044528386606481808b5af1916001928388511481161561059c575b828552876060521561057e575050905f80516020610b908339815191529291338652600283528186206104de868254610b15565b90556104ec85600354610b15565b6003556001600160401b037f000000000000000000000000000000000000000000000000000000000000000016948587528184528183882001610530828254610b15565b9055858752818452426002848920015582519081527fe1fffcc4923d04b559f4d29a8bfc6cda04eb5b0d3c460751c2402c5c5cc9109c843392a284865280835281862001549051908152a280f35b635274afe760e01b82526001600160a01b0388169082015260249150fd5b838115166105b157883b15153d1516166104aa565b823d89823e3d90fd5b83903461012a57602036600319011261012a576105d5610aba565b6105dd610aea565b81546001600160a01b0319166001600160a01b039190911617905580f35b50503461012a578060031936011261012a575f80516020610b90833981519152610623610ad4565b602435923385526020916002835261064085838820541015610b36565b33865260028352818620610655868254610b82565b905561066385600354610b82565b6003557f43d978bf0f73043cd418617574b71e9f48620e386282109b99def5e92924a85f6103736001600160401b037f00000000000000000000000000000000000000000000000000000000000000001696878952600186526001858a20016106cd828254610b82565b905587895260018652426002868b2001558451918291339583602090939291936001600160401b0360408201951681520152565b50503461012a578160031936011261012a57602090516001600160401b037f0000000000000000000000000000000000000000000000000000000000000000168152f35b50503461012a578160031936011261012a57905490516001600160a01b039091168152602090f35b50503461012a57602036600319011261012a576001816020936001600160401b03610796610ad4565b1681528285522001549051908152f35b83346108005780600319360112610800576107bf610aea565b80546001600160a01b03198116825581906001600160a01b03167f8be0079c531659141344cd1fd0a4f28419497f9722a3daafe3b4186f6b6457e08280a380f35b80fd5b50503461012a578160031936011261012a576020906003549051908152f35b83833461012a576020806003193601126101df578335913384526002825261084f83828620541015610b36565b33845260028252808420610864848254610b82565b905561087283600354610b82565b6003556001600160401b037f0000000000000000000000000000000000000000000000000000000000000000169283855260019081845281838720016108b9828254610b82565b905584865281845242600284882001557f00000000000000000000000000000000000000000000000000000000000000009683519063a9059cbb60e01b8852338152826024528588604481808d5af18489511481161561098c575b8286521561096e5750505f80516020610b908339815191529495965082519081527f884edad9ce6fa2440d8a54cc123490eb96d2768479d49ff9c7366125a9424364843392a284865280835281862001549051908152a280f35b635274afe760e01b82526001600160a01b0389169082015260249150fd5b848115166109a157893b15153d151616610914565b823d8a823e3d90fd5b919050346101df57826003193601126101df5780516370a0823160e01b815230838201526020816024817f00000000000000000000000000000000000000000000000000000000000000006001600160a01b03165afa928315610a7c578493610a18575b6020848451908152f35b909192506020903d8211610a74575b601f8201601f19168301906001600160401b03821184831017610a61575060209183918552810103126101df576020925051905f80610a0e565b634e487b7160e01b865260419052602485fd5b3d9150610a27565b82513d86823e3d90fd5b849084346101df5760203660031901126101df576020926001600160a01b03610aad610aba565b1681526002845220548152f35b600435906001600160a01b0382168203610ad057565b5f80fd5b600435906001600160401b0382168203610ad057565b5f546001600160a01b03163303610afd57565b60405163118cdaa760e01b8152336004820152602490fd5b91908201809211610b2257565b634e487b7160e01b5f52601160045260245ffd5b15610b3d57565b60405162461bcd60e51b815260206004820152601b60248201527f5661756c743a20696e73756666696369656e74206465706f73697400000000006044820152606490fd5b91908203918211610b225756fe9a06c6ce5c54977df4fd88e6bb8c37e5ef9015e953a1c4713e91c1093fb51442a2646970667358221220ae1d03a58307afe3df334abf018009473ae003edcc2b7a6998b864cfce9c005c64736f6c634300081400330000000000000000000000007f45b29cd366a81763f9198afa6eab605f6581d10000000000000000000000000000000000000000000000000000000000aa36a700000000000000000000000007dab64aa125b206d7fd6a81aab2133a0bdef863",
        "nonce": "0x13b",
        "chainId": "0xaa36a7"
      },
      "additionalContracts": [],
      "isFixedGasLimit": false
    },
    {
      "hash": "0xe13983ba99ad9c7c3e5914ba590bf008107bfb963dc1afb8c768431c1e636a24",
      "transactionType": "CREATE",
      "contractName": "Vault",
      "contractAddress": "0x85f0b83fa95cd479d5ac84103cf46a36391f7bc5",
      "function": null,
      "arguments": [
        "0x3dA27031278c1356Ca3ebCC458E9427c8aB07ee3",
        "11155111",
        "0x07dab64Aa125B206D7fd6a81AaB2133A0bdEF863"
      ],
      "transaction": {
        "from": "0x07dab64aa125b206d7fd6a81aab2133a0bdef863",
        "gas": "0xf9923",
        "value": "0x0",
        "input": "0x60c034610186576001600160401b0390601f610d8438819003918201601f191683019291908484118385101761018a5781606092849260409687528339810103126101865780516001600160a01b039190828116810361018657602082015190858216928383036101865785015184811680910361018657801561016f575f80546001600160a01b03198116831782559095167f8be0079c531659141344cd1fd0a4f28419497f9722a3daafe3b4186f6b6457e08680a360805260a05282519160608301948386108187111761015b578495600294955282855285602086019280845281870194428652815260016020522094511660018060401b03198554161784555160018401555191015551610be5908161019f823960805181818160fb0152818161045a015281816108cb01526109d6015260a0518181816102fb015281816104f90152818161069401528181610721015261087f0152f35b634e487b7160e01b82526041600452602482fd5b8551631e4fbdf760e01b81525f6004820152602490fd5b5f80fd5b634e487b7160e01b5f52604160045260245ffdfe6080604081815260049182361015610015575f80fd5b5f92833560e01c9182630ba36dcd14610a865750816312065fe0146109aa57816315770f92146108035781632e1a7d4d1461082257816335c7e92514610803578163715018a6146107a65781637d17767a1461076d5781638da5cb5b146107455781639a8a0592146107015781639d83dddf146105fb578163af19ce5c146105ba578163b6b55f2514610441578163e23953a914610419578163e5446f77146103c8578163ee79a5751461026a578163f2fde38b146101e3578163f763ed141461012e575063fc0c546a146100e8575f80fd5b3461012a578160031936011261012a57517f00000000000000000000000000000000000000000000000000000000000000006001600160a01b03168152602090f35b5080fd5b919050346101df57806003193601126101df57610149610ad4565b9060243591610156610aea565b815190606082016001600160401b0395838210878311176101cc57509160028685935f80516020610b90833981519152979560209752169687835285830185815284840191428352898b5260018852858b209451166001600160401b03198554161784555160018401555191015551908152a280f35b634e487b7160e01b885260419052602487fd5b8280fd5b9050346101df5760203660031901126101df576101fe610aba565b90610207610aea565b6001600160a01b0391821692831561025457505082546001600160a01b0319811683178455167f8be0079c531659141344cd1fd0a4f28419497f9722a3daafe3b4186f6b6457e08380a380f35b51631e4fbdf760e01b8152908101849052602490fd5b919050346101df57806003193601126101df57610285610aba565b8254602435936001600160a01b0392918316330361038d5750916020915f80516020610b908339815191529316808652600283528186206102c7868254610b15565b90556102d585600354610b15565b6003557f4725fa1d23f4a857d4d5255ead3524220b13a6c632a2b27eca0cd639797a888b7f0000000000000000000000000000000000000000000000000000000000000000956001600160401b03871696878952600186526001858a200161033e838254610b15565b905587895260018652426002868b200155610373855192839283602090939291936001600160401b0360408201951681520152565b0390a283855260018252600181862001549051908152a280f35b606490602085519162461bcd60e51b835282015260156024820152742b30bab63a1d1037b7363c9036b2b9b9b2b733b2b960591b6044820152fd5b50503461012a57602036600319011261012a57606091816001600160401b0391826103f1610ad4565b1681526001602052209081541691600260018301549201549181519384526020840152820152f35b9050346101df57826003193601126101df575490516001600160a01b03909116815260209150f35b83833461012a576020806003193601126101df578335917f00000000000000000000000000000000000000000000000000000000000000009481516323b872dd60e01b865233825230602452846044528386606481808b5af1916001928388511481161561059c575b828552876060521561057e575050905f80516020610b908339815191529291338652600283528186206104de868254610b15565b90556104ec85600354610b15565b6003556001600160401b037f000000000000000000000000000000000000000000000000000000000000000016948587528184528183882001610530828254610b15565b9055858752818452426002848920015582519081527fe1fffcc4923d04b559f4d29a8bfc6cda04eb5b0d3c460751c2402c5c5cc9109c843392a284865280835281862001549051908152a280f35b635274afe760e01b82526001600160a01b0388169082015260249150fd5b838115166105b157883b15153d1516166104aa565b823d89823e3d90fd5b83903461012a57602036600319011261012a576105d5610aba565b6105dd610aea565b81546001600160a01b0319166001600160a01b039190911617905580f35b50503461012a578060031936011261012a575f80516020610b90833981519152610623610ad4565b602435923385526020916002835261064085838820541015610b36565b33865260028352818620610655868254610b82565b905561066385600354610b82565b6003557f43d978bf0f73043cd418617574b71e9f48620e386282109b99def5e92924a85f6103736001600160401b037f00000000000000000000000000000000000000000000000000000000000000001696878952600186526001858a20016106cd828254610b82565b905587895260018652426002868b2001558451918291339583602090939291936001600160401b0360408201951681520152565b50503461012a578160031936011261012a57602090516001600160401b037f0000000000000000000000000000000000000000000000000000000000000000168152f35b50503461012a578160031936011261012a57905490516001600160a01b039091168152602090f35b50503461012a57602036600319011261012a576001816020936001600160401b03610796610ad4565b1681528285522001549051908152f35b83346108005780600319360112610800576107bf610aea565b80546001600160a01b03198116825581906001600160a01b03167f8be0079c531659141344cd1fd0a4f28419497f9722a3daafe3b4186f6b6457e08280a380f35b80fd5b50503461012a578160031936011261012a576020906003549051908152f35b83833461012a576020806003193601126101df578335913384526002825261084f83828620541015610b36565b33845260028252808420610864848254610b82565b905561087283600354610b82565b6003556001600160401b037f0000000000000000000000000000000000000000000000000000000000000000169283855260019081845281838720016108b9828254610b82565b905584865281845242600284882001557f00000000000000000000000000000000000000000000000000000000000000009683519063a9059cbb60e01b8852338152826024528588604481808d5af18489511481161561098c575b8286521561096e5750505f80516020610b908339815191529495965082519081527f884edad9ce6fa2440d8a54cc123490eb96d2768479d49ff9c7366125a9424364843392a284865280835281862001549051908152a280f35b635274afe760e01b82526001600160a01b0389169082015260249150fd5b848115166109a157893b15153d151616610914565b823d8a823e3d90fd5b919050346101df57826003193601126101df5780516370a0823160e01b815230838201526020816024817f00000000000000000000000000000000000000000000000000000000000000006001600160a01b03165afa928315610a7c578493610a18575b6020848451908152f35b909192506020903d8211610a74575b601f8201601f19168301906001600160401b03821184831017610a61575060209183918552810103126101df576020925051905f80610a0e565b634e487b7160e01b865260419052602485fd5b3d9150610a27565b82513d86823e3d90fd5b849084346101df5760203660031901126101df576020926001600160a01b03610aad610aba565b1681526002845220548152f35b600435906001600160a01b0382168203610ad057565b5f80fd5b600435906001600160401b0382168203610ad057565b5f546001600160a01b03163303610afd57565b60405163118cdaa760e01b8152336004820152602490fd5b91908201809211610b2257565b634e487b7160e01b5f52601160045260245ffd5b15610b3d57565b60405162461bcd60e51b815260206004820152601b60248201527f5661756c743a20696e73756666696369656e74206465706f73697400000000006044820152606490fd5b91908203918211610b225756fe9a06c6ce5c54977df4fd88e6bb8c37e5ef9015e953a1c4713e91c1093fb51442a2646970667358221220ae1d03a58307afe3df334abf018009473ae003edcc2b7a6998b864cfce9c005c64736f6c634300081400330000000000000000000000003da27031278c1356ca3ebcc458e9427c8ab07ee30000000000000000000000000000000000000000000000000000000000aa36a700000000000000000000000007dab64aa125b206d7fd6a81aab2133a0bdef863",
        "nonce": "0x13c",
        "chainId": "0xaa36a7"
      },
      "additionalContracts": [],
      "isFixedGasLimit": false
    },
    {
      "hash": "0xf61b51c2c5bec0c4686374d8c7f1b43d546c540e2239e5047d13f75615524691",
      "transactionType": "CREATE",
      "contractName": "Vault",
      "contractAddress": "0xdc8a9208c3c07c14ccc31e9e52f4b570c0cc8f66",
      "function": null,
      "arguments": [
        "0x5BD7a4cC7024E9f628FCaeB45B2018ab19c90C14",
        "11155111",
        "0x07dab64Aa125B206D7fd6a81AaB2133A0bdEF863"
      ],
      "transaction": {
        "from": "0x07dab64aa125b206d7fd6a81aab2133a0bdef863",
        "gas": "0xf9923",
        "value": "0x0",
        "input": "0x60c034610186576001600160401b0390601f610d8438819003918201601f191683019291908484118385101761018a5781606092849260409687528339810103126101865780516001600160a01b039190828116810361018657602082015190858216928383036101865785015184811680910361018657801561016f575f80546001600160a01b03198116831782559095167f8be0079c531659141344cd1fd0a4f28419497f9722a3daafe3b4186f6b6457e08680a360805260a05282519160608301948386108187111761015b578495600294955282855285602086019280845281870194428652815260016020522094511660018060401b03198554161784555160018401555191015551610be5908161019f823960805181818160fb0152818161045a015281816108cb01526109d6015260a0518181816102fb015281816104f90152818161069401528181610721015261087f0152f35b634e487b7160e01b82526041600452602482fd5b8551631e4fbdf760e01b81525f6004820152602490fd5b5f80fd5b634e487b7160e01b5f52604160045260245ffdfe6080604081815260049182361015610015575f80fd5b5f92833560e01c9182630ba36dcd14610a865750816312065fe0146109aa57816315770f92146108035781632e1a7d4d1461082257816335c7e92514610803578163715018a6146107a65781637d17767a1461076d5781638da5cb5b146107455781639a8a0592146107015781639d83dddf146105fb578163af19ce5c146105ba578163b6b55f2514610441578163e23953a914610419578163e5446f77146103c8578163ee79a5751461026a578163f2fde38b146101e3578163f763ed141461012e575063fc0c546a146100e8575f80fd5b3461012a578160031936011261012a57517f00000000000000000000000000000000000000000000000000000000000000006001600160a01b03168152602090f35b5080fd5b919050346101df57806003193601126101df57610149610ad4565b9060243591610156610aea565b815190606082016001600160401b0395838210878311176101cc57509160028685935f80516020610b90833981519152979560209752169687835285830185815284840191428352898b5260018852858b209451166001600160401b03198554161784555160018401555191015551908152a280f35b634e487b7160e01b885260419052602487fd5b8280fd5b9050346101df5760203660031901126101df576101fe610aba565b90610207610aea565b6001600160a01b0391821692831561025457505082546001600160a01b0319811683178455167f8be0079c531659141344cd1fd0a4f28419497f9722a3daafe3b4186f6b6457e08380a380f35b51631e4fbdf760e01b8152908101849052602490fd5b919050346101df57806003193601126101df57610285610aba565b8254602435936001600160a01b0392918316330361038d5750916020915f80516020610b908339815191529316808652600283528186206102c7868254610b15565b90556102d585600354610b15565b6003557f4725fa1d23f4a857d4d5255ead3524220b13a6c632a2b27eca0cd639797a888b7f0000000000000000000000000000000000000000000000000000000000000000956001600160401b03871696878952600186526001858a200161033e838254610b15565b905587895260018652426002868b200155610373855192839283602090939291936001600160401b0360408201951681520152565b0390a283855260018252600181862001549051908152a280f35b606490602085519162461bcd60e51b835282015260156024820152742b30bab63a1d1037b7363c9036b2b9b9b2b733b2b960591b6044820152fd5b50503461012a57602036600319011261012a57606091816001600160401b0391826103f1610ad4565b1681526001602052209081541691600260018301549201549181519384526020840152820152f35b9050346101df57826003193601126101df575490516001600160a01b03909116815260209150f35b83833461012a576020806003193601126101df578335917f00000000000000000000000000000000000000000000000000000000000000009481516323b872dd60e01b865233825230602452846044528386606481808b5af1916001928388511481161561059c575b828552876060521561057e575050905f80516020610b908339815191529291338652600283528186206104de868254610b15565b90556104ec85600354610b15565b6003556001600160401b037f000000000000000000000000000000000000000000000000000000000000000016948587528184528183882001610530828254610b15565b9055858752818452426002848920015582519081527fe1fffcc4923d04b559f4d29a8bfc6cda04eb5b0d3c460751c2402c5c5cc9109c843392a284865280835281862001549051908152a280f35b635274afe760e01b82526001600160a01b0388169082015260249150fd5b838115166105b157883b15153d1516166104aa565b823d89823e3d90fd5b83903461012a57602036600319011261012a576105d5610aba565b6105dd610aea565b81546001600160a01b0319166001600160a01b039190911617905580f35b50503461012a578060031936011261012a575f80516020610b90833981519152610623610ad4565b602435923385526020916002835261064085838820541015610b36565b33865260028352818620610655868254610b82565b905561066385600354610b82565b6003557f43d978bf0f73043cd418617574b71e9f48620e386282109b99def5e92924a85f6103736001600160401b037f00000000000000000000000000000000000000000000000000000000000000001696878952600186526001858a20016106cd828254610b82565b905587895260018652426002868b2001558451918291339583602090939291936001600160401b0360408201951681520152565b50503461012a578160031936011261012a57602090516001600160401b037f0000000000000000000000000000000000000000000000000000000000000000168152f35b50503461012a578160031936011261012a57905490516001600160a01b039091168152602090f35b50503461012a57602036600319011261012a576001816020936001600160401b03610796610ad4565b1681528285522001549051908152f35b83346108005780600319360112610800576107bf610aea565b80546001600160a01b03198116825581906001600160a01b03167f8be0079c531659141344cd1fd0a4f28419497f9722a3daafe3b4186f6b6457e08280a380f35b80fd5b50503461012a578160031936011261012a576020906003549051908152f35b83833461012a576020806003193601126101df578335913384526002825261084f83828620541015610b36565b33845260028252808420610864848254610b82565b905561087283600354610b82565b6003556001600160401b037f0000000000000000000000000000000000000000000000000000000000000000169283855260019081845281838720016108b9828254610b82565b905584865281845242600284882001557f00000000000000000000000000000000000000000000000000000000000000009683519063a9059cbb60e01b8852338152826024528588604481808d5af18489511481161561098c575b8286521561096e5750505f80516020610b908339815191529495965082519081527f884edad9ce6fa2440d8a54cc123490eb96d2768479d49ff9c7366125a9424364843392a284865280835281862001549051908152a280f35b635274afe760e01b82526001600160a01b0389169082015260249150fd5b848115166109a157893b15153d151616610914565b823d8a823e3d90fd5b919050346101df57826003193601126101df5780516370a0823160e01b815230838201526020816024817f00000000000000000000000000000000000000000000000000000000000000006001600160a01b03165afa928315610a7c578493610a18575b6020848451908152f35b909192506020903d8211610a74575b601f8201601f19168301906001600160401b03821184831017610a61575060209183918552810103126101df576020925051905f80610a0e565b634e487b7160e01b865260419052602485fd5b3d9150610a27565b82513d86823e3d90fd5b849084346101df5760203660031901126101df576020926001600160a01b03610aad610aba565b1681526002845220548152f35b600435906001600160a01b0382168203610ad057565b5f80fd5b600435906001600160401b0382168203610ad057565b5f546001600160a01b03163303610afd57565b60405163118cdaa760e01b8152336004820152602490fd5b91908201809211610b2257565b634e487b7160e01b5f52601160045260245ffd5b15610b3d57565b60405162461bcd60e51b815260206004820152601b60248201527f5661756c743a20696e73756666696369656e74206465706f73697400000000006044820152606490fd5b91908203918211610b225756fe9a06c6ce5c54977df4fd88e6bb8c37e5ef9015e953a1c4713e91c1093fb51442a2646970667358221220ae1d03a58307afe3df334abf018009473ae003edcc2b7a6998b864cfce9c005c64736f6c634300081400330000000000000000000000005bd7a4cc7024e9f628fcaeb45b2018ab19c90c140000000000000000000000000000000000000000000000000000000000aa36a700000000000000000000000007dab64aa125b206d7fd6a81aab2133a0bdef863",
        "nonce": "0x13d",
        "chainId": "0xaa36a7"
      },
      "additionalContracts": [],
      "isFixedGasLimit": false
    },
    {
      "hash": "0xa6439fc8fcc0fe054b6d4a42247c195e08e5b3757b808093b299786acb993883",
      "transactionType": "CREATE",
      "contractName": "Vault",
      "contractAddress": "0x19b1cd853a9bf3c7c718f94065d61a98b377dbfe",
      "function": null,
      "arguments": [
        "0x21A1dF35611a06dB25e5B7be8007d8201e910C2D",
        "11155111",
        "0x07dab64Aa125B206D7fd6a81AaB2133A0bdEF863"
      ],
      "transaction": {
        "from": "0x07dab64aa125b206d7fd6a81aab2133a0bdef863",
        "gas": "0xf9923",
        "value": "0x0",
        "input": "0x60c034610186576001600160401b0390601f610d8438819003918201601f191683019291908484118385101761018a5781606092849260409687528339810103126101865780516001600160a01b039190828116810361018657602082015190858216928383036101865785015184811680910361018657801561016f575f80546001600160a01b03198116831782559095167f8be0079c531659141344cd1fd0a4f28419497f9722a3daafe3b4186f6b6457e08680a360805260a05282519160608301948386108187111761015b578495600294955282855285602086019280845281870194428652815260016020522094511660018060401b03198554161784555160018401555191015551610be5908161019f823960805181818160fb0152818161045a015281816108cb01526109d6015260a0518181816102fb015281816104f90152818161069401528181610721015261087f0152f35b634e487b7160e01b82526041600452602482fd5b8551631e4fbdf760e01b81525f6004820152602490fd5b5f80fd5b634e487b7160e01b5f52604160045260245ffdfe6080604081815260049182361015610015575f80fd5b5f92833560e01c9182630ba36dcd14610a865750816312065fe0146109aa57816315770f92146108035781632e1a7d4d1461082257816335c7e92514610803578163715018a6146107a65781637d17767a1461076d5781638da5cb5b146107455781639a8a0592146107015781639d83dddf146105fb578163af19ce5c146105ba578163b6b55f2514610441578163e23953a914610419578163e5446f77146103c8578163ee79a5751461026a578163f2fde38b146101e3578163f763ed141461012e575063fc0c546a146100e8575f80fd5b3461012a578160031936011261012a57517f00000000000000000000000000000000000000000000000000000000000000006001600160a01b03168152602090f35b5080fd5b919050346101df57806003193601126101df57610149610ad4565b9060243591610156610aea565b815190606082016001600160401b0395838210878311176101cc57509160028685935f80516020610b90833981519152979560209752169687835285830185815284840191428352898b5260018852858b209451166001600160401b03198554161784555160018401555191015551908152a280f35b634e487b7160e01b885260419052602487fd5b8280fd5b9050346101df5760203660031901126101df576101fe610aba565b90610207610aea565b6001600160a01b0391821692831561025457505082546001600160a01b0319811683178455167f8be0079c531659141344cd1fd0a4f28419497f9722a3daafe3b4186f6b6457e08380a380f35b51631e4fbdf760e01b8152908101849052602490fd5b919050346101df57806003193601126101df57610285610aba565b8254602435936001600160a01b0392918316330361038d5750916020915f80516020610b908339815191529316808652600283528186206102c7868254610b15565b90556102d585600354610b15565b6003557f4725fa1d23f4a857d4d5255ead3524220b13a6c632a2b27eca0cd639797a888b7f0000000000000000000000000000000000000000000000000000000000000000956001600160401b03871696878952600186526001858a200161033e838254610b15565b905587895260018652426002868b200155610373855192839283602090939291936001600160401b0360408201951681520152565b0390a283855260018252600181862001549051908152a280f35b606490602085519162461bcd60e51b835282015260156024820152742b30bab63a1d1037b7363c9036b2b9b9b2b733b2b960591b6044820152fd5b50503461012a57602036600319011261012a57606091816001600160401b0391826103f1610ad4565b1681526001602052209081541691600260018301549201549181519384526020840152820152f35b9050346101df57826003193601126101df575490516001600160a01b03909116815260209150f35b83833461012a576020806003193601126101df578335917f00000000000000000000000000000000000000000000000000000000000000009481516323b872dd60e01b865233825230602452846044528386606481808b5af1916001928388511481161561059c575b828552876060521561057e575050905f80516020610b908339815191529291338652600283528186206104de868254610b15565b90556104ec85600354610b15565b6003556001600160401b037f000000000000000000000000000000000000000000000000000000000000000016948587528184528183882001610530828254610b15565b9055858752818452426002848920015582519081527fe1fffcc4923d04b559f4d29a8bfc6cda04eb5b0d3c460751c2402c5c5cc9109c843392a284865280835281862001549051908152a280f35b635274afe760e01b82526001600160a01b0388169082015260249150fd5b838115166105b157883b15153d1516166104aa565b823d89823e3d90fd5b83903461012a57602036600319011261012a576105d5610aba565b6105dd610aea565b81546001600160a01b0319166001600160a01b039190911617905580f35b50503461012a578060031936011261012a575f80516020610b90833981519152610623610ad4565b602435923385526020916002835261064085838820541015610b36565b33865260028352818620610655868254610b82565b905561066385600354610b82565b6003557f43d978bf0f73043cd418617574b71e9f48620e386282109b99def5e92924a85f6103736001600160401b037f00000000000000000000000000000000000000000000000000000000000000001696878952600186526001858a20016106cd828254610b82565b905587895260018652426002868b2001558451918291339583602090939291936001600160401b0360408201951681520152565b50503461012a578160031936011261012a57602090516001600160401b037f0000000000000000000000000000000000000000000000000000000000000000168152f35b50503461012a578160031936011261012a57905490516001600160a01b039091168152602090f35b50503461012a57602036600319011261012a576001816020936001600160401b03610796610ad4565b1681528285522001549051908152f35b83346108005780600319360112610800576107bf610aea565b80546001600160a01b03198116825581906001600160a01b03167f8be0079c531659141344cd1fd0a4f28419497f9722a3daafe3b4186f6b6457e08280a380f35b80fd5b50503461012a578160031936011261012a576020906003549051908152f35b83833461012a576020806003193601126101df578335913384526002825261084f83828620541015610b36565b33845260028252808420610864848254610b82565b905561087283600354610b82565b6003556001600160401b037f0000000000000000000000000000000000000000000000000000000000000000169283855260019081845281838720016108b9828254610b82565b905584865281845242600284882001557f00000000000000000000000000000000000000000000000000000000000000009683519063a9059cbb60e01b8852338152826024528588604481808d5af18489511481161561098c575b8286521561096e5750505f80516020610b908339815191529495965082519081527f884edad9ce6fa2440d8a54cc123490eb96d2768479d49ff9c7366125a9424364843392a284865280835281862001549051908152a280f35b635274afe760e01b82526001600160a01b0389169082015260249150fd5b848115166109a157893b15153d151616610914565b823d8a823e3d90fd5b919050346101df57826003193601126101df5780516370a0823160e01b815230838201526020816024817f00000000000000000000000000000000000000000000000000000000000000006001600160a01b03165afa928315610a7c578493610a18575b6020848451908152f35b909192506020903d8211610a74575b601f8201601f19168301906001600160401b03821184831017610a61575060209183918552810103126101df576020925051905f80610a0e565b634e487b7160e01b865260419052602485fd5b3d9150610a27565b82513d86823e3d90fd5b849084346101df5760203660031901126101df576020926001600160a01b03610aad610aba565b1681526002845220548152f35b600435906001600160a01b0382168203610ad057565b5f80fd5b600435906001600160401b0382168203610ad057565b5f546001600160a01b03163303610afd57565b60405163118cdaa760e01b8152336004820152602490fd5b91908201809211610b2257565b634e487b7160e01b5f52601160045260245ffd5b15610b3d57565b60405162461bcd60e51b815260206004820152601b60248201527f5661756c743a20696e73756666696369656e74206465706f73697400000000006044820152606490fd5b91908203918211610b225756fe9a06c6ce5c54977df4fd88e6bb8c37e5ef9015e953a1c4713e91c1093fb51442a2646970667358221220ae1d03a58307afe3df334abf018009473ae003edcc2b7a6998b864cfce9c005c64736f6c6343000814003300000000000000000000000021a1df35611a06db25e5b7be8007d8201e910c2d0000000000000000000000000000000000000000000000000000000000aa36a700000000000000000000000007dab64aa125b206d7fd6a81aab2133a0bdef863",
        "nonce": "0x13e",
        "chainId": "0xaa36a7"
      },
      "additionalContracts": [],
      "isFixedGasLimit": false
    },
    {
      "hash": "0xf88bdf28e252f3fa7ab8bd8c7d31763074cc9b122132c45cf5a3c394a19f5882",
      "transactionType": "CREATE",
      "contractName": "Pool",
      "contractAddress": "0x21b096fc58212c325242cff850980086a5699817",
      "function": null,
      "arguments": [
        "0x0165878A594ca255338adfa4d48449f69242Eb8F",
        "[0x7F45B29Cd366A81763F9198aFA6eaB605f6581D1, 0x3dA27031278c1356Ca3ebCC458E9427c8aB07ee3, 0x5BD7a4cC7024E9f628FCaeB45B2018ab19c90C14, 0x21A1dF35611a06dB25e5B7be8007d8201e910C2D]",
        "[0x396a969a9c1480fa15ed50bc59149e2c0075a72fe8f458ed941ddec48bdb4918, 0x6693afcd49878bbd622e46bd805e7177932cf6ab0b1c91b135d71151b9207433, 0xab1bdad3d2984801e48480cca22df5d709fdfd2149246c9aef6e06a17a0a9394, 0x2b89b9dc8fdf9f34709a5b106b472f0f39bb6ca9ce04b0fd7f2e971688e2e53b]",
        "0x07dab64Aa125B206D7fd6a81AaB2133A0bdEF863"
      ],
      "transaction": {
        "from": "0x07dab64aa125b206d7fd6a81aab2133a0bdef863",
        "gas": "0x18e9f3",
        "value": "0x0",
        "input": "0x60406080815234620002fa576200142b90813803806200001f8162000319565b938439820191608081840312620002fa5780516001600160a01b0380821691829003620002fa576020838101516001600160401b039290838111620002fa5785019287601f85011215620002fa57835195620000856200007f8862000353565b62000319565b9484868981520185819960051b830101918b8311620002fa5786809101915b838310620002fe575050505087810151828111620002fa5781019880601f8b011215620002fa578951620000dc6200007f8262000353565b9a86808d848152019260051b820101928311620002fa579086808795949301915b838310620002e6575050505060606200011791016200036b565b16958615620002cf575f80546001600160a01b03198082168a1783558a519099929892909186167f8be0079c531659141344cd1fd0a4f28419497f9722a3daafe3b4186f6b6457e08a80a3601e60055586518b51036200028d5750600197885416178755845191821162000279576801000000000000000082116200027957600354826003558083106200024e575b5096959660038652838620865b8381106200023a5750505050859684969596975b620001dc575b86516110819081620003aa8239f35b83518810156200023457620001f2888262000380565b5182620002008a8762000380565b5116865260048452878620555f19881462000220579685019685620001c7565b634e487b7160e01b85526011600452602485fd5b620001cd565b8251851682820155918501918901620001b3565b60038752878386892092830192015b8281106200026d575050620001a6565b8881550188906200025d565b634e487b7160e01b86526041600452602486fd5b62461bcd60e51b815260048101869052601560248201527f506f6f6c3a206c656e677468206d69736d6174636800000000000000000000006044820152606490fd5b8751631e4fbdf760e01b81525f6004820152602490fd5b8251815287955091810191889101620000fd565b5f80fd5b81906200030b846200036b565b8152019101908690620000a4565b6040519190601f01601f191682016001600160401b038111838210176200033f57604052565b634e487b7160e01b5f52604160045260245ffd5b6001600160401b0381116200033f5760051b60200190565b51906001600160a01b0382168203620002fa57565b8051821015620003955760209160051b010190565b634e487b7160e01b5f52603260045260245ffdfe6080806040526004361015610012575f80fd5b5f90813560e01c90816315ef1e9114610d555750806324a9d85314610d37578063336eb6ae14610cfe5780634f64b2be14610ca2578063714ccf7b14610c49578063715018a614610bef57806372c27b6214610b895780637f46babe146101e45780638da5cb5b146101bd5780639d7f7e86146101a1578063a622ee7c14610165578063f2fde38b146100d85763f5d6ac90146100ad575f80fd5b346100d557806003193601126100d5576001546040516001600160a01b039091168152602090f35b80fd5b50346100d55760203660031901126100d5576100f2610dc5565b6100fa610ddf565b6001600160a01b0390811690811561014c575f54826bffffffffffffffffffffffff60a01b8216175f55167f8be0079c531659141344cd1fd0a4f28419497f9722a3daafe3b4186f6b6457e05f80a380f35b604051631e4fbdf760e01b815260048101849052602490fd5b50346100d55760203660031901126100d5576020906001600160a01b03906040908261018f610dc5565b16815260028452205416604051908152f35b50346100d557806003193601126100d5576020604051603c8152f35b50346100d557806003193601126100d557546040516001600160a01b039091168152602090f35b50346100d5576003196020368201126107d45767ffffffffffffffff600435116107d45760a06004353603918201126107d4576044600435013515610b4d57610231600435600401610e0a565b6001600160a01b03610247600435602401610e0a565b6001600160a01b03909216911614610b15576001600160a01b0361026e6004803501610e0a565b168252600260205260408220546001600160a01b031615610ad0576001600160a01b0361029f600435602401610e0a565b168252600260205260408220546001600160a01b031615610a8b576102c8600435600401610e0a565b6102d6602460043501610e0a565b91600435608401359060221901811215610a875767ffffffffffffffff600482813501013511610a875760048181350101353603602482600435010113610a875783604051916103376020601f19601f600485813501013501160184610e46565b60048035820190810135808552369101602401116107d457602090600490813581018083013590602401868501378135010135830101526040519081604081011067ffffffffffffffff604084011117610a73576040820160405260018252845b60208110610a6257506103aa82610ef9565b526103b481610ef9565b5060015484906001600160a01b0316803b156107d45791604051928391631df3cbc560e31b8352602483016020600485015281518091526044840190602060448260051b87010193019186905b8282106109ff57505050508383809203925af18015610990576109ec575b506001600160a01b0316825260046020526040822054801561099b576001546040516396834ad360e01b815260048101929092526001600160a01b031691608082602481865afa91821561099057849261096f575b5061047e82610fb2565b6001600160a01b0316835260046020526040832054801561091c576080906024604051809581936396834ad360e01b835260048301525afa9182156107d85783926108eb575b506104ce82610fb2565b8051908251848360070b13806108df575b156108a35767ffffffffffffffff610520604061051a8161052761053f98866105206105329a61051a63ffffffff988992015160030b610f87565b16610fa4565b9116610e68565b98015160030b610f87565b9160446004350135610e68565b811561088f570461271061055560055483610e68565b04810390811161087b57606460043501358110610836576001600160a01b036105816004803501610e0a565b16604051906323b872dd60e01b845233600452306024526044600435013560445260208460648180855af16001855114811615610817575b826040528460605215610802575061061d90506001600160a01b036105e16004803501610e0a565b166001600160a01b036105f76004803501610e0a565b1684526002602052604084205460446004350135916001600160a01b0390911690610e7b565b6001600160a01b036106326004803501610e0a565b1682526002602052604082205482906001600160a01b0316803b156107d45781809160246040518094819363b6b55f2560e01b83526044600435013560048401525af180156107f7576107e3575b506001600160a01b039050610699600435602401610e0a565b1682526002602052604082205482906001600160a01b0316803b156107d4578190602460405180948193632e1a7d4d60e01b83528760048401525af180156107d8576107c0575b506020916107339082906001600160a01b03610700600435602401610e0a565b16906001600160a01b03610718600435602401610e0a565b1681526002865260409020546001600160a01b031690610e7b565b61075481336001600160a01b0361074e600435602401610e0a565b16610e7b565b610762600435600401610e0a565b610770602460043501610e0a565b604080516004356044013581528581018590526001600160a01b03928316939092169133917f6782190c91d4a7e8ad2a867deed6ec0a970cab8ff137ae2bd4abd92b3810f4d391a4604051908152f35b6107ca8391610e1e565b6107d4575f6106e0565b5080fd5b6040513d85823e3d90fd5b6107ec90610e1e565b6107d457815f610680565b6040513d84823e3d90fd5b635274afe760e01b8252600482015260249150fd5b600181151661082d57813b15153d1516166105b9565b823d86823e3d90fd5b60405162461bcd60e51b815260206004820152601760248201527f506f6f6c3a20736c6970706167652065786365656465640000000000000000006044820152606490fd5b634e487b7160e01b5f52601160045260245ffd5b634e487b7160e01b5f52601260045260245ffd5b60405162461bcd60e51b8152602060048201526014602482015273506f6f6c3a206e6567617469766520707269636560601b6044820152606490fd5b50848160070b136104df565b61090e91925060803d608011610915575b6109068183610e46565b810190610f1a565b905f6104c4565b503d6108fc565b60405162461bcd60e51b815260206004820152602560248201527f506f6f6c3a2070726963652066656564206e6f7420666f756e6420666f72206f6044820152641d5d1c1d5d60da1b6064820152608490fd5b61098991925060803d608011610915576109068183610e46565b905f610474565b6040513d86823e3d90fd5b60405162461bcd60e51b8152602060048201526024808201527f506f6f6c3a2070726963652066656564206e6f7420666f756e6420666f7220696044820152631b9c1d5d60e21b6064820152608490fd5b6109f890939193610e1e565b915f61041f565b919390929495506043198882030182528451805190818352885b828110610a4b57505060208083838b838096600198010152601f80199101160101960192019201879594939192610401565b60208282018101518583018201528e9a5001610a19565b806060602080938601015201610398565b634e487b7160e01b85526041600452602485fd5b8380fd5b60405162461bcd60e51b815260206004820152601e60248201527f506f6f6c3a207661756c74206e6f742073657420666f72206f757470757400006044820152606490fd5b60405162461bcd60e51b815260206004820152601d60248201527f506f6f6c3a207661756c74206e6f742073657420666f7220696e7075740000006044820152606490fd5b60405162461bcd60e51b815260206004820152601060248201526f2837b7b61d1039b0b6b2903a37b5b2b760811b6044820152606490fd5b60405162461bcd60e51b8152602060048201526014602482015273141bdbdb0e881a5b9d985b1a5908185b5bdd5b9d60621b6044820152606490fd5b50346100d55760203660031901126100d557600435610ba6610ddf565b6103e88111610bb55760055580f35b60405162461bcd60e51b81526020600482015260126024820152710a0deded87440cccaca40e8dede40d0d2ced60731b6044820152606490fd5b50346100d557806003193601126100d557610c08610ddf565b80546001600160a01b03198116825581906001600160a01b03167f8be0079c531659141344cd1fd0a4f28419497f9722a3daafe3b4186f6b6457e08280a380f35b50346100d55760403660031901126100d557610c63610dc5565b6001600160a01b036024358181169290839003610a8757610c82610ddf565b16825260026020526040822080546001600160a01b031916909117905580f35b50346100d55760203660031901126100d5576004356003548110156107d45760039091527fc2575a0e9e593c00f959f8c92f12db2869c3395a3b0502d05e2516446f71f85b01546040516001600160a01b039091168152602090f35b50346100d55760203660031901126100d5576020906040906001600160a01b03610d26610dc5565b168152600483522054604051908152f35b50346100d557806003193601126100d5576020600554604051908152f35b9050346107d45760603660031901126107d457610d70610dc5565b506024356001600160a01b038116036107d45762461bcd60e51b815260206004820152601e60248201527f506f6f6c3a2075736520737761702077697468207072696365206461746100006044820152606490fd5b600435906001600160a01b0382168203610ddb57565b5f80fd5b5f546001600160a01b03163303610df257565b60405163118cdaa760e01b8152336004820152602490fd5b356001600160a01b0381168103610ddb5790565b67ffffffffffffffff8111610e3257604052565b634e487b7160e01b5f52604160045260245ffd5b90601f8019910116810190811067ffffffffffffffff821117610e3257604052565b8181029291811591840414171561087b57565b60405163a9059cbb60e01b5f9081526001600160a01b039384166004526024949094529260209060448180855af160015f5114811615610eda575b8360405215610ec457505050565b635274afe760e01b835216600482015260249150fd5b6001811516610ef057813b15153d151616610eb6565b833d5f823e3d90fd5b805115610f065760200190565b634e487b7160e01b5f52603260045260245ffd5b90816080910312610ddb576040519067ffffffffffffffff6080830181811184821017610e325760405281518060070b8103610ddb57835260208201519081168103610ddb5760208301526040810151908160030b8203610ddb5760609160408401520151606082015290565b60030b60120190637fffffff8213637fffffff1983121761087b57565b604d811161087b57600a0a90565b5f815160070b13156110105760600151603b1942019042821161087b571115610fd757565b60405162461bcd60e51b8152602060048201526011602482015270506f6f6c3a207374616c6520707269636560781b6044820152606490fd5b60405162461bcd60e51b8152602060048201526013602482015272506f6f6c3a20696e76616c696420707269636560681b6044820152606490fdfea2646970667358221220c7eb042c0ecf9fbe5c08f4d40fe2f1ec733c4069ee17bb13cb76224c94aff6e664736f6c634300081400330000000000000000000000000165878a594ca255338adfa4d48449f69242eb8f0000000000000000000000000000000000000000000000000000000000000080000000000000000000000000000000000000000000000000000000000000012000000000000000000000000007dab64aa125b206d7fd6a81aab2133a0bdef86300000000000000000000000000000000000000000000000000000000000000040000000000000000000000007f45b29cd366a81763f9198afa6eab605f6581d10000000000000000000000003da27031278c1356ca3ebcc458e9427c8ab07ee30000000000000000000000005bd7a4cc7024e9f628fcaeb45b2018ab19c90c1400000000000000000000000021a1df35611a06db25e5b7be8007d8201e910c2d0000000000000000000000000000000000000000000000000000000000000004396a969a9c1480fa15ed50bc59149e2c0075a72fe8f458ed941ddec48bdb49186693afcd49878bbd622e46bd805e7177932cf6ab0b1c91b135d71151b9207433ab1bdad3d2984801e48480cca22df5d709fdfd2149246c9aef6e06a17a0a93942b89b9dc8fdf9f34709a5b106b472f0f39bb6ca9ce04b0fd7f2e971688e2e53b",
        "nonce": "0x13f",
        "chainId": "0xaa36a7"
      },
      "additionalContracts": [],
      "isFixedGasLimit": false
    },
    {
      "hash": "0x373518e48f309276b45aee3866184703317d11241f6a2f4879a369c036967fec",
      "transactionType": "CALL",
      "contractName": "Pool",
      "contractAddress": "0x21b096fc58212c325242cff850980086a5699817",
      "function": "setVault(address,address)",
      "arguments": [
        "0x7F45B29Cd366A81763F9198aFA6eaB605f6581D1",
        "0x4D91a73Ed104A851C9004e4F40312b90f50014c7"
      ],
      "transaction": {
        "from": "0x07dab64aa125b206d7fd6a81aab2133a0bdef863",
        "to": "0x21b096fc58212c325242cff850980086a5699817",
        "gas": "0xfae3",
        "value": "0x0",
        "input": "0x714ccf7b0000000000000000000000007f45b29cd366a81763f9198afa6eab605f6581d10000000000000000000000004d91a73ed104a851c9004e4f40312b90f50014c7",
        "nonce": "0x140",
        "chainId": "0xaa36a7"
      },
      "additionalContracts": [],
      "isFixedGasLimit": false
    },
    {
      "hash": "0x8b9308e496300148a9ef6e866fbc4e2fa39241cd6cd4a906c6128ace222934fe",
      "transactionType": "CALL",
      "contractName": "Pool",
      "contractAddress": "0x21b096fc58212c325242cff850980086a5699817",
      "function": "setVault(address,address)",
      "arguments": [
        "0x3dA27031278c1356Ca3ebCC458E9427c8aB07ee3",
        "0x85f0b83fa95cd479D5ac84103cf46A36391f7bc5"
      ],
      "transaction": {
        "from": "0x07dab64aa125b206d7fd6a81aab2133a0bdef863",
        "to": "0x21b096fc58212c325242cff850980086a5699817",
        "gas": "0xfb04",
        "value": "0x0",
        "input": "0x714ccf7b0000000000000000000000003da27031278c1356ca3ebcc458e9427c8ab07ee300000000000000000000000085f0b83fa95cd479d5ac84103cf46a36391f7bc5",
        "nonce": "0x141",
        "chainId": "0xaa36a7"
      },
      "additionalContracts": [],
      "isFixedGasLimit": false
    },
    {
      "hash": "0xb5273a1c192cc8247901cb51fe786bbfc8b9ad397d3b5ea586ff1e5a0029a908",
      "transactionType": "CALL",
      "contractName": "Pool",
      "contractAddress": "0x21b096fc58212c325242cff850980086a5699817",
      "function": "setVault(address,address)",
      "arguments": [
        "0x5BD7a4cC7024E9f628FCaeB45B2018ab19c90C14",
        "0xDC8A9208C3C07C14ccc31E9e52F4B570c0cC8f66"
      ],
      "transaction": {
        "from": "0x07dab64aa125b206d7fd6a81aab2133a0bdef863",
        "to": "0x21b096fc58212c325242cff850980086a5699817",
        "gas": "0xfb04",
        "value": "0x0",
        "input": "0x714ccf7b0000000000000000000000005bd7a4cc7024e9f628fcaeb45b2018ab19c90c14000000000000000000000000dc8a9208c3c07c14ccc31e9e52f4b570c0cc8f66",
        "nonce": "0x142",
        "chainId": "0xaa36a7"
      },
      "additionalContracts": [],
      "isFixedGasLimit": false
    },
    {
      "hash": "0xaf21d14320bc3f2b94db77273686f73c96c1af99c5e9c4b882b6f39febf58133",
      "transactionType": "CALL",
      "contractName": "Pool",
      "contractAddress": "0x21b096fc58212c325242cff850980086a5699817",
      "function": "setVault(address,address)",
      "arguments": [
        "0x21A1dF35611a06dB25e5B7be8007d8201e910C2D",
        "0x19B1cd853A9bF3C7C718f94065d61a98b377dBFe"
      ],
      "transaction": {
        "from": "0x07dab64aa125b206d7fd6a81aab2133a0bdef863",
        "to": "0x21b096fc58212c325242cff850980086a5699817",
        "gas": "0xfb04",
        "value": "0x0",
        "input": "0x714ccf7b00000000000000000000000021a1df35611a06db25e5b7be8007d8201e910c2d00000000000000000000000019b1cd853a9bf3c7c718f94065d61a98b377dbfe",
        "nonce": "0x143",
        "chainId": "0xaa36a7"
      },
      "additionalContracts": [],
      "isFixedGasLimit": false
    },
    {
      "hash": "0x69687b3c8f55da49c480eb39c46db7116733f38ce62e62ab24dac82b7125a997",
      "transactionType": "CALL",
      "contractName": "XSGD",
      "contractAddress": "0x7f45b29cd366a81763f9198afa6eab605f6581d1",
      "function": "approve(address,uint256)",
      "arguments": [
        "0x4D91a73Ed104A851C9004e4F40312b90f50014c7",
        "100000000000000000000000"
      ],
      "transaction": {
        "from": "0x07dab64aa125b206d7fd6a81aab2133a0bdef863",
        "to": "0x7f45b29cd366a81763f9198afa6eab605f6581d1",
        "gas": "0xf80d",
        "value": "0x0",
        "input": "0x095ea7b30000000000000000000000004d91a73ed104a851c9004e4f40312b90f50014c700000000000000000000000000000000000000000000152d02c7e14af6800000",
        "nonce": "0x144",
        "chainId": "0xaa36a7"
      },
      "additionalContracts": [],
      "isFixedGasLimit": false
    },
    {
      "hash": "0x4bc39c83a8b030c4d3a8b95c4fb5dc33b896015a0a608101f3850875456948c2",
      "transactionType": "CALL",
      "contractName": "Vault",
      "contractAddress": "0x4d91a73ed104a851c9004e4f40312b90f50014c7",
      "function": "deposit(uint256)",
      "arguments": [
        "100000000000000000000000"
      ],
      "transaction": {
        "from": "0x07dab64aa125b206d7fd6a81aab2133a0bdef863",
        "to": "0x4d91a73ed104a851c9004e4f40312b90f50014c7",
        "gas": "0x2d37e",
        "value": "0x0",
        "input": "0xb6b55f2500000000000000000000000000000000000000000000152d02c7e14af6800000",
        "nonce": "0x145",
        "chainId": "0xaa36a7"
      },
      "additionalContracts": [],
      "isFixedGasLimit": false
    },
    {
      "hash": "0x63cd5de2051b6deba411975535fa75e874787d0d74aa46fa066068ac2b5424e2",
      "transactionType": "CALL",
      "contractName": "THBT",
      "contractAddress": "0x3da27031278c1356ca3ebcc458e9427c8ab07ee3",
      "function": "approve(address,uint256)",
      "arguments": [
        "0x85f0b83fa95cd479D5ac84103cf46A36391f7bc5",
        "100000000000000000000000"
      ],
      "transaction": {
        "from": "0x07dab64aa125b206d7fd6a81aab2133a0bdef863",
        "to": "0x3da27031278c1356ca3ebcc458e9427c8ab07ee3",
        "gas": "0xf82d",
        "value": "0x0",
        "input": "0x095ea7b300000000000000000000000085f0b83fa95cd479d5ac84103cf46a36391f7bc500000000000000000000000000000000000000000000152d02c7e14af6800000",
        "nonce": "0x146",
        "chainId": "0xaa36a7"
      },
      "additionalContracts": [],
      "isFixedGasLimit": false
    },
    {
      "hash": "0x550de975b7cbff253348579fc5c54285fbe4078965781df34e02888aee07cdd8",
      "transactionType": "CALL",
      "contractName": "Vault",
      "contractAddress": "0x85f0b83fa95cd479d5ac84103cf46a36391f7bc5",
      "function": "deposit(uint256)",
      "arguments": [
        "100000000000000000000000"
      ],
      "transaction": {
        "from": "0x07dab64aa125b206d7fd6a81aab2133a0bdef863",
        "to": "0x85f0b83fa95cd479d5ac84103cf46a36391f7bc5",
        "gas": "0x2d37e",
        "value": "0x0",
        "input": "0xb6b55f2500000000000000000000000000000000000000000000152d02c7e14af6800000",
        "nonce": "0x147",
        "chainId": "0xaa36a7"
      },
      "additionalContracts": [],
      "isFixedGasLimit": false
    },
    {
      "hash": "0xd5cb3e4786f2b74d29db489138873c71b0f64d56a325322250b3cccf25301d82",
      "transactionType": "CALL",
      "contractName": "IDRT",
      "contractAddress": "0x5bd7a4cc7024e9f628fcaeb45b2018ab19c90c14",
      "function": "approve(address,uint256)",
      "arguments": [
        "0xDC8A9208C3C07C14ccc31E9e52F4B570c0cC8f66",
        "100000000000000000000000"
      ],
      "transaction": {
        "from": "0x07dab64aa125b206d7fd6a81aab2133a0bdef863",
        "to": "0x5bd7a4cc7024e9f628fcaeb45b2018ab19c90c14",
        "gas": "0xf82d",
        "value": "0x0",
        "input": "0x095ea7b3000000000000000000000000dc8a9208c3c07c14ccc31e9e52f4b570c0cc8f6600000000000000000000000000000000000000000000152d02c7e14af6800000",
        "nonce": "0x148",
        "chainId": "0xaa36a7"
      },
      "additionalContracts": [],
      "isFixedGasLimit": false
    },
    {
      "hash": "0xa3e36c65c9f35f3006d1fb12febee4591eac29168a833a4f81ed10779f23b4da",
      "transactionType": "CALL",
      "contractName": "Vault",
      "contractAddress": "0xdc8a9208c3c07c14ccc31e9e52f4b570c0cc8f66",
      "function": "deposit(uint256)",
      "arguments": [
        "100000000000000000000000"
      ],
      "transaction": {
        "from": "0x07dab64aa125b206d7fd6a81aab2133a0bdef863",
        "to": "0xdc8a9208c3c07c14ccc31e9e52f4b570c0cc8f66",
        "gas": "0x2d37e",
        "value": "0x0",
        "input": "0xb6b55f2500000000000000000000000000000000000000000000152d02c7e14af6800000",
        "nonce": "0x149",
        "chainId": "0xaa36a7"
      },
      "additionalContracts": [],
      "isFixedGasLimit": false
    },
    {
      "hash": "0xaa7e0dbb66bb69d8ea3d15e6ac6943b6b6e084176d73a878a6687c20c17699fa",
      "transactionType": "CALL",
      "contractName": "USDT",
      "contractAddress": "0x21a1df35611a06db25e5b7be8007d8201e910c2d",
      "function": "approve(address,uint256)",
      "arguments": [
        "0x19B1cd853A9bF3C7C718f94065d61a98b377dBFe",
        "100000000000000000000000"
      ],
      "transaction": {
        "from": "0x07dab64aa125b206d7fd6a81aab2133a0bdef863",
        "to": "0x21a1df35611a06db25e5b7be8007d8201e910c2d",
        "gas": "0xf82d",
        "value": "0x0",
        "input": "0x095ea7b300000000000000000000000019b1cd853a9bf3c7c718f94065d61a98b377dbfe00000000000000000000000000000000000000000000152d02c7e14af6800000",
        "nonce": "0x14a",
        "chainId": "0xaa36a7"
      },
      "additionalContracts": [],
      "isFixedGasLimit": false
    },
    {
      "hash": "0xbb5a1a59f80fd21eb8c087023b580f9faf0057b58540b9c23356dba3f713700e",
      "transactionType": "CALL",
      "contractName": "Vault",
      "contractAddress": "0x19b1cd853a9bf3c7c718f94065d61a98b377dbfe",
      "function": "deposit(uint256)",
      "arguments": [
        "100000000000000000000000"
      ],
      "transaction": {
        "from": "0x07dab64aa125b206d7fd6a81aab2133a0bdef863",
        "to": "0x19b1cd853a9bf3c7c718f94065d61a98b377dbfe",
        "gas": "0x2d37e",
        "value": "0x0",
        "input": "0xb6b55f2500000000000000000000000000000000000000000000152d02c7e14af6800000",
        "nonce": "0x14b",
        "chainId": "0xaa36a7"
      },
      "additionalContracts": [],
      "isFixedGasLimit": false
    }
  ],
  "receipts": [
    {
      "status": "0x1",
      "cumulativeGasUsed": "0x37f2b97",
      "logs": [
        {
          "address": "0x7f45b29cd366a81763f9198afa6eab605f6581d1",
          "topics": [
            "0x8be0079c531659141344cd1fd0a4f28419497f9722a3daafe3b4186f6b6457e0",
            "0x0000000000000000000000000000000000000000000000000000000000000000",
            "0x00000000000000000000000007dab64aa125b206d7fd6a81aab2133a0bdef863"
          ],
          "data": "0x",
          "blockHash": "0x282e8853634bb85bdfcc54722d088111d29745f88cd09baa67f006a5023ddfc6",
          "blockNumber": "0x9aaf5c",
          "blockTimestamp": "0x6979419c",
          "transactionHash": "0xaf48e3e82d6573332c55a4ff69fb566cf74a9cb19067634e2f357889b503f4d0",
          "transactionIndex": "0x36",
          "logIndex": "0x53",
          "removed": false
        },
        {
          "address": "0x7f45b29cd366a81763f9198afa6eab605f6581d1",
          "topics": [
            "0xddf252ad1be2c89b69c2b068fc378daa952ba7f163c4a11628f55a4df523b3ef",
            "0x0000000000000000000000000000000000000000000000000000000000000000",
            "0x00000000000000000000000007dab64aa125b206d7fd6a81aab2133a0bdef863"
          ],
          "data": "0x00000000000000000000000000000000000000000000d3c21bcecceda1000000",
          "blockHash": "0x282e8853634bb85bdfcc54722d088111d29745f88cd09baa67f006a5023ddfc6",
          "blockNumber": "0x9aaf5c",
          "blockTimestamp": "0x6979419c",
          "transactionHash": "0xaf48e3e82d6573332c55a4ff69fb566cf74a9cb19067634e2f357889b503f4d0",
          "transactionIndex": "0x36",
          "logIndex": "0x54",
          "removed": false
        }
      ],
      "logsBloom": "0x00000000000000000000000000000000000000000000000000800000002000000000000020000000000000000000000000200000004000000000000000000000000000000000000000000008000000000001000000000000000000000000000000000000020000000000000000000800000000000000000000000010000000400000000000000000000000080000000000000000040000000000000000000000000000000000000000000000000000000000000000000000000000000000000000000002000000000000000000000000000000000000000000000000000020000000000000000000000000000000000000000000000000000000000000000000",
      "type": "0x2",
      "transactionHash": "0xaf48e3e82d6573332c55a4ff69fb566cf74a9cb19067634e2f357889b503f4d0",
      "transactionIndex": "0x36",
      "blockHash": "0x282e8853634bb85bdfcc54722d088111d29745f88cd09baa67f006a5023ddfc6",
      "blockNumber": "0x9aaf5c",
      "gasUsed": "0xaefe5",
      "effectiveGasPrice": "0x38c6aacd",
      "from": "0x07dab64aa125b206d7fd6a81aab2133a0bdef863",
      "to": null,
      "contractAddress": "0x7f45b29cd366a81763f9198afa6eab605f6581d1"
    },
    {
      "status": "0x1",
      "cumulativeGasUsed": "0x38a1b0c",
      "logs": [
        {
          "address": "0x3da27031278c1356ca3ebcc458e9427c8ab07ee3",
          "topics": [
            "0x8be0079c531659141344cd1fd0a4f28419497f9722a3daafe3b4186f6b6457e0",
            "0x0000000000000000000000000000000000000000000000000000000000000000",
            "0x00000000000000000000000007dab64aa125b206d7fd6a81aab2133a0bdef863"
          ],
          "data": "0x",
          "blockHash": "0x282e8853634bb85bdfcc54722d088111d29745f88cd09baa67f006a5023ddfc6",
          "blockNumber": "0x9aaf5c",
          "blockTimestamp": "0x6979419c",
          "transactionHash": "0x76f19a0860dd18dc24ac272df892a3efa0e7f9cb8c79978a7c3990bcff4b737e",
          "transactionIndex": "0x37",
          "logIndex": "0x55",
          "removed": false
        },
        {
          "address": "0x3da27031278c1356ca3ebcc458e9427c8ab07ee3",
          "topics": [
            "0xddf252ad1be2c89b69c2b068fc378daa952ba7f163c4a11628f55a4df523b3ef",
            "0x0000000000000000000000000000000000000000000000000000000000000000",
            "0x00000000000000000000000007dab64aa125b206d7fd6a81aab2133a0bdef863"
          ],
          "data": "0x00000000000000000000000000000000000000000000d3c21bcecceda1000000",
          "blockHash": "0x282e8853634bb85bdfcc54722d088111d29745f88cd09baa67f006a5023ddfc6",
          "blockNumber": "0x9aaf5c",
          "blockTimestamp": "0x6979419c",
          "transactionHash": "0x76f19a0860dd18dc24ac272df892a3efa0e7f9cb8c79978a7c3990bcff4b737e",
          "transactionIndex": "0x37",
          "logIndex": "0x56",
          "removed": false
        }
      ],
      "logsBloom": "0x00000000000000000000000000000000000000000000000000800000002000000000000020000000000000000000000000200000000000000000000000000000000000000000000000000008000000000001000000000000000000000000000000000000020000000000000000000800000000000000000000000010000000400000000000000000000000000000000000000000000000000000000000000000000000000000000000000000000000000000000000000000000000000000000000000002000000000000000000000000000000000000000000000000000020000000000010000001000000000000000000000000000000000000000001000000",
      "type": "0x2",
      "transactionHash": "0x76f19a0860dd18dc24ac272df892a3efa0e7f9cb8c79978a7c3990bcff4b737e",
      "transactionIndex": "0x37",
      "blockHash": "0x282e8853634bb85bdfcc54722d088111d29745f88cd09baa67f006a5023ddfc6",
      "blockNumber": "0x9aaf5c",
      "gasUsed": "0xaef75",
      "effectiveGasPrice": "0x38c6aacd",
      "from": "0x07dab64aa125b206d7fd6a81aab2133a0bdef863",
      "to": null,
      "contractAddress": "0x3da27031278c1356ca3ebcc458e9427c8ab07ee3"
    },
    {
      "status": "0x1",
      "cumulativeGasUsed": "0xb4829c",
      "logs": [
        {
          "address": "0x5bd7a4cc7024e9f628fcaeb45b2018ab19c90c14",
          "topics": [
            "0x8be0079c531659141344cd1fd0a4f28419497f9722a3daafe3b4186f6b6457e0",
            "0x0000000000000000000000000000000000000000000000000000000000000000",
            "0x00000000000000000000000007dab64aa125b206d7fd6a81aab2133a0bdef863"
          ],
          "data": "0x",
          "blockHash": "0x5dc20ecd3a91d43ad2c35fd9591775d8b7880ba4846d5a067ba22c65ccca834a",
          "blockNumber": "0x9aaf5d",
          "blockTimestamp": "0x697941a8",
          "transactionHash": "0x64a3f83d696ede0d4c3cba5a8ba75f20f37acf6e9ac341e115b4e9aa68769b1d",
          "transactionIndex": "0x2a",
          "logIndex": "0x39",
          "removed": false
        },
        {
          "address": "0x5bd7a4cc7024e9f628fcaeb45b2018ab19c90c14",
          "topics": [
            "0xddf252ad1be2c89b69c2b068fc378daa952ba7f163c4a11628f55a4df523b3ef",
            "0x0000000000000000000000000000000000000000000000000000000000000000",
            "0x00000000000000000000000007dab64aa125b206d7fd6a81aab2133a0bdef863"
          ],
          "data": "0x00000000000000000000000000000000000000000000d3c21bcecceda1000000",
          "blockHash": "0x5dc20ecd3a91d43ad2c35fd9591775d8b7880ba4846d5a067ba22c65ccca834a",
          "blockNumber": "0x9aaf5d",
          "blockTimestamp": "0x697941a8",
          "transactionHash": "0x64a3f83d696ede0d4c3cba5a8ba75f20f37acf6e9ac341e115b4e9aa68769b1d",
          "transactionIndex": "0x2a",
          "logIndex": "0x3a",
          "removed": false
        }
      ],
      "logsBloom": "0x00000000000000000000000000000000000000000000000000800000002000000000000020000000000000000000000000200000000000000000000000000000000000000000000000000008002000000001000000000000000000000000000000000000020000000000000000000800000000000000000000400010000000400000000000000000000000000000000000000000000000000000000000000000000000000000000000000000000000000000000000000000000000000000000000000002000000000000000000000000000000000000000000000000000020000000000000000000000000000000000000000000000000000000008000000000",
      "type": "0x2",
      "transactionHash": "0x64a3f83d696ede0d4c3cba5a8ba75f20f37acf6e9ac341e115b4e9aa68769b1d",
      "transactionIndex": "0x2a",
      "blockHash": "0x5dc20ecd3a91d43ad2c35fd9591775d8b7880ba4846d5a067ba22c65ccca834a",
      "blockNumber": "0x9aaf5d",
      "gasUsed": "0xaeff5",
      "effectiveGasPrice": "0x3fa1bfb5",
      "from": "0x07dab64aa125b206d7fd6a81aab2133a0bdef863",
      "to": null,
      "contractAddress": "0x5bd7a4cc7024e9f628fcaeb45b2018ab19c90c14"
    },
    {
      "status": "0x1",
      "cumulativeGasUsed": "0xbf7221",
      "logs": [
        {
          "address": "0x21a1df35611a06db25e5b7be8007d8201e910c2d",
          "topics": [
            "0x8be0079c531659141344cd1fd0a4f28419497f9722a3daafe3b4186f6b6457e0",
            "0x0000000000000000000000000000000000000000000000000000000000000000",
            "0x00000000000000000000000007dab64aa125b206d7fd6a81aab2133a0bdef863"
          ],
          "data": "0x",
          "blockHash": "0x5dc20ecd3a91d43ad2c35fd9591775d8b7880ba4846d5a067ba22c65ccca834a",
          "blockNumber": "0x9aaf5d",
          "blockTimestamp": "0x697941a8",
          "transactionHash": "0xd5ad15047ac5ee2ccae01c73fd135b74fa62ae8b51a7453b9f3137efbb689cd2",
          "transactionIndex": "0x2b",
          "logIndex": "0x3b",
          "removed": false
        },
        {
          "address": "0x21a1df35611a06db25e5b7be8007d8201e910c2d",
          "topics": [
            "0xddf252ad1be2c89b69c2b068fc378daa952ba7f163c4a11628f55a4df523b3ef",
            "0x0000000000000000000000000000000000000000000000000000000000000000",
            "0x00000000000000000000000007dab64aa125b206d7fd6a81aab2133a0bdef863"
          ],
          "data": "0x00000000000000000000000000000000000000000000d3c21bcecceda1000000",
          "blockHash": "0x5dc20ecd3a91d43ad2c35fd9591775d8b7880ba4846d5a067ba22c65ccca834a",
          "blockNumber": "0x9aaf5d",
          "blockTimestamp": "0x697941a8",
          "transactionHash": "0xd5ad15047ac5ee2ccae01c73fd135b74fa62ae8b51a7453b9f3137efbb689cd2",
          "transactionIndex": "0x2b",
          "logIndex": "0x3c",
          "removed": false
        }
      ],
      "logsBloom": "0x0000000000000000000000000000000000000000000000000080000000200000000000002000000000001000000000000020000000000000000000000000000000000000000000000000000a000000000001000000000000000000000000000000000000020000000000001000000800000000000000000000000010000000400000000000000000000000000000000000000000000000000000000000000000000000000000000000000000000000000000000000000000000000000000000000000002000000000000000000000000000000000000000000000000000020000000000000000000000000000000000000000000000000000000000000000000",
      "type": "0x2",
      "transactionHash": "0xd5ad15047ac5ee2ccae01c73fd135b74fa62ae8b51a7453b9f3137efbb689cd2",
      "transactionIndex": "0x2b",
      "blockHash": "0x5dc20ecd3a91d43ad2c35fd9591775d8b7880ba4846d5a067ba22c65ccca834a",
      "blockNumber": "0x9aaf5d",
      "gasUsed": "0xaef85",
      "effectiveGasPrice": "0x3fa1bfb5",
      "from": "0x07dab64aa125b206d7fd6a81aab2133a0bdef863",
      "to": null,
      "contractAddress": "0x21a1df35611a06db25e5b7be8007d8201e910c2d"
    },
    {
      "status": "0x1",
      "cumulativeGasUsed": "0xcb71c6",
      "logs": [
        {
          "address": "0x4d91a73ed104a851c9004e4f40312b90f50014c7",
          "topics": [
            "0x8be0079c531659141344cd1fd0a4f28419497f9722a3daafe3b4186f6b6457e0",
            "0x0000000000000000000000000000000000000000000000000000000000000000",
            "0x00000000000000000000000007dab64aa125b206d7fd6a81aab2133a0bdef863"
          ],
          "data": "0x",
          "blockHash": "0x5dc20ecd3a91d43ad2c35fd9591775d8b7880ba4846d5a067ba22c65ccca834a",
          "blockNumber": "0x9aaf5d",
          "blockTimestamp": "0x697941a8",
          "transactionHash": "0x9fdd688e8764bed5eb701da4b044d4d0b8b710868aff43c1f63a8afe86781d91",
          "transactionIndex": "0x2c",
          "logIndex": "0x3d",
          "removed": false
        }
      ],
      "logsBloom": "0x00000000000000000000000000000000000000000000000000800000002000000000000020000000000000000000000000200000000000000000000000000000000000000000000000000000000000000001000000000000000200000000000000000000020000000000000000000800000000000000000000000000000000400000000000000000000000000000000000000000000000000000000000000000000000000000000000000200000000000000000000000000000000000000000000000000000000000000000000000000000000000000000000000000000020000000000000000000000000000000000000800000000000000000000000000000",
      "type": "0x2",
      "transactionHash": "0x9fdd688e8764bed5eb701da4b044d4d0b8b710868aff43c1f63a8afe86781d91",
      "transactionIndex": "0x2c",
      "blockHash": "0x5dc20ecd3a91d43ad2c35fd9591775d8b7880ba4846d5a067ba22c65ccca834a",
      "blockNumber": "0x9aaf5d",
      "gasUsed": "0xbffa5",
      "effectiveGasPrice": "0x3fa1bfb5",
      "from": "0x07dab64aa125b206d7fd6a81aab2133a0bdef863",
      "to": null,
      "contractAddress": "0x4d91a73ed104a851c9004e4f40312b90f50014c7"
    },
    {
      "status": "0x1",
      "cumulativeGasUsed": "0xd7716b",
      "logs": [
        {
          "address": "0x85f0b83fa95cd479d5ac84103cf46a36391f7bc5",
          "topics": [
            "0x8be0079c531659141344cd1fd0a4f28419497f9722a3daafe3b4186f6b6457e0",
            "0x0000000000000000000000000000000000000000000000000000000000000000",
            "0x00000000000000000000000007dab64aa125b206d7fd6a81aab2133a0bdef863"
          ],
          "data": "0x",
          "blockHash": "0x5dc20ecd3a91d43ad2c35fd9591775d8b7880ba4846d5a067ba22c65ccca834a",
          "blockNumber": "0x9aaf5d",
          "blockTimestamp": "0x697941a8",
          "transactionHash": "0xa6439fc8fcc0fe054b6d4a42247c195e08e5b3757b808093b299786acb993883",
          "transactionIndex": "0x2d",
          "logIndex": "0x3e",
          "removed": false
        }
      ],
      "logsBloom": "0x00000000000000000000000000000000000000000000000000800000002000000000000020000000000000000000000000200000000000000000000000000000000000000000000000000000000000000001000000000000000000000000000000000000020000000000000000000800000000000000000000000000000000400000000000000000000000000000000000002000000000000000000000000000000000000000000000000000000000000000000000000000000000000000000000000000000000000000000000000000000000000000000000000000000020000000000000000000000000000000000002000000100000000000000000000000",
      "type": "0x2",
      "transactionHash": "0xa6439fc8fcc0fe054b6d4a42247c195e08e5b3757b808093b299786acb993883",
      "transactionIndex": "0x2d",
      "blockHash": "0x5dc20ecd3a91d43ad2c35fd9591775d8b7880ba4846d5a067ba22c65ccca834a",
      "blockNumber": "0x9aaf5d",
      "gasUsed": "0xbffa5",
      "effectiveGasPrice": "0x3fa1bfb5",
      "from": "0x07dab64aa125b206d7fd6a81aab2133a0bdef863",
      "to": null,
      "contractAddress": "0x85f0b83fa95cd479d5ac84103cf46a36391f7bc5"
    },
    {
      "status": "0x1",
      "cumulativeGasUsed": "0xe37110",
      "logs": [
        {
          "address": "0xdc8a9208c3c07c14ccc31e9e52f4b570c0cc8f66",
          "topics": [
            "0x8be0079c531659141344cd1fd0a4f28419497f9722a3daafe3b4186f6b6457e0",
            "0x0000000000000000000000000000000000000000000000000000000000000000",
            "0x00000000000000000000000007dab64aa125b206d7fd6a81aab2133a0bdef863"
          ],
          "data": "0x",
          "blockHash": "0x5dc20ecd3a91d43ad2c35fd9591775d8b7880ba4846d5a067ba22c65ccca834a",
          "blockNumber": "0x9aaf5d",
          "blockTimestamp": "0x697941a8",
          "transactionHash": "0xf61b51c2c5bec0c4686374d8c7f1b43d546c540e2239e5047d13f75615524691",
          "transactionIndex": "0x2e",
          "logIndex": "0x3f",
          "removed": false
        }
      ],
      "logsBloom": "0x00000000000000000000000000000000000000020000000000800000002000000000000020000000000000000000000000200000000000000002000000000000000000000000000000000000000000000001000000000000000000000000000000000000020000000000000000000800000000000000000100000000000000400000000000000000000000000000000000000000000000000000000000000000000000000000000000000000000000000000000000000000000000000000000000000000000000000000000000000000000000000000000000000000000020000000000000000000000000000000000000000000000000000000000000000000",
      "type": "0x2",
      "transactionHash": "0xf61b51c2c5bec0c4686374d8c7f1b43d546c540e2239e5047d13f75615524691",
      "transactionIndex": "0x2e",
      "blockHash": "0x5dc20ecd3a91d43ad2c35fd9591775d8b7880ba4846d5a067ba22c65ccca834a",
      "blockNumber": "0x9aaf5d",
      "gasUsed": "0xbffa5",
      "effectiveGasPrice": "0x3fa1bfb5",
      "from": "0x07dab64aa125b206d7fd6a81aab2133a0bdef863",
      "to": null,
      "contractAddress": "0xdc8a9208c3c07c14ccc31e9e52f4b570c0cc8f66"
    },
    {
      "status": "0x1",
      "cumulativeGasUsed": "0xef70b5",
      "logs": [
        {
          "address": "0x19b1cd853a9bf3c7c718f94065d61a98b377dbfe",
          "topics": [
            "0x8be0079c531659141344cd1fd0a4f28419497f9722a3daafe3b4186f6b6457e0",
            "0x0000000000000000000000000000000000000000000000000000000000000000",
            "0x00000000000000000000000007dab64aa125b206d7fd6a81aab2133a0bdef863"
          ],
          "data": "0x",
          "blockHash": "0x5dc20ecd3a91d43ad2c35fd9591775d8b7880ba4846d5a067ba22c65ccca834a",
          "blockNumber": "0x9aaf5d",
          "blockTimestamp": "0x697941a8",
          "transactionHash": "0xe13983ba99ad9c7c3e5914ba590bf008107bfb963dc1afb8c768431c1e636a24",
          "transactionIndex": "0x2f",
          "logIndex": "0x40",
          "removed": false
        }
      ],
      "logsBloom": "0x00000000000000000000000000000040000000000000000000800000002000000000000020000000000000000000000000200000000000000000000000000000000000000000000000000000008000000001000000000000000000000000000000000000020000000000000000000800000000000000000000000000000000400000000000000000000000000000000000000000000000000000000000000000000000000000000000000000000000000000000000000000000010000000000000000000000000000000000000000000000000000000000000000000000020000000000000000000000000000000000000000000000000000000000000000000",
      "type": "0x2",
      "transactionHash": "0xe13983ba99ad9c7c3e5914ba590bf008107bfb963dc1afb8c768431c1e636a24",
      "transactionIndex": "0x2f",
      "blockHash": "0x5dc20ecd3a91d43ad2c35fd9591775d8b7880ba4846d5a067ba22c65ccca834a",
      "blockNumber": "0x9aaf5d",
      "gasUsed": "0xbffa5",
      "effectiveGasPrice": "0x3fa1bfb5",
      "from": "0x07dab64aa125b206d7fd6a81aab2133a0bdef863",
      "to": null,
      "contractAddress": "0x19b1cd853a9bf3c7c718f94065d61a98b377dbfe"
    },
    {
      "status": "0x1",
      "cumulativeGasUsed": "0x1029ad3",
      "logs": [
        {
          "address": "0x21b096fc58212c325242cff850980086a5699817",
          "topics": [
            "0x8be0079c531659141344cd1fd0a4f28419497f9722a3daafe3b4186f6b6457e0",
            "0x0000000000000000000000000000000000000000000000000000000000000000",
            "0x00000000000000000000000007dab64aa125b206d7fd6a81aab2133a0bdef863"
          ],
          "data": "0x",
          "blockHash": "0x5dc20ecd3a91d43ad2c35fd9591775d8b7880ba4846d5a067ba22c65ccca834a",
          "blockNumber": "0x9aaf5d",
          "blockTimestamp": "0x697941a8",
          "transactionHash": "0xb5273a1c192cc8247901cb51fe786bbfc8b9ad397d3b5ea586ff1e5a0029a908",
          "transactionIndex": "0x30",
          "logIndex": "0x41",
          "removed": false
        }
      ],
      "logsBloom": "0x00000000000000000000000000000000000000000000000000800000002000000000000020000000000000000000000000200000000000000000000000000000000000000000000000000000000000000001020000000000000000000000000000000000020000000000000000000800000000000000000000000000000000400000000000000000000000000000000000000000000000000000000000000000000000000000000000000000000000000000000000000000000020000000000000000000000000000000000000000400000000000000000000000000000020000000000000000000000000000000000000000000000000000000000000000000",
      "type": "0x2",
      "transactionHash": "0xb5273a1c192cc8247901cb51fe786bbfc8b9ad397d3b5ea586ff1e5a0029a908",
      "transactionIndex": "0x30",
      "blockHash": "0x5dc20ecd3a91d43ad2c35fd9591775d8b7880ba4846d5a067ba22c65ccca834a",
      "blockNumber": "0x9aaf5d",
      "gasUsed": "0x132a1e",
      "effectiveGasPrice": "0x3fa1bfb5",
      "from": "0x07dab64aa125b206d7fd6a81aab2133a0bdef863",
      "to": null,
      "contractAddress": "0x21b096fc58212c325242cff850980086a5699817"
    },
    {
      "status": "0x1",
      "cumulativeGasUsed": "0x1035077",
      "logs": [],
      "logsBloom": "0x00000000000000000000000000000000000000000000000000000000000000000000000000000000000000000000000000000000000000000000000000000000000000000000000000000000000000000000000000000000000000000000000000000000000000000000000000000000000000000000000000000000000000000000000000000000000000000000000000000000000000000000000000000000000000000000000000000000000000000000000000000000000000000000000000000000000000000000000000000000000000000000000000000000000000000000000000000000000000000000000000000000000000000000000000000000",
      "type": "0x2",
      "transactionHash": "0xf88bdf28e252f3fa7ab8bd8c7d31763074cc9b122132c45cf5a3c394a19f5882",
      "transactionIndex": "0x31",
      "blockHash": "0x5dc20ecd3a91d43ad2c35fd9591775d8b7880ba4846d5a067ba22c65ccca834a",
      "blockNumber": "0x9aaf5d",
      "gasUsed": "0xb5a4",
      "effectiveGasPrice": "0x3fa1bfb5",
      "from": "0x07dab64aa125b206d7fd6a81aab2133a0bdef863",
      "to": "0x21b096fc58212c325242cff850980086a5699817",
      "contractAddress": null
    },
    {
      "status": "0x1",
      "cumulativeGasUsed": "0x1040633",
      "logs": [],
      "logsBloom": "0x00000000000000000000000000000000000000000000000000000000000000000000000000000000000000000000000000000000000000000000000000000000000000000000000000000000000000000000000000000000000000000000000000000000000000000000000000000000000000000000000000000000000000000000000000000000000000000000000000000000000000000000000000000000000000000000000000000000000000000000000000000000000000000000000000000000000000000000000000000000000000000000000000000000000000000000000000000000000000000000000000000000000000000000000000000000",
      "type": "0x2",
      "transactionHash": "0x4bc39c83a8b030c4d3a8b95c4fb5dc33b896015a0a608101f3850875456948c2",
      "transactionIndex": "0x32",
      "blockHash": "0x5dc20ecd3a91d43ad2c35fd9591775d8b7880ba4846d5a067ba22c65ccca834a",
      "blockNumber": "0x9aaf5d",
      "gasUsed": "0xb5bc",
      "effectiveGasPrice": "0x3fa1bfb5",
      "from": "0x07dab64aa125b206d7fd6a81aab2133a0bdef863",
      "to": "0x21b096fc58212c325242cff850980086a5699817",
      "contractAddress": null
    },
    {
      "status": "0x1",
      "cumulativeGasUsed": "0x104bbef",
      "logs": [],
      "logsBloom": "0x00000000000000000000000000000000000000000000000000000000000000000000000000000000000000000000000000000000000000000000000000000000000000000000000000000000000000000000000000000000000000000000000000000000000000000000000000000000000000000000000000000000000000000000000000000000000000000000000000000000000000000000000000000000000000000000000000000000000000000000000000000000000000000000000000000000000000000000000000000000000000000000000000000000000000000000000000000000000000000000000000000000000000000000000000000000",
      "type": "0x2",
      "transactionHash": "0xbb5a1a59f80fd21eb8c087023b580f9faf0057b58540b9c23356dba3f713700e",
      "transactionIndex": "0x33",
      "blockHash": "0x5dc20ecd3a91d43ad2c35fd9591775d8b7880ba4846d5a067ba22c65ccca834a",
      "blockNumber": "0x9aaf5d",
      "gasUsed": "0xb5bc",
      "effectiveGasPrice": "0x3fa1bfb5",
      "from": "0x07dab64aa125b206d7fd6a81aab2133a0bdef863",
      "to": "0x21b096fc58212c325242cff850980086a5699817",
      "contractAddress": null
    },
    {
      "status": "0x1",
      "cumulativeGasUsed": "0x10571ab",
      "logs": [],
      "logsBloom": "0x00000000000000000000000000000000000000000000000000000000000000000000000000000000000000000000000000000000000000000000000000000000000000000000000000000000000000000000000000000000000000000000000000000000000000000000000000000000000000000000000000000000000000000000000000000000000000000000000000000000000000000000000000000000000000000000000000000000000000000000000000000000000000000000000000000000000000000000000000000000000000000000000000000000000000000000000000000000000000000000000000000000000000000000000000000000",
      "type": "0x2",
      "transactionHash": "0x373518e48f309276b45aee3866184703317d11241f6a2f4879a369c036967fec",
      "transactionIndex": "0x34",
      "blockHash": "0x5dc20ecd3a91d43ad2c35fd9591775d8b7880ba4846d5a067ba22c65ccca834a",
      "blockNumber": "0x9aaf5d",
      "gasUsed": "0xb5bc",
      "effectiveGasPrice": "0x3fa1bfb5",
      "from": "0x07dab64aa125b206d7fd6a81aab2133a0bdef863",
      "to": "0x21b096fc58212c325242cff850980086a5699817",
      "contractAddress": null
    },
    {
      "status": "0x1",
      "cumulativeGasUsed": "0x1062541",
      "logs": [
        {
          "address": "0x7f45b29cd366a81763f9198afa6eab605f6581d1",
          "topics": [
            "0x8c5be1e5ebec7d5bd14f71427d1e84f3dd0314c0f7b2291e5b200ac8c7c3b925",
            "0x00000000000000000000000007dab64aa125b206d7fd6a81aab2133a0bdef863",
            "0x0000000000000000000000004d91a73ed104a851c9004e4f40312b90f50014c7"
          ],
          "data": "0x00000000000000000000000000000000000000000000152d02c7e14af6800000",
          "blockHash": "0x5dc20ecd3a91d43ad2c35fd9591775d8b7880ba4846d5a067ba22c65ccca834a",
          "blockNumber": "0x9aaf5d",
          "blockTimestamp": "0x697941a8",
          "transactionHash": "0xaa7e0dbb66bb69d8ea3d15e6ac6943b6b6e084176d73a878a6687c20c17699fa",
          "transactionIndex": "0x35",
          "logIndex": "0x42",
          "removed": false
        }
      ],
      "logsBloom": "0x00000000000000000000000000000000000000000000000000000000002000000000000020000000000000000000000000200000004000040000000000200000000000000000000000000000000000000000000000000000000000000000100000000000000000000000000000000000000000000000000000000000000000000000000000000000000000080000000000000000040000000000000000000000020000000000000000000800000000000000000000000000000000000000000000000000000000000000000000000000000000000000000000000000000000000010000000000000000000000000000000000000000000000000000000000000",
      "type": "0x2",
      "transactionHash": "0xaa7e0dbb66bb69d8ea3d15e6ac6943b6b6e084176d73a878a6687c20c17699fa",
      "transactionIndex": "0x35",
      "blockHash": "0x5dc20ecd3a91d43ad2c35fd9591775d8b7880ba4846d5a067ba22c65ccca834a",
      "blockNumber": "0x9aaf5d",
      "gasUsed": "0xb396",
      "effectiveGasPrice": "0x3fa1bfb5",
      "from": "0x07dab64aa125b206d7fd6a81aab2133a0bdef863",
      "to": "0x7f45b29cd366a81763f9198afa6eab605f6581d1",
      "contractAddress": null
    },
    {
      "status": "0x1",
      "cumulativeGasUsed": "0x10813f4",
      "logs": [
        {
          "address": "0x7f45b29cd366a81763f9198afa6eab605f6581d1",
          "topics": [
            "0xddf252ad1be2c89b69c2b068fc378daa952ba7f163c4a11628f55a4df523b3ef",
            "0x00000000000000000000000007dab64aa125b206d7fd6a81aab2133a0bdef863",
            "0x0000000000000000000000004d91a73ed104a851c9004e4f40312b90f50014c7"
          ],
          "data": "0x00000000000000000000000000000000000000000000152d02c7e14af6800000",
          "blockHash": "0x5dc20ecd3a91d43ad2c35fd9591775d8b7880ba4846d5a067ba22c65ccca834a",
          "blockNumber": "0x9aaf5d",
          "blockTimestamp": "0x697941a8",
          "transactionHash": "0x550de975b7cbff253348579fc5c54285fbe4078965781df34e02888aee07cdd8",
          "transactionIndex": "0x36",
          "logIndex": "0x43",
          "removed": false
        },
        {
          "address": "0x4d91a73ed104a851c9004e4f40312b90f50014c7",
          "topics": [
            "0xe1fffcc4923d04b559f4d29a8bfc6cda04eb5b0d3c460751c2402c5c5cc9109c",
            "0x00000000000000000000000007dab64aa125b206d7fd6a81aab2133a0bdef863"
          ],
          "data": "0x00000000000000000000000000000000000000000000152d02c7e14af6800000",
          "blockHash": "0x5dc20ecd3a91d43ad2c35fd9591775d8b7880ba4846d5a067ba22c65ccca834a",
          "blockNumber": "0x9aaf5d",
          "blockTimestamp": "0x697941a8",
          "transactionHash": "0x550de975b7cbff253348579fc5c54285fbe4078965781df34e02888aee07cdd8",
          "transactionIndex": "0x36",
          "logIndex": "0x44",
          "removed": false
        },
        {
          "address": "0x4d91a73ed104a851c9004e4f40312b90f50014c7",
          "topics": [
            "0x9a06c6ce5c54977df4fd88e6bb8c37e5ef9015e953a1c4713e91c1093fb51442",
            "0x0000000000000000000000000000000000000000000000000000000000aa36a7"
          ],
          "data": "0x00000000000000000000000000000000000000000000152d02c7e14af6800000",
          "blockHash": "0x5dc20ecd3a91d43ad2c35fd9591775d8b7880ba4846d5a067ba22c65ccca834a",
          "blockNumber": "0x9aaf5d",
          "blockTimestamp": "0x697941a8",
          "transactionHash": "0x550de975b7cbff253348579fc5c54285fbe4078965781df34e02888aee07cdd8",
          "transactionIndex": "0x36",
          "logIndex": "0x45",
          "removed": false
        }
      ],
      "logsBloom": "0x00000000000000000000000000000000000000000000000000000000012000000000000020000000000000000000000002200000004000040000000000000000000000000000000000000008000000000000000000000000000200008000100000000000000000000000000000000000000000000000000000000010000000000000000000000000000040080000000000000001040000000000000000000000000000000000000000000a00000000000000000000000000000000000200000000000002000000000000000000000000100020000000000000000000000000000000000000000000000000000000000000800000000000400000000000000000",
      "type": "0x2",
      "transactionHash": "0x550de975b7cbff253348579fc5c54285fbe4078965781df34e02888aee07cdd8",
      "transactionIndex": "0x36",
      "blockHash": "0x5dc20ecd3a91d43ad2c35fd9591775d8b7880ba4846d5a067ba22c65ccca834a",
      "blockNumber": "0x9aaf5d",
      "gasUsed": "0x1eeb3",
      "effectiveGasPrice": "0x3fa1bfb5",
      "from": "0x07dab64aa125b206d7fd6a81aab2133a0bdef863",
      "to": "0x4d91a73ed104a851c9004e4f40312b90f50014c7",
      "contractAddress": null
    },
    {
      "status": "0x1",
      "cumulativeGasUsed": "0x108c7a2",
      "logs": [
        {
          "address": "0x3da27031278c1356ca3ebcc458e9427c8ab07ee3",
          "topics": [
            "0x8c5be1e5ebec7d5bd14f71427d1e84f3dd0314c0f7b2291e5b200ac8c7c3b925",
            "0x00000000000000000000000007dab64aa125b206d7fd6a81aab2133a0bdef863",
            "0x00000000000000000000000085f0b83fa95cd479d5ac84103cf46a36391f7bc5"
          ],
          "data": "0x00000000000000000000000000000000000000000000152d02c7e14af6800000",
          "blockHash": "0x5dc20ecd3a91d43ad2c35fd9591775d8b7880ba4846d5a067ba22c65ccca834a",
          "blockNumber": "0x9aaf5d",
          "blockTimestamp": "0x697941a8",
          "transactionHash": "0x63cd5de2051b6deba411975535fa75e874787d0d74aa46fa066068ac2b5424e2",
          "transactionIndex": "0x37",
          "logIndex": "0x46",
          "removed": false
        }
      ],
      "logsBloom": "0x00000000000000000000000000000000000010000000000000000000002000000000000020000000000000000000000000200000000000000100000000200000000000000000000000000000000000000000000000000000000000000000000000000000000000000000000000000000000000000000000000000000000000000000000000000000000000000000000000000000000000000000000000000000020000000000000000000000000000000000000000000000000000000000000000000000000000000000000000000000000000000000000000000000000000000010000010000001000000000000000000000000400000000000000001000000",
      "type": "0x2",
      "transactionHash": "0x63cd5de2051b6deba411975535fa75e874787d0d74aa46fa066068ac2b5424e2",
      "transactionIndex": "0x37",
      "blockHash": "0x5dc20ecd3a91d43ad2c35fd9591775d8b7880ba4846d5a067ba22c65ccca834a",
      "blockNumber": "0x9aaf5d",
      "gasUsed": "0xb3ae",
      "effectiveGasPrice": "0x3fa1bfb5",
      "from": "0x07dab64aa125b206d7fd6a81aab2133a0bdef863",
      "to": "0x3da27031278c1356ca3ebcc458e9427c8ab07ee3",
      "contractAddress": null
    },
    {
      "status": "0x1",
      "cumulativeGasUsed": "0x401e36",
      "logs": [
        {
          "address": "0x3da27031278c1356ca3ebcc458e9427c8ab07ee3",
          "topics": [
            "0xddf252ad1be2c89b69c2b068fc378daa952ba7f163c4a11628f55a4df523b3ef",
            "0x00000000000000000000000007dab64aa125b206d7fd6a81aab2133a0bdef863",
            "0x00000000000000000000000085f0b83fa95cd479d5ac84103cf46a36391f7bc5"
          ],
          "data": "0x00000000000000000000000000000000000000000000152d02c7e14af6800000",
          "blockHash": "0x8894a9c4f343c00a618b6e45fec0862195af0ed174a91fd647e4f8a0c96e0686",
          "blockNumber": "0x9aaf5f",
          "blockTimestamp": "0x697941cc",
          "transactionHash": "0xa3e36c65c9f35f3006d1fb12febee4591eac29168a833a4f81ed10779f23b4da",
          "transactionIndex": "0x1e",
          "logIndex": "0x37",
          "removed": false
        },
        {
          "address": "0x85f0b83fa95cd479d5ac84103cf46a36391f7bc5",
          "topics": [
            "0xe1fffcc4923d04b559f4d29a8bfc6cda04eb5b0d3c460751c2402c5c5cc9109c",
            "0x00000000000000000000000007dab64aa125b206d7fd6a81aab2133a0bdef863"
          ],
          "data": "0x00000000000000000000000000000000000000000000152d02c7e14af6800000",
          "blockHash": "0x8894a9c4f343c00a618b6e45fec0862195af0ed174a91fd647e4f8a0c96e0686",
          "blockNumber": "0x9aaf5f",
          "blockTimestamp": "0x697941cc",
          "transactionHash": "0xa3e36c65c9f35f3006d1fb12febee4591eac29168a833a4f81ed10779f23b4da",
          "transactionIndex": "0x1e",
          "logIndex": "0x38",
          "removed": false
        },
        {
          "address": "0x85f0b83fa95cd479d5ac84103cf46a36391f7bc5",
          "topics": [
            "0x9a06c6ce5c54977df4fd88e6bb8c37e5ef9015e953a1c4713e91c1093fb51442",
            "0x0000000000000000000000000000000000000000000000000000000000aa36a7"
          ],
          "data": "0x00000000000000000000000000000000000000000000152d02c7e14af6800000",
          "blockHash": "0x8894a9c4f343c00a618b6e45fec0862195af0ed174a91fd647e4f8a0c96e0686",
          "blockNumber": "0x9aaf5f",
          "blockTimestamp": "0x697941cc",
          "transactionHash": "0xa3e36c65c9f35f3006d1fb12febee4591eac29168a833a4f81ed10779f23b4da",
          "transactionIndex": "0x1e",
          "logIndex": "0x39",
          "removed": false
        }
      ],
      "logsBloom": "0x00000000000000000000000000000000000010000000000000000000012000000000000020000000000000000000000002200000000000000100000000000000000000000000000000000008000000000000000000000000000000008000000000000000000000000000000000000000000000000000000000000010000000000000000000000000000040000000000000002001000000000000000000000000000000000000000000000000000000000000000000000000000000000200000000000002000000000000000000000000100020000000000000000000000000000000000010000001000000000000000002000000500000400000000001000000",
      "type": "0x2",
      "transactionHash": "0xa3e36c65c9f35f3006d1fb12febee4591eac29168a833a4f81ed10779f23b4da",
      "transactionIndex": "0x1e",
      "blockHash": "0x8894a9c4f343c00a618b6e45fec0862195af0ed174a91fd647e4f8a0c96e0686",
      "blockNumber": "0x9aaf5f",
      "gasUsed": "0x1f9a3",
      "effectiveGasPrice": "0x43e40b0a",
      "from": "0x07dab64aa125b206d7fd6a81aab2133a0bdef863",
      "to": "0x85f0b83fa95cd479d5ac84103cf46a36391f7bc5",
      "contractAddress": null
    },
    {
      "status": "0x1",
      "cumulativeGasUsed": "0x40d1e4",
      "logs": [
        {
          "address": "0x5bd7a4cc7024e9f628fcaeb45b2018ab19c90c14",
          "topics": [
            "0x8c5be1e5ebec7d5bd14f71427d1e84f3dd0314c0f7b2291e5b200ac8c7c3b925",
            "0x00000000000000000000000007dab64aa125b206d7fd6a81aab2133a0bdef863",
            "0x000000000000000000000000dc8a9208c3c07c14ccc31e9e52f4b570c0cc8f66"
          ],
          "data": "0x00000000000000000000000000000000000000000000152d02c7e14af6800000",
          "blockHash": "0x8894a9c4f343c00a618b6e45fec0862195af0ed174a91fd647e4f8a0c96e0686",
          "blockNumber": "0x9aaf5f",
          "blockTimestamp": "0x697941cc",
          "transactionHash": "0x69687b3c8f55da49c480eb39c46db7116733f38ce62e62ab24dac82b7125a997",
          "transactionIndex": "0x1f",
          "logIndex": "0x3a",
          "removed": false
        }
      ],
      "logsBloom": "0x00000000000000000000000000000000000000000000000000000000002000000000000020000000000000000000000000200000000000000000000000200000000000000000000000000000002000000000000000000000001000000000000000000000000000000000000000000000000000000000000000400000000000000000000000000000000000000000000000000000000000000000000000000000020000000000000000000000000000000000000000000000000000000000000000000000000200008000000000000000000000000000000000000000000000000010000000000000000000000000000000000000000000000000008000000000",
      "type": "0x2",
      "transactionHash": "0x69687b3c8f55da49c480eb39c46db7116733f38ce62e62ab24dac82b7125a997",
      "transactionIndex": "0x1f",
      "blockHash": "0x8894a9c4f343c00a618b6e45fec0862195af0ed174a91fd647e4f8a0c96e0686",
      "blockNumber": "0x9aaf5f",
      "gasUsed": "0xb3ae",
      "effectiveGasPrice": "0x43e40b0a",
      "from": "0x07dab64aa125b206d7fd6a81aab2133a0bdef863",
      "to": "0x5bd7a4cc7024e9f628fcaeb45b2018ab19c90c14",
      "contractAddress": null
    },
    {
      "status": "0x1",
      "cumulativeGasUsed": "0x42cb87",
      "logs": [
        {
          "address": "0x5bd7a4cc7024e9f628fcaeb45b2018ab19c90c14",
          "topics": [
            "0xddf252ad1be2c89b69c2b068fc378daa952ba7f163c4a11628f55a4df523b3ef",
            "0x00000000000000000000000007dab64aa125b206d7fd6a81aab2133a0bdef863",
            "0x000000000000000000000000dc8a9208c3c07c14ccc31e9e52f4b570c0cc8f66"
          ],
          "data": "0x00000000000000000000000000000000000000000000152d02c7e14af6800000",
          "blockHash": "0x8894a9c4f343c00a618b6e45fec0862195af0ed174a91fd647e4f8a0c96e0686",
          "blockNumber": "0x9aaf5f",
          "blockTimestamp": "0x697941cc",
          "transactionHash": "0xaf21d14320bc3f2b94db77273686f73c96c1af99c5e9c4b882b6f39febf58133",
          "transactionIndex": "0x20",
          "logIndex": "0x3b",
          "removed": false
        },
        {
          "address": "0xdc8a9208c3c07c14ccc31e9e52f4b570c0cc8f66",
          "topics": [
            "0xe1fffcc4923d04b559f4d29a8bfc6cda04eb5b0d3c460751c2402c5c5cc9109c",
            "0x00000000000000000000000007dab64aa125b206d7fd6a81aab2133a0bdef863"
          ],
          "data": "0x00000000000000000000000000000000000000000000152d02c7e14af6800000",
          "blockHash": "0x8894a9c4f343c00a618b6e45fec0862195af0ed174a91fd647e4f8a0c96e0686",
          "blockNumber": "0x9aaf5f",
          "blockTimestamp": "0x697941cc",
          "transactionHash": "0xaf21d14320bc3f2b94db77273686f73c96c1af99c5e9c4b882b6f39febf58133",
          "transactionIndex": "0x20",
          "logIndex": "0x3c",
          "removed": false
        },
        {
          "address": "0xdc8a9208c3c07c14ccc31e9e52f4b570c0cc8f66",
          "topics": [
            "0x9a06c6ce5c54977df4fd88e6bb8c37e5ef9015e953a1c4713e91c1093fb51442",
            "0x0000000000000000000000000000000000000000000000000000000000aa36a7"
          ],
          "data": "0x00000000000000000000000000000000000000000000152d02c7e14af6800000",
          "blockHash": "0x8894a9c4f343c00a618b6e45fec0862195af0ed174a91fd647e4f8a0c96e0686",
          "blockNumber": "0x9aaf5f",
          "blockTimestamp": "0x697941cc",
          "transactionHash": "0xaf21d14320bc3f2b94db77273686f73c96c1af99c5e9c4b882b6f39febf58133",
          "transactionIndex": "0x20",
          "logIndex": "0x3d",
          "removed": false
        }
      ],
      "logsBloom": "0x00000000000000000000000000000000000000020000000000000000012000000000000020000000000000000000000002200000000000000002000000000000000000000000000000000008002000000000000000000000001000008000000000000000000000000000000000000000000000000000000100400010000000000000000000000000000040000000000000000001000000000000000000000000000000000000000000000000000000000000000000000000000000000200000000000002000200008000000000000000100020000000000000000000000000000000000000000000000000000000000000000000000000400000008000000000",
      "type": "0x2",
      "transactionHash": "0xaf21d14320bc3f2b94db77273686f73c96c1af99c5e9c4b882b6f39febf58133",
      "transactionIndex": "0x20",
      "blockHash": "0x8894a9c4f343c00a618b6e45fec0862195af0ed174a91fd647e4f8a0c96e0686",
      "blockNumber": "0x9aaf5f",
      "gasUsed": "0x1f9a3",
      "effectiveGasPrice": "0x43e40b0a",
      "from": "0x07dab64aa125b206d7fd6a81aab2133a0bdef863",
      "to": "0xdc8a9208c3c07c14ccc31e9e52f4b570c0cc8f66",
      "contractAddress": null
    },
    {
      "status": "0x1",
      "cumulativeGasUsed": "0x437f35",
      "logs": [
        {
          "address": "0x21a1df35611a06db25e5b7be8007d8201e910c2d",
          "topics": [
            "0x8c5be1e5ebec7d5bd14f71427d1e84f3dd0314c0f7b2291e5b200ac8c7c3b925",
            "0x00000000000000000000000007dab64aa125b206d7fd6a81aab2133a0bdef863",
            "0x00000000000000000000000019b1cd853a9bf3c7c718f94065d61a98b377dbfe"
          ],
          "data": "0x00000000000000000000000000000000000000000000152d02c7e14af6800000",
          "blockHash": "0x8894a9c4f343c00a618b6e45fec0862195af0ed174a91fd647e4f8a0c96e0686",
          "blockNumber": "0x9aaf5f",
          "blockTimestamp": "0x697941cc",
          "transactionHash": "0xd5cb3e4786f2b74d29db489138873c71b0f64d56a325322250b3cccf25301d82",
          "transactionIndex": "0x21",
          "logIndex": "0x3e",
          "removed": false
        }
      ],
      "logsBloom": "0x00000000000000000000000000000000000000000000000000000000002000000000000020000000000010000000000000200000000000000000000020200000000000000000000000000002000000000000000000000000000000000000000000000000000000000000001000000000000000000000000000000000000000000000000000000000080000000000000000000000000000000000000000000000020000000000000000000002000000000000000000000000000000000000000000000000000000000000000000000000000000000000000000000000000000000010000000000000000000000000000000000000000000000000000000000000",
      "type": "0x2",
      "transactionHash": "0xd5cb3e4786f2b74d29db489138873c71b0f64d56a325322250b3cccf25301d82",
      "transactionIndex": "0x21",
      "blockHash": "0x8894a9c4f343c00a618b6e45fec0862195af0ed174a91fd647e4f8a0c96e0686",
      "blockNumber": "0x9aaf5f",
      "gasUsed": "0xb3ae",
      "effectiveGasPrice": "0x43e40b0a",
      "from": "0x07dab64aa125b206d7fd6a81aab2133a0bdef863",
      "to": "0x21a1df35611a06db25e5b7be8007d8201e910c2d",
      "contractAddress": null
    },
    {
      "status": "0x1",
      "cumulativeGasUsed": "0x4578d8",
      "logs": [
        {
          "address": "0x21a1df35611a06db25e5b7be8007d8201e910c2d",
          "topics": [
            "0xddf252ad1be2c89b69c2b068fc378daa952ba7f163c4a11628f55a4df523b3ef",
            "0x00000000000000000000000007dab64aa125b206d7fd6a81aab2133a0bdef863",
            "0x00000000000000000000000019b1cd853a9bf3c7c718f94065d61a98b377dbfe"
          ],
          "data": "0x00000000000000000000000000000000000000000000152d02c7e14af6800000",
          "blockHash": "0x8894a9c4f343c00a618b6e45fec0862195af0ed174a91fd647e4f8a0c96e0686",
          "blockNumber": "0x9aaf5f",
          "blockTimestamp": "0x697941cc",
          "transactionHash": "0x8b9308e496300148a9ef6e866fbc4e2fa39241cd6cd4a906c6128ace222934fe",
          "transactionIndex": "0x22",
          "logIndex": "0x3f",
          "removed": false
        },
        {
          "address": "0x19b1cd853a9bf3c7c718f94065d61a98b377dbfe",
          "topics": [
            "0xe1fffcc4923d04b559f4d29a8bfc6cda04eb5b0d3c460751c2402c5c5cc9109c",
            "0x00000000000000000000000007dab64aa125b206d7fd6a81aab2133a0bdef863"
          ],
          "data": "0x00000000000000000000000000000000000000000000152d02c7e14af6800000",
          "blockHash": "0x8894a9c4f343c00a618b6e45fec0862195af0ed174a91fd647e4f8a0c96e0686",
          "blockNumber": "0x9aaf5f",
          "blockTimestamp": "0x697941cc",
          "transactionHash": "0x8b9308e496300148a9ef6e866fbc4e2fa39241cd6cd4a906c6128ace222934fe",
          "transactionIndex": "0x22",
          "logIndex": "0x40",
          "removed": false
        },
        {
          "address": "0x19b1cd853a9bf3c7c718f94065d61a98b377dbfe",
          "topics": [
            "0x9a06c6ce5c54977df4fd88e6bb8c37e5ef9015e953a1c4713e91c1093fb51442",
            "0x0000000000000000000000000000000000000000000000000000000000aa36a7"
          ],
          "data": "0x00000000000000000000000000000000000000000000152d02c7e14af6800000",
          "blockHash": "0x8894a9c4f343c00a618b6e45fec0862195af0ed174a91fd647e4f8a0c96e0686",
          "blockNumber": "0x9aaf5f",
          "blockTimestamp": "0x697941cc",
          "transactionHash": "0x8b9308e496300148a9ef6e866fbc4e2fa39241cd6cd4a906c6128ace222934fe",
          "transactionIndex": "0x22",
          "logIndex": "0x41",
          "removed": false
        }
      ],
      "logsBloom": "0x0000000000000000000000000000004000000000000000000000000001200000000000002000000000001000000000000220000000000000000000002000000000000000000000000000000a008000000000000000000000000000008000000000000000000000000000001000000000000000000000000000000010000000000000000000000000080040000000000000000001000000000000000000000000000000000000000000000002000000000000000000000000000010000200000000000002000000000000000000000000100020000000000000000000000000000000000000000000000000000000000000000000000000400000000000000000",
      "type": "0x2",
      "transactionHash": "0x8b9308e496300148a9ef6e866fbc4e2fa39241cd6cd4a906c6128ace222934fe",
      "transactionIndex": "0x22",
      "blockHash": "0x8894a9c4f343c00a618b6e45fec0862195af0ed174a91fd647e4f8a0c96e0686",
      "blockNumber": "0x9aaf5f",
      "gasUsed": "0x1f9a3",
      "effectiveGasPrice": "0x43e40b0a",
      "from": "0x07dab64aa125b206d7fd6a81aab2133a0bdef863",
      "to": "0x19b1cd853a9bf3c7c718f94065d61a98b377dbfe",
      "contractAddress": null
    }
  ],
  "libraries": [],
  "pending": [],
  "returns": {},
  "timestamp": 1769554382286,
  "chain": 11155111,
  "commit": null
}