{
  "transactions": [
    {
      "hash": "0x148d2a71a5f156ed3401fb1e70473cc8b3e32911b60e9c35c3a4fcdf14beca30",
      "transactionType": "CALL",
      "contractName": null,
      "contractAddress": "0x30f166a8a0c108d32a6dee5d856877a372a6b2fa",
      "function": "updatePrices(bytes32[],(int64,uint64,int32,uint256)[])",
      "arguments": [
        "[0x396a969a9c1480fa15ed50bc59149e2c0075a72fe8f458ed941ddec48bdb4918, 0x2b89b9dc8fdf9f34709a5b106b472f0f39bb6ca9ce04b0fd7f2e971688e2e53b]",
        "[(79000000, 5000, -8, 1769566596), (99868820, 83088, -8, 1769566596)]"
      ],
      "transaction": {
        "from": "0x07dab64aa125b206d7fd6a81aab2133a0bdef863",
        "to": "0x30f166a8a0c108d32a6dee5d856877a372a6b2fa",
        "gas": "0xf51c",
        "value": "0x0",
        "input": "0x419781ae000000000000000000000000000000000000000000000000000000000000004000000000000000000000000000000000000000000000000000000000000000a00000000000000000000000000000000000000000000000000000000000000002396a969a9c1480fa15ed50bc59149e2c0075a72fe8f458ed941ddec48bdb49182b89b9dc8fdf9f34709a5b106b472f0f39bb6ca9ce04b0fd7f2e971688e2e53b00000000000000000000000000000000000000000000000000000000000000020000000000000000000000000000000000000000000000000000000004b571c00000000000000000000000000000000000000000000000000000000000001388fffffffffffffffffffffffffffffffffffffffffffffffffffffffffffffff800000000000000000000000000000000000000000000000000000000697971840000000000000000000000000000000000000000000000000000000005f3e0940000000000000000000000000000000000000000000000000000000000014490fffffffffffffffffffffffffffffffffffffffffffffffffffffffffffffff80000000000000000000000000000000000000000000000000000000069797184",
        "nonce": "0x1ab",
        "chainId": "0xaa36a7"
      },
      "additionalContracts": [],
      "isFixedGasLimit": false
    },
    {
      "hash": "0x140e9d881d5910aa7629d9d3d4a40495f7b69077feb91ebfb4f91da05ef8262a",
      "transactionType": "CALL",
      "contractName": null,
      "contractAddress": "0x4b198d1285152b5f8bcbc5e4156d30717b16275e",
      "function": "approve(address,uint256)",
      "arguments": [
        "0x30F166A8a0c108d32a6DeE5d856877A372A6b2fa",
        "50000000000000000000"
      ],
      "transaction": {
        "from": "0x07dab64aa125b206d7fd6a81aab2133a0bdef863",
        "to": "0x4b198d1285152b5f8bcbc5e4156d30717b16275e",
        "gas": "0x8cbe",
        "value": "0x0",
        "input": "0x095ea7b300000000000000000000000030f166a8a0c108d32a6dee5d856877a372a6b2fa000000000000000000000000000000000000000000000002b5e3af16b1880000",
        "nonce": "0x1ac",
        "chainId": "0xaa36a7"
      },
      "additionalContracts": [],
      "isFixedGasLimit": false
    },
    {
      "hash": "0xface7dcac4289a5262f80e6fa6a8883ddb75079610d7a9b08205819a5828a550",
      "transactionType": "CALL",
      "contractName": null,
      "contractAddress": "0x30f166a8a0c108d32a6dee5d856877a372a6b2fa",
      "function": "swap((address,address,uint256,uint256,bytes))",
      "arguments": [
        "(0x4B198D1285152B5f8BCbC5e4156D30717B16275e, 0x8c6870dBF36bEbF4c7734C35D6b2DD5AeCe9b385, 50000000000000000000, 0, 0x)"
      ],
      "transaction": {
        "from": "0x07dab64aa125b206d7fd6a81aab2133a0bdef863",
        "to": "0x30f166a8a0c108d32a6dee5d856877a372a6b2fa",
        "gas": "0x32af7",
        "value": "0x0",
        "input": "0x7f46babe00000000000000000000000000000000000000000000000000000000000000200000000000000000000000004b198d1285152b5f8bcbc5e4156d30717b16275e0000000000000000000000008c6870dbf36bebf4c7734c35d6b2dd5aece9b385000000000000000000000000000000000000000000000002b5e3af16b1880000000000000000000000000000000000000000000000000000000000000000000000000000000000000000000000000000000000000000000000000000000000a00000000000000000000000000000000000000000000000000000000000000000",
        "nonce": "0x1ad",
        "chainId": "0xaa36a7"
      },
      "additionalContracts": [],
      "isFixedGasLimit": false
    },
    {
      "hash": "0xbd2547a078fb53ecdd19f473516cee2237ad5263afd93ea77e5b3484da196ace",
      "transactionType": "CALL",
      "contractName": null,
      "contractAddress": "0x4b198d1285152b5f8bcbc5e4156d30717b16275e",
      "function": "approve(address,uint256)",
      "arguments": [
        "0x965cCD245Eb8683BDC3202b1A1C87515774b833a",
        "30000000000000000000"
      ],
      "transaction": {
        "from": "0x07dab64aa125b206d7fd6a81aab2133a0bdef863",
        "to": "0x4b198d1285152b5f8bcbc5e4156d30717b16275e",
        "gas": "0x106b6",
        "value": "0x0",
        "input": "0x095ea7b3000000000000000000000000965ccd245eb8683bdc3202b1a1c87515774b833a000000000000000000000000000000000000000000000001a055690d9db80000",
        "nonce": "0x1ae",
        "chainId": "0xaa36a7"
      },
      "additionalContracts": [],
      "isFixedGasLimit": false
    },
    {
      "hash": "0xdd2f5c3956db7f96eb7a59a9fa9787dde1a9bd585c0d8e52e07570dde21203c3",
      "transactionType": "CALL",
      "contractName": null,
      "contractAddress": "0x965ccd245eb8683bdc3202b1a1c87515774b833a",
      "function": "deposit(uint256)",
      "arguments": [
        "30000000000000000000"
      ],
      "transaction": {
        "from": "0x07dab64aa125b206d7fd6a81aab2133a0bdef863",
        "to": "0x965ccd245eb8683bdc3202b1a1c87515774b833a",
        "gas": "0x13a0d",
        "value": "0x0",
        "input": "0xb6b55f25000000000000000000000000000000000000000000000001a055690d9db80000",
        "nonce": "0x1af",
        "chainId": "0xaa36a7"
      },
      "additionalContracts": [],
      "isFixedGasLimit": false
    },
    {
      "hash": "0x2142b1abb3b6d0b0bb997cd6a5e5119c6a5fe2aec3e822e8ea13bd24d545bfee",
      "transactionType": "CALL",
      "contractName": null,
      "contractAddress": "0x965ccd245eb8683bdc3202b1a1c87515774b833a",
      "function": "lockForCrossChain(uint64,uint256)",
      "arguments": [
        "421614",
        "30000000000000000000"
      ],
      "transaction": {
        "from": "0x07dab64aa125b206d7fd6a81aab2133a0bdef863",
        "to": "0x965ccd245eb8683bdc3202b1a1c87515774b833a",
        "gas": "0xf5fd",
        "value": "0x0",
        "input": "0x9d83dddf0000000000000000000000000000000000000000000000000000000000066eee000000000000000000000000000000000000000000000001a055690d9db80000",
        "nonce": "0x1b0",
        "chainId": "0xaa36a7"
      },
      "additionalContracts": [],
      "isFixedGasLimit": false
    },
    {
      "hash": "0xfc10373e68943104ea00aff10cbf9f337332b0ae8d676ac42fd36f9ed64fec0f",
      "transactionType": "CALL",
      "contractName": null,
      "contractAddress": "0x8c6870dbf36bebf4c7734c35d6b2dd5aece9b385",
      "function": "approve(address,uint256)",
      "arguments": [
        "0x2c71Ac4C6F5Fdb38B422c85D15121859171C5fD6",
        "20000000000000000000"
      ],
      "transaction": {
        "from": "0x07dab64aa125b206d7fd6a81aab2133a0bdef863",
        "to": "0x8c6870dbf36bebf4c7734c35d6b2dd5aece9b385",
        "gas": "0x106b6",
        "value": "0x0",
        "input": "0x095ea7b30000000000000000000000002c71ac4c6f5fdb38b422c85d15121859171c5fd6000000000000000000000000000000000000000000000001158e460913d00000",
        "nonce": "0x1b1",
        "chainId": "0xaa36a7"
      },
      "additionalContracts": [],
      "isFixedGasLimit": false
    },
    {
      "hash": "0x46234f7c21b1712fd8ab9d3d475f204241f312d403049d5e3f2aa8a075d00edc",
      "transactionType": "CALL",
      "contractName": null,
      "contractAddress": "0x2c71ac4c6f5fdb38b422c85d15121859171c5fd6",
      "function": "deposit(uint256)",
      "arguments": [
        "20000000000000000000"
      ],
      "transaction": {
        "from": "0x07dab64aa125b206d7fd6a81aab2133a0bdef863",
        "to": "0x2c71ac4c6f5fdb38b422c85d15121859171c5fd6",
        "gas": "0x1ae38",
        "value": "0x0",
        "input": "0xb6b55f25000000000000000000000000000000000000000000000001158e460913d00000",
        "nonce": "0x1b2",
        "chainId": "0xaa36a7"
      },
      "additionalContracts": [],
      "isFixedGasLimit": false
    },
    {
      "hash": "0xbc2c181099d888236e3729d75bc6a3c257d49ca0a05c36a448134724cac5d7fd",
      "transactionType": "CALL",
      "contractName": null,
      "contractAddress": "0x2c71ac4c6f5fdb38b422c85d15121859171c5fd6",
      "function": "lockForCrossChain(uint64,uint256)",
      "arguments": [
        "421614",
        "20000000000000000000"
      ],
      "transaction": {
        "from": "0x07dab64aa125b206d7fd6a81aab2133a0bdef863",
        "to": "0x2c71ac4c6f5fdb38b422c85d15121859171c5fd6",
        "gas": "0xda91",
        "value": "0x0",
        "input": "0x9d83dddf0000000000000000000000000000000000000000000000000000000000066eee000000000000000000000000000000000000000000000001158e460913d00000",
        "nonce": "0x1b3",
        "chainId": "0xaa36a7"
      },
      "additionalContracts": [],
      "isFixedGasLimit": false
    }
  ],
  "receipts": [
    {
      "status": "0x1",
      "cumulativeGasUsed": "0xc80b3d",
      "logs": [],
      "logsBloom": "0x00000000000000000000000000000000000000000000000000000000000000000000000000000000000000000000000000000000000000000000000000000000000000000000000000000000000000000000000000000000000000000000000000000000000000000000000000000000000000000000000000000000000000000000000000000000000000000000000000000000000000000000000000000000000000000000000000000000000000000000000000000000000000000000000000000000000000000000000000000000000000000000000000000000000000000000000000000000000000000000000000000000000000000000000000000000",
      "type": "0x2",
      "transactionHash": "0x140e9d881d5910aa7629d9d3d4a40495f7b69077feb91ebfb4f91da05ef8262a",
      "transactionIndex": "0x31",
      "blockHash": "0x81c8e9350f7a9babe7504247e58c9b585b2da469ad5ae3dc7e544249159444f6",
      "blockNumber": "0x9ab342",
      "gasUsed": "0xa799",
      "effectiveGasPrice": "0x3c637b87",
      "from": "0x07dab64aa125b206d7fd6a81aab2133a0bdef863",
      "to": "0x30f166a8a0c108d32a6dee5d856877a372a6b2fa",
      "contractAddress": null
    },
    {
      "status": "0x1",
      "cumulativeGasUsed": "0xc87123",
      "logs": [
        {
          "address": "0x4b198d1285152b5f8bcbc5e4156d30717b16275e",
          "topics": [
            "0x8c5be1e5ebec7d5bd14f71427d1e84f3dd0314c0f7b2291e5b200ac8c7c3b925",
            "0x00000000000000000000000007dab64aa125b206d7fd6a81aab2133a0bdef863",
            "0x00000000000000000000000030f166a8a0c108d32a6dee5d856877a372a6b2fa"
          ],
          "data": "0x000000000000000000000000000000000000000000000002b5e3af16b1880000",
          "blockHash": "0x81c8e9350f7a9babe7504247e58c9b585b2da469ad5ae3dc7e544249159444f6",
          "blockNumber": "0x9ab342",
          "blockTimestamp": "0x697971a8",
          "transactionHash": "0x148d2a71a5f156ed3401fb1e70473cc8b3e32911b60e9c35c3a4fcdf14beca30",
          "transactionIndex": "0x32",
          "logIndex": "0xf5",
          "removed": false
        }
      ],
      "logsBloom": "0x00000000000000000000000000000000000000000000000000000000002000000000000020000000000000240000000000200000000000000000000000200000000000000000000000000000000000000000000000000010000000000000000000000000000000000000000000000000000000000000000000000000004000000000000000000000000000000000000000000000000000000000000000000000060000000000000000000000000000000000000000000000000000000000000000000000000100000000000000000000000000000000000000000000000000000010000000000000000000000000000000000000000000000000000000000000",
      "type": "0x2",
      "transactionHash": "0x148d2a71a5f156ed3401fb1e70473cc8b3e32911b60e9c35c3a4fcdf14beca30",
      "transactionIndex": "0x32",
      "blockHash": "0x81c8e9350f7a9babe7504247e58c9b585b2da469ad5ae3dc7e544249159444f6",
      "blockNumber": "0x9ab342",
      "gasUsed": "0x65e6",
      "effectiveGasPrice": "0x3c637b87",
      "from": "0x07dab64aa125b206d7fd6a81aab2133a0bdef863",
      "to": "0x4b198d1285152b5f8bcbc5e4156d30717b16275e",
      "contractAddress": null
    },
    {
      "status": "0x1",
      "cumulativeGasUsed": "0xcabc43",
      "logs": [
        {
          "address": "0x4b198d1285152b5f8bcbc5e4156d30717b16275e",
          "topics": [
            "0xddf252ad1be2c89b69c2b068fc378daa952ba7f163c4a11628f55a4df523b3ef",
            "0x00000000000000000000000007dab64aa125b206d7fd6a81aab2133a0bdef863",
            "0x00000000000000000000000030f166a8a0c108d32a6dee5d856877a372a6b2fa"
          ],
          "data": "0x000000000000000000000000000000000000000000000002b5e3af16b1880000",
          "blockHash": "0x81c8e9350f7a9babe7504247e58c9b585b2da469ad5ae3dc7e544249159444f6",
          "blockNumber": "0x9ab342",
          "blockTimestamp": "0x697971a8",
          "transactionHash": "0xface7dcac4289a5262f80e6fa6a8883ddb75079610d7a9b08205819a5828a550",
          "transactionIndex": "0x33",
          "logIndex": "0xf6",
          "removed": false
        },
        {
          "address": "0x4b198d1285152b5f8bcbc5e4156d30717b16275e",
          "topics": [
            "0x8c5be1e5ebec7d5bd14f71427d1e84f3dd0314c0f7b2291e5b200ac8c7c3b925",
            "0x00000000000000000000000030f166a8a0c108d32a6dee5d856877a372a6b2fa",
            "0x000000000000000000000000965ccd245eb8683bdc3202b1a1c87515774b833a"
          ],
          "data": "0x000000000000000000000000000000000000000000000002b5e3af16b1880000",
          "blockHash": "0x81c8e9350f7a9babe7504247e58c9b585b2da469ad5ae3dc7e544249159444f6",
          "blockNumber": "0x9ab342",
          "blockTimestamp": "0x697971a8",
          "transactionHash": "0xface7dcac4289a5262f80e6fa6a8883ddb75079610d7a9b08205819a5828a550",
          "transactionIndex": "0x33",
          "logIndex": "0xf7",
          "removed": false
        },
        {
          "address": "0x4b198d1285152b5f8bcbc5e4156d30717b16275e",
          "topics": [
            "0xddf252ad1be2c89b69c2b068fc378daa952ba7f163c4a11628f55a4df523b3ef",
            "0x00000000000000000000000030f166a8a0c108d32a6dee5d856877a372a6b2fa",
            "0x000000000000000000000000965ccd245eb8683bdc3202b1a1c87515774b833a"
          ],
          "data": "0x000000000000000000000000000000000000000000000002b5e3af16b1880000",
          "blockHash": "0x81c8e9350f7a9babe7504247e58c9b585b2da469ad5ae3dc7e544249159444f6",
          "blockNumber": "0x9ab342",
          "blockTimestamp": "0x697971a8",
          "transactionHash": "0xface7dcac4289a5262f80e6fa6a8883ddb75079610d7a9b08205819a5828a550",
          "transactionIndex": "0x33",
          "logIndex": "0xf8",
          "removed": false
        },
        {
          "address": "0x965ccd245eb8683bdc3202b1a1c87515774b833a",
          "topics": [
            "0xe1fffcc4923d04b559f4d29a8bfc6cda04eb5b0d3c460751c2402c5c5cc9109c",
            "0x00000000000000000000000030f166a8a0c108d32a6dee5d856877a372a6b2fa"
          ],
          "data": "0x000000000000000000000000000000000000000000000002b5e3af16b1880000",
          "blockHash": "0x81c8e9350f7a9babe7504247e58c9b585b2da469ad5ae3dc7e544249159444f6",
          "blockNumber": "0x9ab342",
          "blockTimestamp": "0x697971a8",
          "transactionHash": "0xface7dcac4289a5262f80e6fa6a8883ddb75079610d7a9b08205819a5828a550",
          "transactionIndex": "0x33",
          "logIndex": "0xf9",
          "removed": false
        },
        {
          "address": "0x965ccd245eb8683bdc3202b1a1c87515774b833a",
          "topics": [
            "0x9a06c6ce5c54977df4fd88e6bb8c37e5ef9015e953a1c4713e91c1093fb51442",
            "0x0000000000000000000000000000000000000000000000000000000000aa36a7"
          ],
          "data": "0x000000000000000000000000000000000000000000001536c4c8579ca8d00000",
          "blockHash": "0x81c8e9350f7a9babe7504247e58c9b585b2da469ad5ae3dc7e544249159444f6",
          "blockNumber": "0x9ab342",
          "blockTimestamp": "0x697971a8",
          "transactionHash": "0xface7dcac4289a5262f80e6fa6a8883ddb75079610d7a9b08205819a5828a550",
          "transactionIndex": "0x33",
          "logIndex": "0xfa",
          "removed": false
        },
        {
          "address": "0x8c6870dbf36bebf4c7734c35d6b2dd5aece9b385",
          "topics": [
            "0xddf252ad1be2c89b69c2b068fc378daa952ba7f163c4a11628f55a4df523b3ef",
            "0x0000000000000000000000002c71ac4c6f5fdb38b422c85d15121859171c5fd6",
            "0x00000000000000000000000007dab64aa125b206d7fd6a81aab2133a0bdef863"
          ],
          "data": "0x0000000000000000000000000000000000000000000000036a8ea66298a6c000",
          "blockHash": "0x81c8e9350f7a9babe7504247e58c9b585b2da469ad5ae3dc7e544249159444f6",
          "blockNumber": "0x9ab342",
          "blockTimestamp": "0x697971a8",
          "transactionHash": "0xface7dcac4289a5262f80e6fa6a8883ddb75079610d7a9b08205819a5828a550",
          "transactionIndex": "0x33",
          "logIndex": "0xfb",
          "removed": false
        },
        {
          "address": "0x2c71ac4c6f5fdb38b422c85d15121859171c5fd6",
          "topics": [
            "0x884edad9ce6fa2440d8a54cc123490eb96d2768479d49ff9c7366125a9424364",
            "0x00000000000000000000000030f166a8a0c108d32a6dee5d856877a372a6b2fa"
          ],
          "data": "0x0000000000000000000000000000000000000000000000036a8ea66298a6c000",
          "blockHash": "0x81c8e9350f7a9babe7504247e58c9b585b2da469ad5ae3dc7e544249159444f6",
          "blockNumber": "0x9ab342",
          "blockTimestamp": "0x697971a8",
          "transactionHash": "0xface7dcac4289a5262f80e6fa6a8883ddb75079610d7a9b08205819a5828a550",
          "transactionIndex": "0x33",
          "logIndex": "0xfc",
          "removed": false
        },
        {
          "address": "0x2c71ac4c6f5fdb38b422c85d15121859171c5fd6",
          "topics": [
            "0x9a06c6ce5c54977df4fd88e6bb8c37e5ef9015e953a1c4713e91c1093fb51442",
            "0x0000000000000000000000000000000000000000000000000000000000aa36a7"
          ],
          "data": "0x0000000000000000000000000000000000000000000015224ceeda95d99f9b80",
          "blockHash": "0x81c8e9350f7a9babe7504247e58c9b585b2da469ad5ae3dc7e544249159444f6",
          "blockNumber": "0x9ab342",
          "blockTimestamp": "0x697971a8",
          "transactionHash": "0xface7dcac4289a5262f80e6fa6a8883ddb75079610d7a9b08205819a5828a550",
          "transactionIndex": "0x33",
          "logIndex": "0xfd",
          "removed": false
        },
        {
          "address": "0x30f166a8a0c108d32a6dee5d856877a372a6b2fa",
          "topics": [
            "0x6782190c91d4a7e8ad2a867deed6ec0a970cab8ff137ae2bd4abd92b3810f4d3",
            "0x00000000000000000000000007dab64aa125b206d7fd6a81aab2133a0bdef863",
            "0x0000000000000000000000004b198d1285152b5f8bcbc5e4156d30717b16275e",
            "0x0000000000000000000000008c6870dbf36bebf4c7734c35d6b2dd5aece9b385"
          ],
          "data": "0x000000000000000000000000000000000000000000000002b5e3af16b18800000000000000000000000000000000000000000000000000036a8ea66298a6c000",
          "blockHash": "0x81c8e9350f7a9babe7504247e58c9b585b2da469ad5ae3dc7e544249159444f6",
          "blockNumber": "0x9ab342",
          "blockTimestamp": "0x697971a8",
          "transactionHash": "0xface7dcac4289a5262f80e6fa6a8883ddb75079610d7a9b08205819a5828a550",
          "transactionIndex": "0x33",
          "logIndex": "0xfe",
          "removed": false
        }
      ],
      "logsBloom": "0x04000000000000000000000000000008000000000100000000100000012000000000000020000000000400240000000002200000020000000000000000200000000008000000000000000008000000000000000000000010000102008000000000000000000000000000000000200000000000000000210000000010004004001000010000000000000040000000000000000001200000000008000000000000060000001000000010000000000000000401020000000000080000000200000000000002000100000000000000000000100020000000000000010000002000040010002000000000000000000010000000000000000000400000002000010000",
      "type": "0x2",
      "transactionHash": "0xface7dcac4289a5262f80e6fa6a8883ddb75079610d7a9b08205819a5828a550",
      "transactionIndex": "0x33",
      "blockHash": "0x81c8e9350f7a9babe7504247e58c9b585b2da469ad5ae3dc7e544249159444f6",
      "blockNumber": "0x9ab342",
      "gasUsed": "0x24b20",
      "effectiveGasPrice": "0x3c637b87",
      "from": "0x07dab64aa125b206d7fd6a81aab2133a0bdef863",
      "to": "0x30f166a8a0c108d32a6dee5d856877a372a6b2fa",
      "contractAddress": null
    },
    {
      "status": "0x1",
      "cumulativeGasUsed": "0xcb6fe5",
      "logs": [
        {
          "address": "0x4b198d1285152b5f8bcbc5e4156d30717b16275e",
          "topics": [
            "0x8c5be1e5ebec7d5bd14f71427d1e84f3dd0314c0f7b2291e5b200ac8c7c3b925",
            "0x00000000000000000000000007dab64aa125b206d7fd6a81aab2133a0bdef863",
            "0x000000000000000000000000965ccd245eb8683bdc3202b1a1c87515774b833a"
          ],
          "data": "0x000000000000000000000000000000000000000000000001a055690d9db80000",
          "blockHash": "0x81c8e9350f7a9babe7504247e58c9b585b2da469ad5ae3dc7e544249159444f6",
          "blockNumber": "0x9ab342",
          "blockTimestamp": "0x697971a8",
          "transactionHash": "0x2142b1abb3b6d0b0bb997cd6a5e5119c6a5fe2aec3e822e8ea13bd24d545bfee",
          "transactionIndex": "0x34",
          "logIndex": "0xff",
          "removed": false
        }
      ],
      "logsBloom": "0x00000000000000000000000000000000000000000000000000000000002000000000000020000000000000040000000000200000000000000000000000200000000008000000000000000000000000000000000000000010000000000000000000000000000000000000000000000000000000000000000000000000000000000000000000000000000000000000000000000000000000000008000000000000020000000000000000000000000000000000020000000000000000000000000000000000000100000000000000000000000000000000000000000000000000000010000000000000000000000000000000000000000000000000000000000000",
      "type": "0x2",
      "transactionHash": "0x2142b1abb3b6d0b0bb997cd6a5e5119c6a5fe2aec3e822e8ea13bd24d545bfee",
      "transactionIndex": "0x34",
      "blockHash": "0x81c8e9350f7a9babe7504247e58c9b585b2da469ad5ae3dc7e544249159444f6",
      "blockNumber": "0x9ab342",
      "gasUsed": "0xb3a2",
      "effectiveGasPrice": "0x3c637b87",
      "from": "0x07dab64aa125b206d7fd6a81aab2133a0bdef863",
      "to": "0x4b198d1285152b5f8bcbc5e4156d30717b16275e",
      "contractAddress": null
    },
    {
      "status": "0x1",
      "cumulativeGasUsed": "0xcc5344",
      "logs": [
        {
          "address": "0x4b198d1285152b5f8bcbc5e4156d30717b16275e",
          "topics": [
            "0xddf252ad1be2c89b69c2b068fc378daa952ba7f163c4a11628f55a4df523b3ef",
            "0x00000000000000000000000007dab64aa125b206d7fd6a81aab2133a0bdef863",
            "0x000000000000000000000000965ccd245eb8683bdc3202b1a1c87515774b833a"
          ],
          "data": "0x000000000000000000000000000000000000000000000001a055690d9db80000",
          "blockHash": "0x81c8e9350f7a9babe7504247e58c9b585b2da469ad5ae3dc7e544249159444f6",
          "blockNumber": "0x9ab342",
          "blockTimestamp": "0x697971a8",
          "transactionHash": "0xbc2c181099d888236e3729d75bc6a3c257d49ca0a05c36a448134724cac5d7fd",
          "transactionIndex": "0x35",
          "logIndex": "0x100",
          "removed": false
        },
        {
          "address": "0x965ccd245eb8683bdc3202b1a1c87515774b833a",
          "topics": [
            "0xe1fffcc4923d04b559f4d29a8bfc6cda04eb5b0d3c460751c2402c5c5cc9109c",
            "0x00000000000000000000000007dab64aa125b206d7fd6a81aab2133a0bdef863"
          ],
          "data": "0x000000000000000000000000000000000000000000000001a055690d9db80000",
          "blockHash": "0x81c8e9350f7a9babe7504247e58c9b585b2da469ad5ae3dc7e544249159444f6",
          "blockNumber": "0x9ab342",
          "blockTimestamp": "0x697971a8",
          "transactionHash": "0xbc2c181099d888236e3729d75bc6a3c257d49ca0a05c36a448134724cac5d7fd",
          "transactionIndex": "0x35",
          "logIndex": "0x101",
          "removed": false
        },
        {
          "address": "0x965ccd245eb8683bdc3202b1a1c87515774b833a",
          "topics": [
            "0x9a06c6ce5c54977df4fd88e6bb8c37e5ef9015e953a1c4713e91c1093fb51442",
            "0x0000000000000000000000000000000000000000000000000000000000aa36a7"
          ],
          "data": "0x000000000000000000000000000000000000000000001538651dc0aa46880000",
          "blockHash": "0x81c8e9350f7a9babe7504247e58c9b585b2da469ad5ae3dc7e544249159444f6",
          "blockNumber": "0x9ab342",
          "blockTimestamp": "0x697971a8",
          "transactionHash": "0xbc2c181099d888236e3729d75bc6a3c257d49ca0a05c36a448134724cac5d7fd",
          "transactionIndex": "0x35",
          "logIndex": "0x102",
          "removed": false
        }
      ],
      "logsBloom": "0x00000000000000000000000000000000000000000000000000000000012000000000000020000000000000040000000002200000000000000000000000000000000008000000000000000008000000000000000000000010000000008000000000000000000000000000000000000000000000000000000000000010000000000000000000000000000040000000000000000001200000000008000000000000000000001000000000000000000000000001020000000000000000000200000000000002000100000000000000000000100020000000000000000000000000000000000000000000000000000000000000000000000000400000000000000000",
      "type": "0x2",
      "transactionHash": "0xbc2c181099d888236e3729d75bc6a3c257d49ca0a05c36a448134724cac5d7fd",
      "transactionIndex": "0x35",
      "blockHash": "0x81c8e9350f7a9babe7504247e58c9b585b2da469ad5ae3dc7e544249159444f6",
      "blockNumber": "0x9ab342",
      "gasUsed": "0xe35f",
      "effectiveGasPrice": "0x3c637b87",
      "from": "0x07dab64aa125b206d7fd6a81aab2133a0bdef863",
      "to": "0x965ccd245eb8683bdc3202b1a1c87515774b833a",
      "contractAddress": null
    },
    {
      "status": "0x1",
      "cumulativeGasUsed": "0xccfb77",
      "logs": [
        {
          "address": "0x965ccd245eb8683bdc3202b1a1c87515774b833a",
          "topics": [
            "0x43d978bf0f73043cd418617574b71e9f48620e386282109b99def5e92924a85f",
            "0x00000000000000000000000007dab64aa125b206d7fd6a81aab2133a0bdef863"
          ],
          "data": "0x0000000000000000000000000000000000000000000000000000000000066eee000000000000000000000000000000000000000000000001a055690d9db80000",
          "blockHash": "0x81c8e9350f7a9babe7504247e58c9b585b2da469ad5ae3dc7e544249159444f6",
          "blockNumber": "0x9ab342",
          "blockTimestamp": "0x697971a8",
          "transactionHash": "0xbd2547a078fb53ecdd19f473516cee2237ad5263afd93ea77e5b3484da196ace",
          "transactionIndex": "0x36",
          "logIndex": "0x103",
          "removed": false
        },
        {
          "address": "0x965ccd245eb8683bdc3202b1a1c87515774b833a",
          "topics": [
            "0x9a06c6ce5c54977df4fd88e6bb8c37e5ef9015e953a1c4713e91c1093fb51442",
            "0x0000000000000000000000000000000000000000000000000000000000aa36a7"
          ],
          "data": "0x000000000000000000000000000000000000000000001536c4c8579ca8d00000",
          "blockHash": "0x81c8e9350f7a9babe7504247e58c9b585b2da469ad5ae3dc7e544249159444f6",
          "blockNumber": "0x9ab342",
          "blockTimestamp": "0x697971a8",
          "transactionHash": "0xbd2547a078fb53ecdd19f473516cee2237ad5263afd93ea77e5b3484da196ace",
          "transactionIndex": "0x36",
          "logIndex": "0x104",
          "removed": false
        }
      ],
      "logsBloom": "0x00000000000000000000000000000000000000000000000000000000012000000000000020000000000000000000000002200000000000000000000000000000000000000000000000000000000000000000000000000000000000000000000000000000000000000000000000000000000000000000000000000000000000000000000000000000000040000000000000000000200000000000000000000000000000001000040400000000000000000001000000000000000000000200000000000000000000000000000000000000100020000000000000000000000000000000000000000000000000000000000000000000000000000000000000800000",
      "type": "0x2",
      "transactionHash": "0xbd2547a078fb53ecdd19f473516cee2237ad5263afd93ea77e5b3484da196ace",
      "transactionIndex": "0x36",
      "blockHash": "0x81c8e9350f7a9babe7504247e58c9b585b2da469ad5ae3dc7e544249159444f6",
      "blockNumber": "0x9ab342",
      "gasUsed": "0xa833",
      "effectiveGasPrice": "0x3c637b87",
      "from": "0x07dab64aa125b206d7fd6a81aab2133a0bdef863",
      "to": "0x965ccd245eb8683bdc3202b1a1c87515774b833a",
      "contractAddress": null
    },
    {
      "status": "0x1",
      "cumulativeGasUsed": "0xcdaf19",
      "logs": [
        {
          "address": "0x8c6870dbf36bebf4c7734c35d6b2dd5aece9b385",
          "topics": [
            "0x8c5be1e5ebec7d5bd14f71427d1e84f3dd0314c0f7b2291e5b200ac8c7c3b925",
            "0x00000000000000000000000007dab64aa125b206d7fd6a81aab2133a0bdef863",
            "0x0000000000000000000000002c71ac4c6f5fdb38b422c85d15121859171c5fd6"
          ],
          "data": "0x000000000000000000000000000000000000000000000001158e460913d00000",
          "blockHash": "0x81c8e9350f7a9babe7504247e58c9b585b2da469ad5ae3dc7e544249159444f6",
          "blockNumber": "0x9ab342",
          "blockTimestamp": "0x697971a8",
          "transactionHash": "0x46234f7c21b1712fd8ab9d3d475f204241f312d403049d5e3f2aa8a075d00edc",
          "transactionIndex": "0x37",
          "logIndex": "0x105",
          "removed": false
        }
      ],
      "logsBloom": "0x00000000000000000000000000000000000000000000000000000000002000000000000020000000000400000000000000200000020000000000000000200000000000000000000000000000000000000000000000000000000000000000000000000000000000000000000000200000000000000000200000000000000000000000000000000000000000000000000000000000000000000000000000000000020000000000000000000000000000000000000000000000080000000000000000000000000000000000000000000000000000000000000000000000000000000010000000000000000000000000000000000000000000000000000000010000",
      "type": "0x2",
      "transactionHash": "0x46234f7c21b1712fd8ab9d3d475f204241f312d403049d5e3f2aa8a075d00edc",
      "transactionIndex": "0x37",
      "blockHash": "0x81c8e9350f7a9babe7504247e58c9b585b2da469ad5ae3dc7e544249159444f6",
      "blockNumber": "0x9ab342",
      "gasUsed": "0xb3a2",
      "effectiveGasPrice": "0x3c637b87",
      "from": "0x07dab64aa125b206d7fd6a81aab2133a0bdef863",
      "to": "0x8c6870dbf36bebf4c7734c35d6b2dd5aece9b385",
      "contractAddress": null
    },
    {
      "status": "0x1",
      "cumulativeGasUsed": "0xced544",
      "logs": [
        {
          "address": "0x8c6870dbf36bebf4c7734c35d6b2dd5aece9b385",
          "topics": [
            "0xddf252ad1be2c89b69c2b068fc378daa952ba7f163c4a11628f55a4df523b3ef",
            "0x00000000000000000000000007dab64aa125b206d7fd6a81aab2133a0bdef863",
            "0x0000000000000000000000002c71ac4c6f5fdb38b422c85d15121859171c5fd6"
          ],
          "data": "0x000000000000000000000000000000000000000000000001158e460913d00000",
          "blockHash": "0x81c8e9350f7a9babe7504247e58c9b585b2da469ad5ae3dc7e544249159444f6",
          "blockNumber": "0x9ab342",
          "blockTimestamp": "0x697971a8",
          "transactionHash": "0xdd2f5c3956db7f96eb7a59a9fa9787dde1a9bd585c0d8e52e07570dde21203c3",
          "transactionIndex": "0x38",
          "logIndex": "0x106",
          "removed": false
        },
        {
          "address": "0x2c71ac4c6f5fdb38b422c85d15121859171c5fd6",
          "topics": [
            "0xe1fffcc4923d04b559f4d29a8bfc6cda04eb5b0d3c460751c2402c5c5cc9109c",
            "0x00000000000000000000000007dab64aa125b206d7fd6a81aab2133a0bdef863"
          ],
          "data": "0x000000000000000000000000000000000000000000000001158e460913d00000",
          "blockHash": "0x81c8e9350f7a9babe7504247e58c9b585b2da469ad5ae3dc7e544249159444f6",
          "blockNumber": "0x9ab342",
          "blockTimestamp": "0x697971a8",
          "transactionHash": "0xdd2f5c3956db7f96eb7a59a9fa9787dde1a9bd585c0d8e52e07570dde21203c3",
          "transactionIndex": "0x38",
          "logIndex": "0x107",
          "removed": false
        },
        {
          "address": "0x2c71ac4c6f5fdb38b422c85d15121859171c5fd6",
          "topics": [
            "0x9a06c6ce5c54977df4fd88e6bb8c37e5ef9015e953a1c4713e91c1093fb51442",
            "0x0000000000000000000000000000000000000000000000000000000000aa36a7"
          ],
          "data": "0x000000000000000000000000000000000000000000001523627d209eed6f9b80",
          "blockHash": "0x81c8e9350f7a9babe7504247e58c9b585b2da469ad5ae3dc7e544249159444f6",
          "blockNumber": "0x9ab342",
          "blockTimestamp": "0x697971a8",
          "transactionHash": "0xdd2f5c3956db7f96eb7a59a9fa9787dde1a9bd585c0d8e52e07570dde21203c3",
          "transactionIndex": "0x38",
          "logIndex": "0x108",
          "removed": false
        }
      ],
      "logsBloom": "0x00000000000000000000000000000000000000000000000000000000012000000000000020000000000400000000000002200000020000000000000000000000000000000000000000000008000000000000000000000000000000008000000000000000000000000000000000200000000000000000210000000010000000000000000000000000000040000000000000000001000000000000000000000000000000000000000000000000000000000400000000000000080000000200000000000002000000000000000000000000100020000000000000000000000000000000000000000000000000000000000000000000000000400000002000010000",
      "type": "0x2",
      "transactionHash": "0xdd2f5c3956db7f96eb7a59a9fa9787dde1a9bd585c0d8e52e07570dde21203c3",
      "transactionIndex": "0x38",
      "blockHash": "0x81c8e9350f7a9babe7504247e58c9b585b2da469ad5ae3dc7e544249159444f6",
      "blockNumber": "0x9ab342",
      "gasUsed": "0x1262b",
      "effectiveGasPrice": "0x3c637b87",
      "from": "0x07dab64aa125b206d7fd6a81aab2133a0bdef863",
      "to": "0x2c71ac4c6f5fdb38b422c85d15121859171c5fd6",
      "contractAddress": null
    },
    {
      "status": "0x1",
      "cumulativeGasUsed": "0xcf6ab7",
      "logs": [
        {
          "address": "0x2c71ac4c6f5fdb38b422c85d15121859171c5fd6",
          "topics": [
            "0x43d978bf0f73043cd418617574b71e9f48620e386282109b99def5e92924a85f",
            "0x00000000000000000000000007dab64aa125b206d7fd6a81aab2133a0bdef863"
          ],
          "data": "0x0000000000000000000000000000000000000000000000000000000000066eee000000000000000000000000000000000000000000000001158e460913d00000",
          "blockHash": "0x81c8e9350f7a9babe7504247e58c9b585b2da469ad5ae3dc7e544249159444f6",
          "blockNumber": "0x9ab342",
          "blockTimestamp": "0x697971a8",
          "transactionHash": "0xfc10373e68943104ea00aff10cbf9f337332b0ae8d676ac42fd36f9ed64fec0f",
          "transactionIndex": "0x39",
          "logIndex": "0x109",
          "removed": false
        },
        {
          "address": "0x2c71ac4c6f5fdb38b422c85d15121859171c5fd6",
          "topics": [
            "0x9a06c6ce5c54977df4fd88e6bb8c37e5ef9015e953a1c4713e91c1093fb51442",
            "0x0000000000000000000000000000000000000000000000000000000000aa36a7"
          ],
          "data": "0x0000000000000000000000000000000000000000000015224ceeda95d99f9b80",
          "blockHash": "0x81c8e9350f7a9babe7504247e58c9b585b2da469ad5ae3dc7e544249159444f6",
          "blockNumber": "0x9ab342",
          "blockTimestamp": "0x697971a8",
          "transactionHash": "0xfc10373e68943104ea00aff10cbf9f337332b0ae8d676ac42fd36f9ed64fec0f",
          "transactionIndex": "0x39",
          "logIndex": "0x10a",
          "removed": false
        }
      ],
      "logsBloom": "0x00000000000000000000000000000000000000000000000000000000012000000000000020000000000000000000000002200000000000000000000000000000000000000000000000000000000000000000000000000000000000000000000000000000000000000000000000000000000000000000010000000000000000000000000000000000000040000000000000000000000000000000000000000000000000000000040400000000000000000400000000000000000000000200000000000000000000000000000000000000100020000000000000000000000000000000000000000000000000000000000000000000000000000000002000800000",
      "type": "0x2",
      "transactionHash": "0xfc10373e68943104ea00aff10cbf9f337332b0ae8d676ac42fd36f9ed64fec0f",
      "transactionIndex": "0x39",
      "blockHash": "0x81c8e9350f7a9babe7504247e58c9b585b2da469ad5ae3dc7e544249159444f6",
      "blockNumber": "0x9ab342",
      "gasUsed": "0x9573",
      "effectiveGasPrice": "0x3c637b87",
      "from": "0x07dab64aa125b206d7fd6a81aab2133a0bdef863",
      "to": "0x2c71ac4c6f5fdb38b422c85d15121859171c5fd6",
      "contractAddress": null
    }
  ],
  "libraries": [],
  "pending": [],
  "returns": {},
  "timestamp": 1769566632793,
  "chain": 11155111,
  "commit": "b5ad36e"
}