{
  "transactions": [
    {
      "hash": "0x26fa53b66490614b31b0ee1902e81caa4f79f419b217efb030e59b7e60ac3196",
      "transactionType": "CALL",
      "contractName": null,
      "contractAddress": "0x4b198d1285152b5f8bcbc5e4156d30717b16275e",
      "function": "approve(address,uint256)",
      "arguments": [
        "0x965cCD245Eb8683BDC3202b1A1C87515774b833a",
        "50000000000000000000"
      ],
      "transaction": {
        "from": "0x07dab64aa125b206d7fd6a81aab2133a0bdef863",
        "to": "0x4b198d1285152b5f8bcbc5e4156d30717b16275e",
        "gas": "0x106b6",
        "value": "0x0",
        "input": "0x095ea7b3000000000000000000000000965ccd245eb8683bdc3202b1a1c87515774b833a000000000000000000000000000000000000000000000002b5e3af16b1880000",
        "nonce": "0x19b",
        "chainId": "0xaa36a7"
      },
      "additionalContracts": [],
      "isFixedGasLimit": false
    },
    {
      "hash": "0x7c840e8a12e60234d35de8a7ae6e303b387c4ae39f98c1dc0cc59974f45bc586",
      "transactionType": "CALL",
      "contractName": null,
      "contractAddress": "0x965ccd245eb8683bdc3202b1a1c87515774b833a",
      "function": "deposit(uint256)",
      "arguments": [
        "50000000000000000000"
      ],
      "transaction": {
        "from": "0x07dab64aa125b206d7fd6a81aab2133a0bdef863",
        "to": "0x965ccd245eb8683bdc3202b1a1c87515774b833a",
        "gas": "0x1be37",
        "value": "0x0",
        "input": "0xb6b55f25000000000000000000000000000000000000000000000002b5e3af16b1880000",
        "nonce": "0x19c",
        "chainId": "0xaa36a7"
      },
      "additionalContracts": [],
      "isFixedGasLimit": false
    },
    {
      "hash": "0x1e65665dc33c7172d7951586a68e2123349d7f921b07bfd76ae095bd7a61d399",
      "transactionType": "CALL",
      "contractName": null,
      "contractAddress": "0x965ccd245eb8683bdc3202b1a1c87515774b833a",
      "function": "lockForCrossChain(uint64,uint256)",
      "arguments": [
        "421614",
        "50000000000000000000"
      ],
      "transaction": {
        "from": "0x07dab64aa125b206d7fd6a81aab2133a0bdef863",
        "to": "0x965ccd245eb8683bdc3202b1a1c87515774b833a",
        "gas": "0xda91",
        "value": "0x0",
        "input": "0x9d83dddf0000000000000000000000000000000000000000000000000000000000066eee000000000000000000000000000000000000000000000002b5e3af16b1880000",
        "nonce": "0x19d",
        "chainId": "0xaa36a7"
      },
      "additionalContracts": [],
      "isFixedGasLimit": false
    },
    {
      "hash": "0x61627c7128a75034c0c72ac6cf3847c28c71582588d5a5da45e793d10c9de81f",
      "transactionType": "CALL",
      "contractName": null,
      "contractAddress": "0x965ccd245eb8683bdc3202b1a1c87515774b833a",
      "function": "setCrossChainMessenger(address)",
      "arguments": [
        "0x07dab64Aa125B206D7fd6a81AaB2133A0bdEF863"
      ],
      "transaction": {
        "from": "0x07dab64aa125b206d7fd6a81aab2133a0bdef863",
        "to": "0x965ccd245eb8683bdc3202b1a1c87515774b833a",
        "gas": "0xfb53",
        "value": "0x0",
        "input": "0xaf19ce5c00000000000000000000000007dab64aa125b206d7fd6a81aab2133a0bdef863",
        "nonce": "0x19e",
        "chainId": "0xaa36a7"
      },
      "additionalContracts": [],
      "isFixedGasLimit": false
    },
    {
      "hash": "0xdc0f90813254a2839cefac9125dbabdafd95fe567444df329c6d6c0224d5b2e9",
      "transactionType": "CALL",
      "contractName": null,
      "contractAddress": "0x965ccd245eb8683bdc3202b1a1c87515774b833a",
      "function": "mintFromCrossChain(address,uint256)",
      "arguments": [
        "0x07dab64Aa125B206D7fd6a81AaB2133A0bdEF863",
        "30000000000000000000"
      ],
      "transaction": {
        "from": "0x07dab64aa125b206d7fd6a81aab2133a0bdef863",
        "to": "0x965ccd245eb8683bdc3202b1a1c87515774b833a",
        "gas": "0x150ce",
        "value": "0x0",
        "input": "0xee79a57500000000000000000000000007dab64aa125b206d7fd6a81aab2133a0bdef863000000000000000000000000000000000000000000000001a055690d9db80000",
        "nonce": "0x19f",
        "chainId": "0xaa36a7"
      },
      "additionalContracts": [],
      "isFixedGasLimit": false
    }
  ],
  "receipts": [
    {
      "status": "0x1",
      "cumulativeGasUsed": "0x37bb892",
      "logs": [
        {
          "address": "0x4b198d1285152b5f8bcbc5e4156d30717b16275e",
          "topics": [
            "0x8c5be1e5ebec7d5bd14f71427d1e84f3dd0314c0f7b2291e5b200ac8c7c3b925",
            "0x00000000000000000000000007dab64aa125b206d7fd6a81aab2133a0bdef863",
            "0x000000000000000000000000965ccd245eb8683bdc3202b1a1c87515774b833a"
          ],
          "data": "0x000000000000000000000000000000000000000000000002b5e3af16b1880000",
          "blockHash": "0x1a9e4f1da2dd0a19f29226fb48a04e3bc09a3305bbb4987f4bd65c294042edfd",
          "blockNumber": "0x9ab261",
          "blockTimestamp": "0x697966b0",
          "transactionHash": "0xdc0f90813254a2839cefac9125dbabdafd95fe567444df329c6d6c0224d5b2e9",
          "transactionIndex": "0x40",
          "logIndex": "0x45",
          "removed": false
        }
      ],
      "logsBloom": "0x00000000000000000000000000000000000000000000000000000000002000000000000020000000000000040000000000200000000000000000000000200000000008000000000000000000000000000000000000000010000000000000000000000000000000000000000000000000000000000000000000000000000000000000000000000000000000000000000000000000000000000008000000000000020000000000000000000000000000000000020000000000000000000000000000000000000100000000000000000000000000000000000000000000000000000010000000000000000000000000000000000000000000000000000000000000",
      "type": "0x2",
      "transactionHash": "0xdc0f90813254a2839cefac9125dbabdafd95fe567444df329c6d6c0224d5b2e9",
      "transactionIndex": "0x40",
      "blockHash": "0x1a9e4f1da2dd0a19f29226fb48a04e3bc09a3305bbb4987f4bd65c294042edfd",
      "blockNumber": "0x9ab261",
      "gasUsed": "0xb3a2",
      "effectiveGasPrice": "0x3af7f7ce",
      "from": "0x07dab64aa125b206d7fd6a81aab2133a0bdef863",
      "to": "0x4b198d1285152b5f8bcbc5e4156d30717b16275e",
      "contractAddress": null
    },
    {
      "status": "0x1",
      "cumulativeGasUsed": "0x37ce9ad",
      "logs": [
        {
          "address": "0x4b198d1285152b5f8bcbc5e4156d30717b16275e",
          "topics": [
            "0xddf252ad1be2c89b69c2b068fc378daa952ba7f163c4a11628f55a4df523b3ef",
            "0x00000000000000000000000007dab64aa125b206d7fd6a81aab2133a0bdef863",
            "0x000000000000000000000000965ccd245eb8683bdc3202b1a1c87515774b833a"
          ],
          "data": "0x000000000000000000000000000000000000000000000002b5e3af16b1880000",
          "blockHash": "0x1a9e4f1da2dd0a19f29226fb48a04e3bc09a3305bbb4987f4bd65c294042edfd",
          "blockNumber": "0x9ab261",
          "blockTimestamp": "0x697966b0",
          "transactionHash": "0x61627c7128a75034c0c72ac6cf3847c28c71582588d5a5da45e793d10c9de81f",
          "transactionIndex": "0x41",
          "logIndex": "0x46",
          "removed": false
        },
        {
          "address": "0x965ccd245eb8683bdc3202b1a1c87515774b833a",
          "topics": [
            "0xe1fffcc4923d04b559f4d29a8bfc6cda04eb5b0d3c460751c2402c5c5cc9109c",
            "0x00000000000000000000000007dab64aa125b206d7fd6a81aab2133a0bdef863"
          ],
          "data": "0x000000000000000000000000000000000000000000000002b5e3af16b1880000",
          "blockHash": "0x1a9e4f1da2dd0a19f29226fb48a04e3bc09a3305bbb4987f4bd65c294042edfd",
          "blockNumber": "0x9ab261",
          "blockTimestamp": "0x697966b0",
          "transactionHash": "0x61627c7128a75034c0c72ac6cf3847c28c71582588d5a5da45e793d10c9de81f",
          "transactionIndex": "0x41",
          "logIndex": "0x47",
          "removed": false
        },
        {
          "address": "0x965ccd245eb8683bdc3202b1a1c87515774b833a",
          "topics": [
            "0x9a06c6ce5c54977df4fd88e6bb8c37e5ef9015e953a1c4713e91c1093fb51442",
            "0x0000000000000000000000000000000000000000000000000000000000aa36a7"
          ],
          "data": "0x0000000000000000000000000000000000000000000015352472ee8f0b180000",
          "blockHash": "0x1a9e4f1da2dd0a19f29226fb48a04e3bc09a3305bbb4987f4bd65c294042edfd",
          "blockNumber": "0x9ab261",
          "blockTimestamp": "0x697966b0",
          "transactionHash": "0x61627c7128a75034c0c72ac6cf3847c28c71582588d5a5da45e793d10c9de81f",
          "transactionIndex": "0x41",
          "logIndex": "0x48",
          "removed": false
        }
      ],
      "logsBloom": "0x00000000000000000000000000000000000000000000000000000000012000000000000020000000000000040000000002200000000000000000000000000000000008000000000000000008000000000000000000000010000000008000000000000000000000000000000000000000000000000000000000000010000000000000000000000000000040000000000000000001200000000008000000000000000000001000000000000000000000000001020000000000000000000200000000000002000100000000000000000000100020000000000000000000000000000000000000000000000000000000000000000000000000400000000000000000",
      "type": "0x2",
      "transactionHash": "0x61627c7128a75034c0c72ac6cf3847c28c71582588d5a5da45e793d10c9de81f",
      "transactionIndex": "0x41",
      "blockHash": "0x1a9e4f1da2dd0a19f29226fb48a04e3bc09a3305bbb4987f4bd65c294042edfd",
      "blockNumber": "0x9ab261",
      "gasUsed": "0x1311b",
      "effectiveGasPrice": "0x3af7f7ce",
      "from": "0x07dab64aa125b206d7fd6a81aab2133a0bdef863",
      "to": "0x965ccd245eb8683bdc3202b1a1c87515774b833a",
      "contractAddress": null
    },
    {
      "status": "0x1",
      "cumulativeGasUsed": "0x37d7f20",
      "logs": [
        {
          "address": "0x965ccd245eb8683bdc3202b1a1c87515774b833a",
          "topics": [
            "0x43d978bf0f73043cd418617574b71e9f48620e386282109b99def5e92924a85f",
            "0x00000000000000000000000007dab64aa125b206d7fd6a81aab2133a0bdef863"
          ],
          "data": "0x0000000000000000000000000000000000000000000000000000000000066eee000000000000000000000000000000000000000000000002b5e3af16b1880000",
          "blockHash": "0x1a9e4f1da2dd0a19f29226fb48a04e3bc09a3305bbb4987f4bd65c294042edfd",
          "blockNumber": "0x9ab261",
          "blockTimestamp": "0x697966b0",
          "transactionHash": "0x26fa53b66490614b31b0ee1902e81caa4f79f419b217efb030e59b7e60ac3196",
          "transactionIndex": "0x42",
          "logIndex": "0x49",
          "removed": false
        },
        {
          "address": "0x965ccd245eb8683bdc3202b1a1c87515774b833a",
          "topics": [
            "0x9a06c6ce5c54977df4fd88e6bb8c37e5ef9015e953a1c4713e91c1093fb51442",
            "0x0000000000000000000000000000000000000000000000000000000000aa36a7"
          ],
          "data": "0x0000000000000000000000000000000000000000000015326e8f3f7859900000",
          "blockHash": "0x1a9e4f1da2dd0a19f29226fb48a04e3bc09a3305bbb4987f4bd65c294042edfd",
          "blockNumber": "0x9ab261",
          "blockTimestamp": "0x697966b0",
          "transactionHash": "0x26fa53b66490614b31b0ee1902e81caa4f79f419b217efb030e59b7e60ac3196",
          "transactionIndex": "0x42",
          "logIndex": "0x4a",
          "removed": false
        }
      ],
      "logsBloom": "0x00000000000000000000000000000000000000000000000000000000012000000000000020000000000000000000000002200000000000000000000000000000000000000000000000000000000000000000000000000000000000000000000000000000000000000000000000000000000000000000000000000000000000000000000000000000000040000000000000000000200000000000000000000000000000001000040400000000000000000001000000000000000000000200000000000000000000000000000000000000100020000000000000000000000000000000000000000000000000000000000000000000000000000000000000800000",
      "type": "0x2",
      "transactionHash": "0x26fa53b66490614b31b0ee1902e81caa4f79f419b217efb030e59b7e60ac3196",
      "transactionIndex": "0x42",
      "blockHash": "0x1a9e4f1da2dd0a19f29226fb48a04e3bc09a3305bbb4987f4bd65c294042edfd",
      "blockNumber": "0x9ab261",
      "gasUsed": "0x9573",
      "effectiveGasPrice": "0x3af7f7ce",
      "from": "0x07dab64aa125b206d7fd6a81aab2133a0bdef863",
      "to": "0x965ccd245eb8683bdc3202b1a1c87515774b833a",
      "contractAddress": null
    },
    {
      "status": "0x1",
      "cumulativeGasUsed": "0x37e2af9",
      "logs": [],
      "logsBloom": "0x00000000000000000000000000000000000000000000000000000000000000000000000000000000000000000000000000000000000000000000000000000000000000000000000000000000000000000000000000000000000000000000000000000000000000000000000000000000000000000000000000000000000000000000000000000000000000000000000000000000000000000000000000000000000000000000000000000000000000000000000000000000000000000000000000000000000000000000000000000000000000000000000000000000000000000000000000000000000000000000000000000000000000000000000000000000",
      "type": "0x2",
      "transactionHash": "0x7c840e8a12e60234d35de8a7ae6e303b387c4ae39f98c1dc0cc59974f45bc586",
      "transactionIndex": "0x43",
      "blockHash": "0x1a9e4f1da2dd0a19f29226fb48a04e3bc09a3305bbb4987f4bd65c294042edfd",
      "blockNumber": "0x9ab261",
      "gasUsed": "0xabd9",
      "effectiveGasPrice": "0x3af7f7ce",
      "from": "0x07dab64aa125b206d7fd6a81aab2133a0bdef863",
      "to": "0x965ccd245eb8683bdc3202b1a1c87515774b833a",
      "contractAddress": null
    },
    {
      "status": "0x1",
      "cumulativeGasUsed": "0x37f1ed1",
      "logs": [
        {
          "address": "0x965ccd245eb8683bdc3202b1a1c87515774b833a",
          "topics": [
            "0x4725fa1d23f4a857d4d5255ead3524220b13a6c632a2b27eca0cd639797a888b",
            "0x00000000000000000000000007dab64aa125b206d7fd6a81aab2133a0bdef863"
          ],
          "data": "0x0000000000000000000000000000000000000000000000000000000000aa36a7000000000000000000000000000000000000000000000001a055690d9db80000",
          "blockHash": "0x1a9e4f1da2dd0a19f29226fb48a04e3bc09a3305bbb4987f4bd65c294042edfd",
          "blockNumber": "0x9ab261",
          "blockTimestamp": "0x697966b0",
          "transactionHash": "0x1e65665dc33c7172d7951586a68e2123349d7f921b07bfd76ae095bd7a61d399",
          "transactionIndex": "0x44",
          "logIndex": "0x4b",
          "removed": false
        },
        {
          "address": "0x965ccd245eb8683bdc3202b1a1c87515774b833a",
          "topics": [
            "0x9a06c6ce5c54977df4fd88e6bb8c37e5ef9015e953a1c4713e91c1093fb51442",
            "0x0000000000000000000000000000000000000000000000000000000000aa36a7"
          ],
          "data": "0x0000000000000000000000000000000000000000000015340ee4a885f7480000",
          "blockHash": "0x1a9e4f1da2dd0a19f29226fb48a04e3bc09a3305bbb4987f4bd65c294042edfd",
          "blockNumber": "0x9ab261",
          "blockTimestamp": "0x697966b0",
          "transactionHash": "0x1e65665dc33c7172d7951586a68e2123349d7f921b07bfd76ae095bd7a61d399",
          "transactionIndex": "0x44",
          "logIndex": "0x4c",
          "removed": false
        }
      ],
      "logsBloom": "0x00000000000000000000000000000000000000000000000000000000012000000000000020000000000000000000000002200000000000000000000000000000000000000000000000000000000000000000000000000000000000000000000000000000000000000000000000000000000000000000000000000000000000000000000000001000000440000000000000000000200000000000000000000000000000001000000000000000000000000001000000000000000000000200000000000000000000000000000000000000100020000000000000000000000000000000000000000000000000000000000000000000000000000000000000020000",
      "type": "0x2",
      "transactionHash": "0x1e65665dc33c7172d7951586a68e2123349d7f921b07bfd76ae095bd7a61d399",
      "transactionIndex": "0x44",
      "blockHash": "0x1a9e4f1da2dd0a19f29226fb48a04e3bc09a3305bbb4987f4bd65c294042edfd",
      "blockNumber": "0x9ab261",
      "gasUsed": "0xf3d8",
      "effectiveGasPrice": "0x3af7f7ce",
      "from": "0x07dab64aa125b206d7fd6a81aab2133a0bdef863",
      "to": "0x965ccd245eb8683bdc3202b1a1c87515774b833a",
      "contractAddress": null
    }
  ],
  "libraries": [],
  "pending": [],
  "returns": {},
  "timestamp": 1769563824685,
  "chain": 11155111,
  "commit": null
}